:020000040800F2
:1000000000040020E10D0008412000084120000804
:10001000412000084120000841200008412000083C
:10002000412000084120000841200008C10D0008BF
:10003000412000084120000841200008413100080B
:10004000412000084120000841200008412000080C
:100050004120000841200008C12D0008912D000812
:10006000612D0008312D0008012D00080120000835
:10007000312F0008F12E0008B12E0008712E000863
:10008000312E0008F12D0008412000084120000811
:10009000412000084120000841200008912C000860
:1000A00041200008412000084120000841200008AC
:1000B000412000084120000841200008412000089C
:1000C0004120000821330008F131000841200008D8
:1000D00041200008B12F00084120000841200008FD
:1000E000112C0008D12B0008912B0008412000089A
:1000F000412000084120000841200008412000085C
:10010000412000084120000841200008412000084B
:10011000412000084120000841200008412000083B
:10012000412000084120000841200008412000082B
:10013000412000084120000841200008412000081B
:100140002DE98048AB4A8DB013680C260393002339
:10015000136002F5D13202F5F67211694FF0FF31EA
:1001600011611361D068D160D360D169934641F0C9
:100170008051D161D169A04841F00061D1611A4636
:1001800001689E4C41F4807101609D490B609D495E
:1001900006FB03F000590025026041F833200133CB
:1001A000072BF5D14FF0FF3A974ADFF8CC92C2F80F
:1001B00004A0DBF81820DFF8C4C242F07D02CBF8BF
:1001C00018204FF48052C9F80C20904A9049C9F881
:1001D000042044F24242C9F800204FF41042CCF807
:1001E0000C208C4A4FF00108CCF804208A4A8B4E30
:1001F000CCF8002002F18842A2F50052CDF814C0DC
:10020000CD604A604FF044320A60C1F80C54C1F826
:100210000424C1F80024C1F80C58C1F80428C1F81E
:1002200000287F4A7F4C02F10C011161D1607E49A8
:10023000C2F8008051637D495560D1620C39556127
:10024000D561116332467A49656042F8041B7260D9
:1002500006F1300106F10C02C4F80080C6F80880EF
:100260003261716331631021F26006F1540232622F
:100270007262B26106F16402F2617264B264F263A6
:1002800006F1740232646B4A6B48F2646B4AB163E4
:10029000756172674268B56242F03002F662366597
:1002A000426048F69F40664A664F50609560136012
:1002B00080224FF6FF00644B83F823209D60DA68AC
:1002C0001040624A02436248DA60C26842F08072BB
:1002D000C2606048026842EA080202602022D977C0
:1002E00083F822205C4B06A803F11C025B609D6032
:1002F0001A62DA61DD8400229D621B605B611B6112
:10030000A3F824A0049300230795CDE90A230895B8
:100310000995CDF818A000F043FE06A800F008FEED
:10032000049B089A4D499A624D4A002022F0070228
:100330000A604C4A4C4922F007020A604B4A4C4979
:100340009560116002F11001516111610021C3E952
:100350001201C3E9180103F17C01D5609561996729
:10036000402202211D635D63DD631D645D645D6584
:100370009D65DD655A67BA6087F8201087F82150BF
:100380003A64FD63BD63BD61C3F838A0C3F850A0F3
:1003900087F822803B615A695F617A61176107F1D2
:1003A0002802BA6207F12C023A63FA6207F160028E
:1003B000FA6100230022FD64C7E916233D657D65CF
:1003C000C7F848A007F1480000F0EAFD049B294A5D
:1003D0009F61FA61DA6E87F820801D464F46002A39
:1003E0004ED1D3F870A0DDF814C0BAF1000F49D097
:1003F00046E000BF146C004000700040C078000868
:10040000EC1C00200018002000000240A42424441A
:100410000010014044EE482444644444800A002013
:10042000F41C0020F808002000580040F078000874
:10043000E0770008312B000800000140003801403F
:1004400010E000E0100A002000ED00E00003FA05D3
:10045000F0ED00E0001000E038180020700A0020E5
:10046000631D002000280020E00F0020E809002084
:10047000211900080004002000080140000C014080
:10048000B2485BE0CDF814C08AF3118862B6B04A76
:100490009B69F8219A61AF484246CDF800A0AE4B67
:1004A00001F016FDAD4BC3F808805B601B60AC4BE0
:1004B000C3F808805B601B6006F0D2F905F0C0FA53
:1004C0005322A84B1A70022283F802805A700493B8
:1004D00004F05EF8012818BF0220049BDDF814C068
:1004E000D870D9F80820DCF80810C2F3002211F403
:1004F000804F0CBF1021002141EAC20242F04002AD
:10050000DFF8B882DA73D8F800204FF4F471120AD9
:100510001A729548CDF800A04622944B01F0D8FC01
:10052000202383F3118800F04BFD01F0D9F9B36863
:10053000CDF810805A1E012A02D98D4800F068FDBE
:10054000012B0DD1C022DBF8183043F48043CBF8E7
:100550001830884B83F825232022C3F884215A6061
:100560009C22854B4FF040095B6F4FF0010A1A81C6
:10057000002642F22C124FF00208A3F81090A3F8C4
:1005800014A09A811E801A889B887B4BC3F8088030
:1005900001F0EEF800F0FCFCAA692B6892689B68F9
:1005A0009A4201D27548C9E786F31188724B7448A4
:1005B000DFF80CB252467349CBF80030006006F009
:1005C000B7FB714B714A1E60714B1B60714B1B6016
:1005D000714B1B60714B1B60714B1B60714B1B603F
:1005E000714B9B68C3F380331360BB68C3F3002374
:1005F0005360202383F3118800F0E2FC01F070F9CE
:1006000023685E465A1E012A01D9684896E7684960
:10061000684A012B516041D160228021554B4FF433
:10062000807E83F806234FF40070C3F880914FF466
:10063000000CC3F8009083F80723C3F880111960F9
:100640004FF4806183F80823C3F880E1C3F800E029
:1006500083F80923C3F88001186083F80A23C3F8DC
:100660008011196083F81723C3F880C1C3F800C054
:1006700083F82823C3F884E1C3F804E083F8012356
:10068000C3F88081C3F8008083F82923C3F884016C
:10069000586083F82A23C3F884115960002201218D
:1006A0004FF00F0BD4F804A0434B5AF832C01CF0A3
:1006B000040F00F087800F2A17D822F0030000F102
:1006C000804000F5803002F00308D0F808E04FEADF
:1006D00088080BFA08F92EEA0909CCF3031E0EFA72
:1006E00008FE49EA0E0EC0F808E0986801FA02FE1A
:1006F0001CF0010F14BF4EEA000020EA0E009860C3
:10070000D86801FA02FE1CF0020F14BF4EEA000086
:1007100020EA0E00D8600AEBC200406850B11868A9
:1007200001FA02FE4EEA00001860586820EA0E0046
:10073000586064E0586801FA02FE4EEA0000586012
:10074000186820EA0E00186059E000BF2079000800
:10075000C0770008D80E0020A10D0008740A002000
:10076000DC090020AC090020F80A0020F15500083F
:10077000B077000800E100E0800A0020107800084F
:10078000A8090020140900200C090020D00F002027
:10079000D8090020A009002010090020D40E002054
:1007A0000009002008090020000C0140A079000881
:1007B00020780008F808002000040140186C004070
:1007C000A409002001FA02FE6FEA0E00D3F800C06F
:1007D00000EA0C0CC3F800C0D3F804C000EA0C0C0B
:1007E000C3F804C0D3F808C000EA0C0CC3F808C072
:1007F000D3F80CC000EA0C00D860C3F814E0013252
:10080000132A7FF452AF4FF00208C4F8008000F0C2
:10081000AFFF00F0BDFBAA692B6892689B689A4203
:1008200001D25E488AE6002484F311884FF0010962
:1008300042465B485B4906F07BFA5B485B49042211
:1008400006F076FA5A485B49082206F071FA5A48CF
:100850005A49102206F06CFA59485A49202206F0EB
:1008600067FA59485949402206F062FA584B424605
:100870001B68584900933068012304F021FFBDF83C
:100880000C203068544942F0006204F019FF534EC6
:10089000534BC6F800907360202383F3118800F057
:1008A0008FFB01F01DF845F2555273681A6004225F
:1008B0005A604FF47A729A604AF6AA221A604CF68D
:1008C000CC421A60C6F8008000F062FF00944246F5
:1008D000444B45484FF4847101F0FAFABA68434B2F
:1008E00012F4807F1C701C4612D032269846207865
:1008F00080B90146024603F01BFE18B9012388F8AF
:10090000003002E0052001F0CBFA013EEFD101E01A
:1009100083F80090237853B10023354A354813708B
:100920004FF4F47100937522334B01F0D1FA002299
:10093000324B1A60049B1B6803F0F003502B01D06C
:1009400002F086F803F0ECFB10B102F081F801E050
:1009500002F0A6F84FF0006302223B61284B1A60B8
:1009600022780AB101221A6001F082FAAB691A6C8E
:10097000996891424FF00C0201D00B2900D89A607F
:100980001A6400F00DFD00F093FF04F0B1FF06F0D3
:10099000AFF901461B4800F0FBFBF8E700780008C0
:1009A000D809002028090020A00900203C090020C7
:1009B000D40E0020500900201009002064090020F6
:1009C0000009002078090020080900208C09002077
:1009D000000800202579000855790008D80F00206C
:1009E0000030004071590008E80F00200409002081
:1009F000080A0020E80C0020E1430008E00C002079
:100A0000D00E0020040800200000000000000000BC
:100A10002DE9F04FC1F80CD0D0F80CD0BDE8F08F24
:100A200000F0A6FE00F0B4FA002383F311882846F4
:100A3000A04701F02DFA00F0C3FA00F051FF00F0DA
:100A400007FC00F095FE00F0A3FA00DFFEE70000CF
:100A5000D0400B1CD1409C46203AD3401843524210
:100A600063469340184370470000000000000000F8
:100A70004BB942B9002908BF002802D04FF0FF311E
:100A8000084600F00DB882B0EC462DE9005000F0A9
:100A900027F8DDF804E002B00CBC7047000000004D
:100AA00002B54FF0080009F041FC02BD0000000053
:100AB0002DE9F04198461446069D06460F4600F083
:100AC00027F8A4FB0023864604FB01F4B61A00FBBA
:100AD0000844234467EB0307C5E90067BDE8F081DC
:100AE0002DE9F8431746804689461D46089E00F0CA
:100AF000BFF800FB05F3A0FB074507FB0137B8EB88
:100B000004043D4469EB0505C6E90045BDE8F883EA
:100B100000292DE9F04FA2BF804689464FF0000E14
:100B2000C0F29A80002BA4BF10461946C0F28E80F6
:100B30008945444608BF80454D463CBF0020002102
:100B400067D3B1FA81F2002976D0B9FA89F3B9F105
:100B5000000F6DD0D31AA3F1200C01FA03F700FAAD
:100B60000CF2C3F1200A174320FA0AF2174300FAE5
:100B700003F6B9451A4608BFB0453CBF0020002126
:100B80000CD34FF0010B2BFA0AF40BFA0CF12143B2
:100B9000B8EB060469EB07050BFA03F0002B38D01D
:100BA0007F084FEA360609E0A41B65EB0705241908
:100BB0006D41013445F10005013B07D0BD4208BF3E
:100BC000B442F1D224196D41013BF7D1C2F12007A3
:100BD00024FA02F305FA07F7A2F120063B4325FAAF
:100BE00006F6334325FA02FCA2F1200800190CFA9C
:100BF00002F703FA08F8C2F1200C47EA080723FAC3
:100C00000CFC03FA02F6694147EA0C07801B61EB12
:100C100007011EF100024FF0000318BF01225442E9
:100C200063EB43056040694080185941BDE8F08F8F
:100C3000B8FA88F320338DE7B0FA80F303F120028D
:100C4000B9FA89F3B9F1000F84D1F1E750426FEAA4
:100C50000E0E63EB43016BE7D0F100084FF0FF3E4F
:100C600061EB41095EE700BF0000000000000000EA
:100C70002DE9F0410D469D42044608BF94421046BE
:100C8000194667D3B3FA83F2002B6BD0B5FA85F31C
:100C9000002D63D0D31AA3F1200201FA03F7C3F1A8
:100CA000200C00FA02F10F4320FA0CF10F4300FA76
:100CB00003F6BD429E4608BFB4423CBF002000215F
:100CC0000CD34FF00108A41B28FA0CFC08FA02F11F
:100CD00041EA0C0165EB070508FA03F0002B3BD055
:100CE0007F084FEA360609E0A41B65EB07052419C7
:100CF0006D41013445F10005013B07D0BD4208BFFD
:100D0000B442F1D224196D41013BF7D1CEF120025A
:100D100024FA0EF605FA02F2AEF1200325FA03F3E7
:100D200016431E4325FA0EF7AEF1200C001907FA00
:100D30000EF306FA0CFCCEF1200743EA0C0326FA68
:100D400007F706FA0EF269413B43801A61EB030193
:100D5000BDE8F08100200021BDE8F081B4FA84F301
:100D6000203397E7B0FA80F303F12002B5FA85F358
:100D7000002D8FD1F2E700BF00000000000000004E
:100D80000B4610B51B688B4204D09C688268944265
:100D9000F8D219464B68016043604860186010BD86
:100DA000024B034A9B699A6130BFFDE73818002067
:100DB0009075000800000000000000000000000026
:100DC000EFF30983203383F30988002383F3118829
:100DD000704700000000000000000000000000005C
:100DE00072B6314A82F30988022383F31488BFF371
:100DF0006F8F2E4B196841F00101196018682B495B
:100E00008407FBD5086800F0F900086000204860FE
:100E10005868264910F00C0FFAD1486840F4E010E9
:100E20004860086840F08070086018681F498001B9
:100E3000FBD511241E4848601E480460486840F0F5
:100E400002004860596801F00C010829FAD14FF0FE
:100E50005530194B19498B4202D243F8040BFAE77B
:100E60004FF05531164B934202D243F8041BFAE778
:100E7000144A154B15498B4204D252F8040F43F81B
:100E8000040BF8E70021124B124A934202D243F8B6
:100E9000041BFAE7104C114DAC4203D254F8043B4A
:100EA0009847F9E7FFF74CF90008002000100240CE
:100EB00000641C000020024000000020000400200C
:100EC000000400204CA3000800080020580800205F
:100ED000F80800205C1D00204001000840010008C7
:100EE000024A136B01331363704700BF38180020A8
:100EF0000D4BC2685B6830B5D0E904458B600132A8
:100F0000C26082689B1A4268E41845F1000593426A
:100F10008360C0E9044501D9436030BD0268934253
:100F200038BF036030BD00BF001000E000000000CB
:100F30000E4B30B55A680E4BC1689C6A836801310C
:100F4000D31A1B1B4268D0E90445E41845F100059B
:100F50009342C1608360C0E9044501D9436030BD5C
:100F60000268934238BF036030BD00BF001000E04C
:100F70003818002000000000000000000000000001
:100F80000148FFF7D5BF00BF88180020000000000F
:100F90000148FFF7CDBF00BF70180020000000001F
:100FA000014B5B6883607047001000E000000000A8
:100FB0000148FFF7F5BF00BF8818002000000000BF
:100FC0000148FFF7EDBF00BF7018002000000000CF
:100FD0000B4A936FD18C103323F8101C916943F89E
:100FE0000C1C416A43F8081C90F8201003F8041CFC
:100FF00002F27C418B4228BF02F17C039367704769
:101000003818002000000000000000000000000070
:101010001FB5044672B6484B484DA866186048484C
:1010200001F03EF9474803F01BF86146464803F0DB
:1010300017F86946454803F013F87146444803F031
:101040000FF87946434803F00BF8434803F008F8DB
:101050000146424803F004F80946404803F000F80E
:1010600011463E4802F0FCFF19463D4802F0F8FFE9
:101070003C4802F0F5FF2146384802F0F1FF2946CE
:10108000364802F0EDFF3146344802F0E9FF3946B8
:10109000334802F0E5FF344802F0E2FF41462F48B2
:1010A00002F0DEFF49462D4802F0DAFF51462B4898
:1010B00002F0D6FF59462A4802F0D2FF21462B48BB
:1010C00002F0CEFF2A4801F0EBF82A4801F0E8F8D8
:1010D000294E2C69A268E368009294F822202146E8
:1010E000013A019294F82020244856F822200292D6
:1010F000A26903921A6A02F0B3FF2469AC4201D0DC
:10110000002CE7D16E461E483146AA6902F0A8FFBE
:1011100000241C4856F8241002F0A2FFE31E9B078F
:1011200002D1194802F09CFF0134202CF1D117485C
:1011300002F096FFFEE700BF146C00403818002054
:1011400095750008A5750008B1750008BF75000801
:10115000CC750008DA750008E7750008B575000859
:10116000DE750008EF750008F7750008FF750008C8
:101170000B76000815760008A07300084D7600086D
:101180007676000893760008808E00089C7600082A
:10119000F8B50D46064610B10024012707E00A48BD
:1011A000FFF736FF07FA04F22A4203D10134002D7B
:1011B000F8D108E056F82430002BF0D0204625EA7C
:1011C00002059847F2E7F8BD8075000800000000AE
:1011D00038B51A4B1A689C6911681D464B60196036
:1011E00001219A6182F82010002284F82020A26850
:1011F0001B6899689142FBD85A6823606260204658
:101200005C601460FFF7E4FE6B6BA969013304F1C5
:10121000480048316B63FFF76BFEEFF30983E26927
:10122000243B9A4202D90648FFF7F2FE034B2146BF
:101230009869BDE83840FFF7EBBB00BF38180020C5
:10124000B47600080000000000000000000000006C
:10125000FFF7BEBF0000000000000000000000001B
:1012600008B5054BDA6E12B91B6F002B02DC034880
:10127000FFF7CEFE08BD00BF38180020C376000877
:1012800070B50646144CFFF7EBFF2368A5691A6892
:1012900085F82060226054600122284683F82020CF
:1012A000A361FFF795FE636BA169013305F1480067
:1012B00048316363FFF71CFEEFF30983EA69243BBF
:1012C0009A4202D90548FFF7A3FEA0692946BDE866
:1012D0007040FFF79DBB00BF38180020B4760008AF
:1012E00008B5054BDA6E002A02DB1B6F002B02DC0F
:1012F0000248FFF78DFE08BD38180020C9760008A7
:1013000010B50446FFF7ECFF14B90B48FFF780FE59
:10131000E368002BF9D0236821891A890A441A81CD
:101320006268136023685A6000234FF6FF72E3601F
:10133000024B9A8410BD00BFE074000838180020EA
:10134000F8B505460C4616461F46FFF7C9FF0DB116
:1013500006B114B90D48FFF75BFE0D4A2F61D36942
:10136000EE601989A14203D2641AA4B21B68F8E79F
:1013700059682B6069605D600D602C8119890C1BB8
:101380001C814FF6FF739384F8BD00BF50750008B1
:1013900038180020000000000000000000000000DD
:1013A00008B5FFF75DFFFFF79BFF064B1A689B69C7
:1013B00092689B689A4203D9BDE80840FFF708BFCE
:1013C00008BD00BF38180020000000000000000029
:1013D00070B586B00E460546FFF742FF4FF6FF7325
:1013E0009E420D4C10D0A36931460C4A01A8FFF76C
:1013F000A7FF2846FFF744FFFFF772FF049B33B1B6
:1014000001A8FFF77DFF02E02846FFF739FFA36937
:10141000586A06B070BD00BF3818002001170008D8
:1014200049B1064B42689B6918605A60436013607B
:101430000420FFF7CDBF4FF0FF3070473818002071
:1014400010B50446FFF74CFF14B90C48FFF7E0FD58
:1014500094F82030002BF8D00F2BF6D00023A26890
:1014600084F82030064B1B6899689142FBD25A6879
:101470002360626020465C60146010BD3074000818
:1014800038180020000000000000000000000000EC
:101490002DE9F84306460F46FFF722FF0EB91A481A
:1014A00015E034684FF0000803E02269134207D1C9
:1014B0002468B44225D0E3683B43E360002FF4D1B5
:1014C0006568D4F80890FFF70BFF15B90F48FFF7D0
:1014D0009FFDAB6B95F8202049EA03030A2AAB6312
:1014E00003D16A6A134206D1E2E70B2AE0D16A6AA5
:1014F00013409342DCD1C5F824802846FFF7A0FFB3
:10150000D6E7BDE8F88300BF0075000870750008D5
:1015100070B50546254B9E69FFF7A2FE15B9244814
:10152000FFF776FDAC68002C3BD0B368A2689A4206
:1015300028D2A36094F82030062B0ED0072B18D0A9
:1015400003BB012384F8203094E80C001A60226861
:1015500020465360FFF774FF14E094E80C001A6013
:10156000226820465360616AFFF70AFC636A9C6840
:10157000DBE794E80C001A60226820465360616A39
:10158000FFF7FEFB30462946FFF7FAFB756206209F
:10159000FFF776FEAB68B342C1D1F36BAB42BED16D
:1015A00070BDF36BAE60EB60F56370BD3818002062
:1015B000607500080000000000000000000000004E
:1015C00008B5036873B193F82020032A02D00648B7
:1015D000FFF71EFD0022026059621846BDE8084070
:1015E000FFF72EBF08BD00BF007400080000000018
:1015F00008B50E4B9C69606204F12805A06AA842F8
:1016000004D00368A362FFF71BFFF7E794F82130CB
:101610000F209B0701BF226963691A61226908BF15
:101620005361FFF72DFE0248FFF7F2FC3818002047
:1016300070770008000000000000000000000000BB
:1016400008B5202383F31188064AD36E002B01DDF1
:10165000116F11B10448FFF7DBFC013BD36681F346
:10166000118808BD38180020CF760008000000005F
:1016700008B5202383F31188064AD36E002B01DBC3
:10168000116F11B10448FFF7C3FC0133D36681F336
:10169000118808BD38180020D4760008000000002A
:1016A00008B5064BDA6E002A02DD1A6F002A02DC4A
:1016B0000348FFF7ADFC00221A6708BD3818002068
:1016C000D9760008000000000000000000000000C3
:1016D00008B5064BDA6E002A01DD1A6F12B1044814
:1016E000FFF796FC01221A6708BD00BF38180020DA
:1016F000DE7600080000000000000000000000008E
:1017000038B50446202383F31188FFF751FCFFF717
:10171000DFFF94F820300025072B1AD8DFE803F00C
:101720000419190B140E1914FFF7BAFFFFF728FC60
:1017300085F3118838BD636A1D600AE0656AFFF7AA
:10174000CFFDAB680133AB6094E80C001A602268EF
:1017500053604FF0FF3320466362FFF771FEFFF7DF
:101760009FFFFFF70DFC002383F3118838BD0000B5
:1017700008B5054BDA6E12B9196F002902DC03486F
:10178000FFF746FC1A6708BD38180020E37600080A
:1017900008B5FFF7EDFFFFF7FBFB074B9A691B68E6
:1017A00092689B689A4202D20448FFF731FC0023FA
:1017B00083F3118808BD00BF38180020C0740008EA
:1017C00008B5FFF7D5FFFFF7E3FB074B9A691B68E6
:1017D00092689B689A4202D20448FFF719FC0023E2
:1017E00083F3118808BD00BF38180020B0740008CA
:1017F00008B5FFF7BDFFFFF7CBFB074B9A691B68E6
:1018000092689B689A4202D20448FFF701FC0023C9
:1018100083F3118808BD00BF3818002080740008C9
:1018200008B5FFF7A5FFFFF7B3FB074B9A691B68E5
:1018300092689B689A4202D20448FFF7E9FB0023B2
:1018400083F3118808BD00BF3818002070740008A9
:1018500008B5FFF78DFFFFF79BFB074B9A691B68E5
:1018600092689B689A4202D20448FFF7D1FB00239A
:1018700083F3118808BD00BF381800206074000889
:1018800008B5FFF775FFFFF783FB074B9A691B68E5
:1018900092689B689A4202D20448FFF7B9FB002382
:1018A00083F3118808BD00BF381800204074000879
:1018B00008B5FFF75DFFFFF76BFB074B9A691B68E5
:1018C00092689B689A4202D20448FFF7A1FB00236A
:1018D00083F3118808BD00BF38180020A0740008E9
:1018E00008B5054BDA6E0AB91A6F12B10348FFF753
:1018F0008FFB01221A6708BD38180020E87600081F
:1019000008B5202383F31188FFF75AFBBDE8084090
:10191000FFF7E6BF0000000000000000000000002C
:1019200010B52023044683F31188FFF749FBFFF726
:10193000D7FFFFF7D5FC1049104A08681268E31D6D
:1019400023F00703121A9A4223BF1B180B600446A8
:101950000024FFF70DFFFFF71BFB094B9A691B687B
:1019600092689B689A4202D20648FFF751FB002317
:1019700083F31188204610BD700A0020E00F00207C
:1019800038180020907400080000000000000000DB
:1019900008B5202383F31188FFF712FBBDE8084048
:1019A000FFF79EBF000000000000000000000000E4
:1019B0002DE9F04704460F469946D0F81C8015469D
:1019C00012B91A48FFF724FBFFF7E2FF0026FFF7E2
:1019D00087FCA26842B920464946FFF721FD00284E
:1019E000F5D0FFF705FF1DE06369013AA2605A1CBC
:1019F00062613A7807F1010A1A70236962699A42B2
:101A000024BFE3686361B8F1000F01D02046C047EE
:101A1000FFF7EEFE013D06F1010603D0FFF7B8FF28
:101A20005746D4E73046BDE8F08700BF90770008FE
:101A30003030FFF7BDBF00000000000000000000D4
:101A400030304FF6FF73FFF7B3BF00000000000017
:101A5000F8B504460E461746FFF79AFFFFF740FC1D
:101A6000A3684BB920463946FFF7DAFC051EF5DAC4
:101A7000FFF7BEFE2846F8BD013BA36063695A1C10
:101A800062611E70236962699A4224BFE3686361E0
:101A9000E3690BB120469847FFF7AAFE0020F8BD86
:101AA0003030FFF7D5BF000000000000000000004C
:101AB00030304FF6FF72FFF7CBBF00000000000090
:101AC0002DE9F843044688469946C669174612B977
:101AD0001748FFF79DFAFFF75BFF00250EB1204680
:101AE000B047FFF7FDFBA06840B920464946FFF725
:101AF00097FC0028F5D0FFF77BFE15E0A3690138BD
:101B00005A1CA261A0601B7808F805302369A269FD
:101B100001359A4224BFE368A361FFF769FEAF4233
:101B200002D0FFF735FFD9E72846BDE8F88300BFAC
:101B300030750008000000000000000000000000F8
:101B40000C30FFF7BDBF00000000000000000000E7
:101B50000C304FF6FF73FFF7B3BF0000000000002A
:101B600070B504460E46FFF713FFE36943B1204604
:101B7000984705E020463146FFF752FC051E0FDB73
:101B8000FFF7AEFBA368002BF4D0A269013BA36072
:101B9000531CA36115782269934224BFE368A361B3
:101BA000FFF726FE284670BD000000000000000080
:101BB0000C30FFF7D5BF000000000000000000005F
:101BC0000C304FF6FF71FFF7CBBF000000000000A4
:101BD0001F4B2DE9F0419E69054610B91D48FFF7DE
:101BE00017FA202383F31188FFF7EAF9FFF778FE4D
:101BF000F46B002CF2D0A768B742EFD1AC42EDD124
:101C0000E668FE63FFF72CFB2568A5421AD0D7F8DB
:101C1000408056B1FFF724FB3368B34203D09B6882
:101C2000984538BF9846F668F3E72B68C7F80880F0
:101C300023605C60EB6BA560E3602846EC6304F016
:101C4000D7FD01E00023AB60BDE8F041FFF700BE27
:101C50003818002040750008000000000000000057
:101C600038B50446202383F31188FFF7A9F9FFF75D
:101C700037FEFFF7F5FA0CB9174826E0A36822688B
:101C8000002B02DBA242F7D101E0A242F4D0013BDB
:101C9000002BA360114D0CDAAB6905205C62626811
:101CA0001C605A6063601360FFF7EAFAAB695C6A14
:101CB00000E00024FFF75CFDFFF76AF9AA692B68D2
:101CC00092689B689A4202D20548FFF7A1F9002367
:101CD00083F31188204638BD20750008381800208D
:101CE0005074000800000000000000000000000028
:101CF0002DE9F04104464FF0200888F31188FFF7E2
:101D00005FF9FFF7EDFD94F822500DB950480FE050
:101D1000013D504EEDB284F82250FFF729FDFFF748
:101D200037F9B269336892689B689A4202D24A488E
:101D3000FFF76EF9002383F31188002D40F08680B1
:101D400094F820300F2B40F0818094F8213003F07C
:101D50000303012B03D0022B56D0BDE8F08122698A
:101D60006369A4F108061A612269536154F8085C9A
:101D700005F10807103588F31188FFF721F9FFF7FF
:101D8000AFFD2846FFF7C4FBFFF762FD3B469E42CE
:101D900006D35A6808321A44964201D22F48C7E740
:101DA000BB421A6801D09E4227D90AB1964224D27A
:101DB00054F8040C44F8082C1E6000F1080154F893
:101DC000087C7218BA4201BF52681218083244F8EF
:101DD000042C586808BF725800F10801194408BF64
:101DE00044F8082C8E420AD154F8042C02440832DC
:101DF0005A6054F8082C1A6001E01346C7E72846D9
:101E0000BDE8F041FFF7E4BE22696369676C1A61BF
:101E10002269536188F31188FFF7D2F8FFF760FD5C
:101E2000FFF75EFA0FB90E4882E73B6823603C601B
:101E3000FFF79EFCFFF7ACF8B269336892689B68C5
:101E40009A4201D2074873E785F31188BDE8F08113
:101E5000207400083818002010740008F07300087F
:101E6000E0730008F07400080000000000000000AB
:101E700008B5202383F31188FFF7A2F8BDE80840D6
:101E8000FFF72EBD00000000000000000000000071
:101E9000044608B5FFF7ECFF2046FFF7A9FB00005A
:101EA00010B50446FFF7E4FF14B90548FFF7B0F892
:101EB00021460820FFF78CFABDE81040FFF7F8BC78
:101EC0008077000800000000000000000000000013
:101ED0002DE9F0411746984604460D460246FF2379
:101EE00000F16006B24202D002F8013BFAE7324646
:101EF000552163199A4202D202F8011BFAE7FFF753
:101F0000B7FFFFF7EDF934B1E72D04D97F2F02D8E1
:101F1000B8F1000F02D11F48FFF77AF8069B243D65
:101F20006219E26044F8058053601B4B04F14800DD
:101F300013620223012284F82030002384F8222037
:101F4000164AA760516922616161546104F1280257
:101F500084F82130E363A363A36127640C61A26268
:101F600004F12C022263E2624FF0FF32E364A264C8
:101F70002365002263650023E661C4E91623FFF7A9
:101F80000FF8204604F034FCFFF792FC2046BDE831
:101F9000F08100BFD0740008210A00083818002022
:101FA000202383F311880F4B5B6813F4006315D073
:101FB000EFF309834FF0807243F8042CA3F1200261
:101FC00082F30988084A1168926989689268914287
:101FD0008CBF064A064A43F8082C704783F31188E1
:101FE000704700BF00ED00E038180020370A0008F5
:101FF0004A0A000800000000000000000000000085
:1020000008B5FEF76DFFFFF733FB084B084A196868
:1020100001F00F01596013680BB150689847FFF742
:102020000FFBBDE80840FFF7BBBF00BF0000024048
:102030000018002000000000000000000000000068
:10204000FEE70000000000000000000000000000AB
:102050000022014B1A607047E00C002000000000D5
:1020600010F0010F0CBF4FF000420022C3039BB2DF
:102070001343064A1361A2F51F42E83A136823F09E
:10208000F10343F05003184310607047000C014007
:1020900030B585B004AC04F8010D0846552115464D
:1020A00002F08EFA0095034621460B20012203F030
:1020B00047FD18B1024B9B6843EA006005B030BD94
:1020C000F41C0020000000000000000000000000E0
:1020D000014601220D20FFF7DBBF000000000000D9
:1020E00038B50C461546FFF7D3FF88B920786A1E2D
:1020F0009042A8BF104623461A1B824204DA13F806
:10210000012F03F8012CF7E7002220EAE073E254E4
:1021100038BD0000000000000000000000000000CA
:10212000014605222220FFF7DBBF0000000000006F
:10213000014608222120FFF7D3BF00000000000065
:1021400001460C222020FFF7CBBF0000000000005A
:102150000EB403B503AA52F8041B019202F0E8FA88
:1021600002B05DF804EB03B070470000000000000F
:10217000002910B504DDBDE810400849FFF7E8BFAD
:10218000074B08491C684FF47A73B4FBF3F203FB66
:102190001243BDE81040FFF7DBBF00BFB079000875
:1021A00064120020C0790008000000000000000058
:1021B0000B4B10B51B68044603F0010398420DD089
:1021C000FFF74EFF012C02D10648002102E02CB996
:1021D00021460548BDE81040FFF75AB910BD00BFC1
:1021E000186C0040080900200009002000000000D1
:1021F00008B5FFF755FAFEF7C3FE002383F31188F5
:1022000008BD000000000000000000000000000009
:1022100008B5202383F31188FEF7CAFEBDE8084005
:10222000FFF756BA000000000000000000000000A8
:1022300008B5FFF7EDFF0020FFF7BAFF01220B4BB7
:102240001A60FFF74DF80A48C3680BB1FFF758F85A
:10225000084A002306484FF4FA71FFF771F8FFF7B8
:10226000C7FF0022044B1A6008BD00BFE00C00202D
:10227000F01000205120000868120020000000002B
:1022800008B5FFF7C5FF0120FFF792FFBDE8084042
:10229000FFF7AEBF000000000000000000000000DB
:1022A00010B50D240A4B01385B6F10F8012F72B185
:1022B0000A2A04D11A8892B21106FBD59C800178B3
:1022C0001A8892B21206FBD58AB29A80EDE710BD49
:1022D000800A002000000000000000000000000054
:1022E000B0B502F1080482B024F0070402AFADEBF0
:1022F000040D551C02AC8DF8080021B11AB10DF186
:10230000090002F065F900230B20009321462A46BC
:1023100003F016FC18B1034B9B6843EA0060BD460E
:10232000B0BD00BFF41C0020000000000000000051
:1023300007B502AB23F8021D19460222FFF7D0FFB2
:1023400003B05DF804FB0000000000000000000086
:102350000222FFF79DBE0000000000000000000008
:1023600001460B20FFF7F4BF000000000000000052
:1023700001461820FFF7ECBF00000000000000003D
:1023800001461020FFF7E4BF00000000000000003D
:1023900001461520FFF7DCBF000000000000000030
:1023A00001461420FFF7D4BF000000000000000029
:1023B00001460A20FFF7CCBF00000000000000002B
:1023C00001460920FFF7C4BF000000000000000024
:1023D00001461220FFF7BCBF000000000000000013
:1023E00001461320FFF7B4BF00000000000000000A
:1023F00001461C20FFF7ACBF0000000000000000F9
:102400002DE9F0430E4615461C4600218FB0531BA4
:10241000A3424FF0000302DA02F8011BF7E777222C
:102420008DF811008DF8102000930B2004A90322D1
:102430008DF8123003F084FB00284DD173097833F6
:102440000EAF07F8293D002C44DD16F01F0820D000
:102450002123394600930B2005AB012203F070FBCA
:10246000214681460023F218D2B2D006A1EB030424
:102470000DD08B4208D003EB080205A80244527825
:10248000013305F8012BEEE71646002419E0164645
:1024900017E01F2CCCBF4FF0210804F1010839468A
:1024A000012205ABCDF800800B2003F049FB0DF1B4
:1024B0001501814608F1FF32284602F089F8203CD8
:1024C0002035B9F1000F09D19DF80F3001338DF897
:1024D0000F30B8E7002006E0012000E00220034BA7
:1024E0009B6843EA00600FB0BDE8F083F41C002055
:1024F00013B5022304460021402001AAFFF780FF04
:1025000028B99DF8043003F003030133237002B0AF
:1025100010BD0000000000000000000000000000EE
:1025200010B502231446FFF76BFF10B923885BBA7E
:10253000238010BD0000000000000000000000002B
:1025400002461C216020FFF7EBBF000000000000E6
:1025500002461A216020FFF7E3BF000000000000E0
:10256000024618216020FFF7DBBF000000000000DA
:10257000024614216020FFF7D3BF000000000000D6
:10258000024612216020FFF7CBBF000000000000D0
:10259000024610216020FFF7C3BF000000000000CA
:1025A00002460E216020FFF7BBBF000000000000C4
:1025B000024602216020FFF7B3BF000000000000C8
:1025C000024600216020FFF7ABBF000000000000C2
:1025D0002DE9F04F11EB03099A463D4B87B013F8F4
:1025E000008014BF20250025C14583460C46039278
:1025F00065DCBAF1000F62DD364F3220FFF750FC88
:10260000584600213A464346FFF7FAFE06460028A0
:1026100058D1DDF80CC052466146381901F0D8FF98
:102620001920FFF73DFC772300968DF814300B201E
:1026300005A9032233468DF815B08DF8166003F016
:102640007FFA002833DB202699FBF6F3640905EBBB
:10265000431595FBF6F6DFF88490651C6D01B442D6
:1026600023DA4545D8BF202304F10104C8BF08F090
:102670001F0304F17702A5F1200189F800203944F5
:102680001A46154803F1020A89F8013001F0A0FF4B
:1026900000230B2000931149524603F051FA2035D4
:1026A00038B96420FFF7FCFBD9E700200CE00320D9
:1026B00000E004200A4B9B6843EA006004E04FF00E
:1026C000FF3001E06FF0010007B0BDE8F08F00BF00
:1026D000207B000826110020061100200411002094
:1026E000F41C0020000000000000000000000000BA
:1026F00013B50221044601AA40200B46FFF780FED5
:1027000078B99DF8053014B123F0080301E043F0D7
:10271000080302218DF80530402001AA0B46FFF77F
:1027200057FF02B010BD00000000000000000000D4
:1027300013B50221044601AA40200B46FFF760FEB4
:1027400078B99DF8053014B143F0010301E023F09E
:10275000010302218DF80530402001AA0B46FFF746
:1027600037FF02B010BD00000000000000000000B4
:1027700013B502230021044601AA4020FFF740FEC2
:10278000014660B99DF8053001AA23F0180343EA19
:10279000C4008DF8050002234020FFF719FF02B0A6
:1027A00010BD00000000000000000000000000005C
:1027B00007B553BA02AA22F8023D0223FFF708FF29
:1027C00003B05DF804FB0000000000000000000002
:1027D000831E022BF7B5044678D84020002101AAB9
:1027E0000223FFF70DFE002874D19DF80430022C5F
:1027F00003F0FC0302D143F0010305E0032C0CBFFE
:1028000043F0020343F003038DF80430002140201D
:1028100001AA0223FFF7DCFE0146002859D1182641
:1028200066432D4D0721AA5BFFF7C2FFAF19014692
:1028300000284ED10A217A88FFF7BAFF0146002806
:1028400047D11121BA88FFF7B3FF0146002840D1D4
:102850001421FA88FFF7ACFF0146002839D106F1B0
:1028600008031020EA5AEF18FFF7A2FF90BB2220BE
:1028700002217A88FFF79CFF60BB26200821BA88D6
:10288000FFF796FF30BB26200B21FA88FFF790FF59
:1028900000BB103630200821AA5BFFF789FFC8B9BA
:1028A000182303FB04544420628A00211034FFF7EC
:1028B0007FFF78B944200221A288FFF779FF48B949
:1028C0002D21E2885020FFF773FF03E04FF0FF3027
:1028D00000E0084603B0F0BDA07A00080000000048
:1028E000002330B50C4685B08DF80D00000A154662
:1028F0008DF80E0000930B2003A903228DF80C30F5
:1029000003F01EF93CB135B100950B2003A901225B
:10291000234603F015F918B1024B9B6843EA0060A7
:1029200005B030BDF41C00200000000000000000D5
:10293000002121200A46FFF7D3BF0000000000005D
:10294000014602200246FFF7CBBF00000000000056
:102950002DE9F043002987B0804605DD274907B0FF
:10296000BDE8F04303F0E4BE254903F0E1FE202773
:1029700087F31188234EFEF723FBFEF7B1FF34697E
:10298000DFF88C9094F82230013384F82230FEF77F
:1029900077FFE56840460095A3681B49019394F8CA
:1029A00022302246013B029394F8203059F823301C
:1029B0000393A36904932B6A03F0BAFE87F311888B
:1029C000FEF7FEFAFEF78CFF2569B5420AD095F8AE
:1029D0002230FF2B02D10D48FEF71AFB013385F898
:1029E000223000E00025FEF74BFF2046FFF780F97C
:1029F0000DB12C46CDE707B0BDE8F083D4790008CF
:102A0000E5790008381800201E7A0008907B00083D
:102A1000507A0008000000000000000000000000E4
:102A200008B5FEF7A5FEFEF7B3FA074B9A691B68D7
:102A300092689B689A4202D20448FEF7E9FA0023A2
:102A400083F3118808BD00BF38180020907A000871
:102A50000E4B10B51C68BCB90D4B1B68DB0713D4BB
:102A6000202383F31188FEF7ABFAFEF739FF01202C
:102A7000FFF7F6FA21460748FEF70AFDFEF790FC3D
:102A8000BDE81040FFF7CCBF10BD00BFE00C002038
:102A9000186C004008090020000000000000000041
:102AA00008B51A4B1B68DB0711D5202383F3118867
:102AB000FEF786FAFEF714FF0020FFF7D1FA14485C
:102AC0000021FEF7E5FCFEF76BFCFFF7A9FF0122F2
:102AD000104B1A60202383F31188FEF771FAFEF77A
:102AE000FFFEFEF7FDFB0C48C3680BB1FEF708FCC8
:102AF0000A4A002308484FF4FA71FEF721FCFFF759
:102B00008FFF0022064B1A6008BD00BF186C004002
:102B100000090020E00C0020F010002051200008E7
:102B2000681200200000000000000000000000000B
:102B3000034A93899BB243F080039381704700BF9F
:102B4000003801400000000000000000000000000C
:102B50000B0710B5446B02D50948FEF759FA036B11
:102B600019680A6822F00F020A60197A5A680F235E
:102B70008B401360A3889BB243F40073A38010BD05
:102B8000D07B0008000000000000000000000000F2
:102B900008B5FEF7A5F9FEF76BFD4FF48022074854
:102BA000074B12215A614368D3F894309847FEF7D7
:102BB00047FDBDE80840FFF7F3B900BFF808002063
:102BC00000040140000000000000000000000000C0
:102BD00008B5FEF785F9FEF74BFD4FF400320748C4
:102BE000074B11215A614368D3F88C309847FEF7A0
:102BF00027FDBDE80840FFF7D3B900BFF808002063
:102C0000000401400000000000000000000000007F
:102C100010B5FEF765F9FEF72BFD1A4B5C6904F45D
:102C20007C425A61620504D517480A2143685B6DEE
:102C30009847230504D514480B214368DB6D98475A
:102C4000E00404D510480C2143685B6E9847A1044A
:102C500004D50D480D214368DB6E9847620404D506
:102C600009480E2143685B6F9847230404D5064842
:102C70000F214368DB6F9847FEF7E2FCBDE8104088
:102C8000FFF78EB900040140F808002000000000A2
:102C900010B5FEF725F9FEF7EBFC174B5C6904F461
:102CA00078725A61A30604D5144805214368DB6A8B
:102CB0009847600604D51148062143685B6B984726
:102CC000210604D50D4807214368DB6B9847E205D0
:102CD00004D50A48082143685B6C9847A30504D5CE
:102CE000064809214368DB6C9847FEF7A9FCBDE85C
:102CF0001040FFF755B900BF00040140F80800205C
:102D000008B5FEF7EDF8FEF7B3FC10220648074BB6
:102D100004215A6143685B6A9847FEF791FCBDE85D
:102D20000840FFF73DB900BFF8080020000401404B
:102D300008B5FEF7D5F8FEF79BFC08220648074BBE
:102D400003215A614368DB699847FEF779FCBDE8C7
:102D50000840FFF725B900BFF80800200004014033
:102D600008B5FEF7BDF8FEF783FC04220648074BC2
:102D700002215A6143685B699847FEF761FCBDE830
:102D80000840FFF70DB900BFF8080020000401401B
:102D900008B5FEF7A5F8FEF76BFC02220648074BC4
:102DA00001215A614368DB689847FEF749FCBDE89A
:102DB0000840FFF7F5B800BFF80800200004014004
:102DC00008B5FEF78DF8FEF753FC01220648074BC5
:102DD00000215A6143685B689847FEF731FCBDE803
:102DE0000840FFF7DDB800BFF808002000040140EC
:102DF00008B5FEF775F8FEF73BFC084B1968C1F300
:102E000003610A065A60064A136B0BB1506B984770
:102E1000FEF716FCBDE80840FFF7C2B8000002400C
:102E2000001800200000000000000000000000006A
:102E300008B5FEF755F8FEF71BFC084B1968C1F3FF
:102E400003510A055A60064A936A0BB1D06A984743
:102E5000FEF7F6FBBDE80840FFF7A2B8000002400D
:102E6000001800200000000000000000000000002A
:102E700008B5FEF735F8FEF7FBFB084B1968C1F300
:102E800003410A045A60064A136A0BB1506A984714
:102E9000FEF7D6FBBDE80840FFF782B8000002400D
:102EA00000180020000000000000000000000000EA
:102EB00008B5FEF715F8FEF7DBFB084B1968C1F300
:102EC00003310A035A60064A93690BB1D0699847E7
:102ED000FEF7B6FBBDE80840FFF762B8000002400D
:102EE00000180020000000000000000000000000AA
:102EF00008B5FDF7F5FFFEF7BBFB084B1968C1F3FA
:102F000003210A025A60064A13690BB150699847B7
:102F1000FEF796FBBDE80840FFF742B8000002400C
:102F20000018002000000000000000000000000069
:102F300008B5FDF7D5FFFEF79BFB084B1968C1F3F9
:102F400003110A015A60064A93680BB1D06898478A
:102F5000FEF776FBBDE80840FFF722B8000002400C
:102F60000018002000000000000000000000000029
:102F700008B5FEF795FBFEF703F8002383F31188ED
:102F800008BD00000000000000000000000000007C
:102F900008B5202383F31188FEF70AF8BDE808403E
:102FA000FEF796BB000000000000000000000000DB
:102FB0002DE9F0415D4CFDF793FFFEF759FB666F7D
:102FC000B7893588BFB2ADB2EB050BD5FFF7E0FF8F
:102FD000201D4FF40071FEF75BFA4FF6FF6333805C
:102FE000FFF7C6FFFFF7D4FFDFF84081A8062ED514
:102FF000280713D015F0080F0CBF00218021EA0725
:1030000048BF41F02001AB0748BF41F040016D07C8
:1030100048BF41F480714648FEF73AFAFEF760F97E
:10302000B588FEF75DF96369EDB21BB9404804212C
:10303000FEF72EFAFEF754F9FEF752F9236A626A98
:10304000934240D1D8F81420002A3CD04FE0FFF73B
:103050008FFF39061AD52A0618D5FFF799FFFEF714
:103060003FF9FEF73DF9A36C626C30489A4243D1B8
:10307000826B002A40D004300821FEF709FA27F0BD
:10308000C00343F04003B381FFF772FF6B0614D512
:10309000FFF77EFFFEF724F9626CA36C23489A4287
:1030A00002D1836B002B3CD14FF6BF7327F0400752
:1030B000BFB2B7813380FFF75BFFFEF7C1FABDE80F
:1030C000F041FEF76DBF6269013262615A1C2262F3
:1030D0001D70226AE3699A4203D3D8F81830C8F801
:1030E0002030144803F0DCFC3588ADB27EE7104890
:1030F0008021FEF7CDF9F7E7A26B0C490132A263FC
:103100005A1CA26493F80080236C9A4201D3CB6BC3
:103110008B6409481FFA88F803F0C2FCA6F8048003
:10312000B2E704301021FEF7B3F9BDE7800A0020B2
:10313000840A00208C0A0020B00A00200000000051
:103140002DE9F047FDF7CCFE2024FEF791FA84F339
:103150001188FDF72DFFFEF7BBFAFEF7C1F8FEF769
:10316000BFF81F4AD38C174601339BB2D384134652
:1031700053F81C1F99421E4610D11A4A1368013396
:103180001360FEF78DFAFDF7FBFE002383F3118831
:10319000FEF756FABDE8F047FEF702BF9146254616
:1031A0000B89013B0B81FC69B4F80880B8F1000F72
:1031B000E3D12368D4F80CA0C4F80C805E60C9F891
:1031C0001C30FEF76DFAFDF7DBFE88F311882069ED
:1031D000D04785F31188FDF7EBFEFEF779FAE2E7B9
:1031E00038180020641200200000000000000000D9
:1031F00070B5464C636B9D8AFDF772FEADB2FEF76B
:1032000037FA05F45F43626B83F47F4383F0FF0377
:103210009382236B1868016821F00F010160187A0E
:1032200059680F2303FA00F00860E16A0E683068FD
:1032300020F00F0030604868097A8B40036005F485
:1032400080739BB203B10123A360AB0548BFA368A1
:103250002E4844BF43F00203A36094F838308BB982
:103260006E051FD5938823F400731B041B0C9380F9
:1032700013889BB243F400731380836843F0040304
:1032800083600FE0938A23F480631B041B0C9382FA
:10329000036E13B1416D0139984700236365E36DF7
:1032A000013BE365280542BFA36843F00803A36020
:1032B000690442BFA36843F02003A360EA0442BF4D
:1032C000A36843F01003A3602B0442BFA36843F03C
:1032D0004003A360A36893B1202383F31188FDF713
:1032E00067FEFEF7F5F90A486FF00101FEF768F98D
:1032F000FEF7D6F9FDF744FE002383F31188FEF7AD
:103300009FF9BDE87040FEF74BBE00BFF41C0020E3
:10331000101D002000000000000000000000000060
:103320002DE9F041794EFDF7DBFDFEF7A1F9746B55
:1033300096F83820238BB4F814809BB21FFA88F8D3
:1033400047463546002A7ED148EA0343704A23F0B7
:103350007F43934219D006D8073A93420AD00132EC
:10336000934217D06AE06B4A93422ED002329342C6
:1033700038D063E0338C1A0A0AD003F0010343F01B
:10338000F00302F00602134302E0338CC3F3470359
:10339000238253E0A38823F400731B041B0CA38037
:1033A000F36A1A68136843F001031360A3889BB2A1
:1033B00043F48053A3805368012B3FD8238823F420
:1033C00080631B041B0C238038E0A38823F4007364
:1033D0001B041B0CA380336B1A68136843F00103B2
:1033E00013602BE0238AF36A1B685D684DB1338C50
:1033F00043F00103338423889BB243F4A06323800A
:103400007DE0A38823F400731B041B0CA380238896
:103410009BB243F400732380202383F31188FDF7CC
:10342000C7FDFEF755F906F11C002946FEF7C8F85E
:10343000FEF736F9FDF7A4FD85F3118818F00A0FA1
:103440005DD0238B5BE018F00A0F16D0316C19B1F8
:10345000F36C0BB130469847696D2C4811B1036E7F
:1034600003B198470023A78AAB642B646B65238B59
:103470006B6EBFB20BB12548984738060ED5EB6D81
:10348000296D5A1CEA65CB5C23826B6D01336B6539
:10349000AB6D9A4222BF00221C4BDA6579060FD52C
:1034A0002B6CEA6B01332B64AB6C591CA964218A29
:1034B000D154AA6C6B6C9A4222BF0022134B9A64BF
:1034C000FA060DD5A78A2388BFB29BB243F0010349
:1034D0002380EB6C13B10D48016C984700232B64DB
:1034E0007B050CD5A38A23F480631B041B0CA382E9
:1034F0002B6E13B10548416D984700236B65FEF7AD
:103500009FF8BDE8F041FEF74BBD00BFF41C002062
:103510000800030082000700000000000000000017
:1035200038B50B070446426B02D51A48FDF770FD0B
:10353000C36A1868016821F00F010160187A5968A0
:103540000F2383400B6094F8385015BB938823F405
:1035500080531B041B0C9380138823F480631B048B
:103560001B0C138013889BB243F400731380202339
:1035700083F31188FDF71CFDFEF7AAF804F11C0087
:103580002946FEF71DF8FEF78BF8FDF7F9FC85F3E9
:10359000118838BDD07B000800000000000000004A
:1035A0000EB403B503AA52F8041B019201F0C0F84F
:1035B00002B05DF804EB03B07047000000000000AB
:1035C000002913B5044606DD19491A4A02B0BDE8C0
:1035D0001040FFF7E5BF1849184AFFF7E1FF204602
:1035E0001749184AFFF7DCFF20461749174AFFF72B
:1035F000D7FF20461649174AFFF7D2FF2046164943
:10360000164AFFF7CDFF20461549164AFFF7C8FFB7
:1036100020461549154AFFF7C3FF154B2046009376
:103620001449154A154BFFF7BBFF02B010BD00BF90
:10363000DC7B0008E87B0008ED7B0008007C0008CC
:10364000097C00081C7C0008267C0008397C0008E6
:10365000417C0008547C00085E7C0008717C0008F6
:10366000867C0008997C0008C37C0008D67C000892
:103670000C7D0008E57C0008FC7C0008087D000843
:1036800010B510B91248FDF7C3FC0121114C427A64
:10369000236801FA02F21A42F4D023EA0202837A82
:1036A000226003F01F04A14058090B4C203044F85D
:1036B0002010002103F1604303F5614383F80013F8
:1036C000530601BF054A536923F00103536110BD3E
:1036D000A07B0008EC1C002000E100E0001002408C
:1036E00008B5FEF745F8FDF753FC074B9A691B68D0
:1036F00092689B689A4202D20448FDF789FC002335
:1037000083F3118808BD00BF38180020307D000801
:10371000002970B5064602DD1149124A1CE020233B
:1037200083F31188104DFDF74BFCFEF7D9F8EC8CB4
:10373000FEF71EF8FDF72CFCAA692B6892689B68BF
:10374000A4B29A4202D20948FDF762FC002383F337
:103750001188304622460649BDE87040FFF720BF79
:10376000DC7B0008157D000838180020C07B0008AD
:103770001D7D0008000000000000000000000000A7
:10378000F0B51D4C002A08BF22460024571E17F82A
:10379000016F651C26B9069DED060FD4202604E0B6
:1037A000059EB542F7D22C46F1E7013B5D1CAC42C9
:1037B00004DA884238BF06700130F6E705462E1A53
:1037C000A64209DA8D4238BF167805F101053CBFE3
:1037D00005F8016C0132F2E7002CACBF0219021CA3
:1037E000202610461D1A1544A54204DD884238BF24
:1037F00006700130F6E7F0BD607D000800000000B3
:103800002DE9F84319460646144610461D46544A0B
:103810000023FDF72DF90621C0F3032EC0F3031298
:103820004FEA103C02EB0E03634400F00F0001FB73
:103830000300CD230A2703FB00F14FEAD1280CEB4C
:10384000CC010A440EEB8E010A4402EB080103FB93
:1038500001F2D20A07FB121102EB4E024FF00D0EDD
:103860004FF000090EFB02FE4FEADE1E07FB1E2290
:103870000EEB8C0E03FB0EF3DB0A07FB180007FBB5
:1038800013EE3030303130320EF1300E3033DFF89D
:10389000D480C0B2C9B2D2B25FFA8EFEDBB2A94503
:1038A00008BFA045374606F105064ED30621C4F3EE
:1038B0000313C4F30325200B5A19024404F00F0428
:1038C00001FB0244CD210A2601FB04FE4FEADE2E55
:1038D00006FB1E4400EBC0021A44303405EB85039E
:1038E0003C70D41814EB0E0202D1781CBDE8F883AA
:1038F0005143CB0A06FB132213EB450302F13002BE
:103900007A7003D110B9B81CBDE8F8830D21594372
:10391000CA090A2101FB123312EB800203F13003C2
:10392000BB7002D1F81CBDE8F883CD235343DB0AFA
:1039300001FB13223032FA7013B9381DBDE8F88349
:1039400030333B71781DBDE8F88306F8050C06F8A6
:10395000041C06F8032C06F802EC06F8013C9EE76E
:10396000A08601009F86010000000000000000000A
:103970002DE9F04F97B0239E054616F0400B89467F
:10398000DDF880A0219C04D0BAF10A0B18BF4FF0DB
:10399000010BF70606F0200148BF26F00106C9B268
:1039A00016F00208019117D0002A73F1000106DA1F
:1039B000524263EB4303013C4FF02D080CE07107CA
:1039C00003D5013C4FF02B0806E016F008081CBF99
:1039D0004FF0200804F1FF34BBF1000F0AD0BAF118
:1039E000100F01D0013C05E052EA0301A4F10204EA
:1039F00003D00AE052EA030104D1302301278DF8F5
:103A000014302CE0BAF10A0F24D0BAF1100F14BF11
:103A10000321042100270AF1FF3C029105A9013787
:103A200001EB070E4948D1B201EA0C01415C019853
:103A3000CDF80CC001430EF8011C10461946029A3D
:103A4000FDF706F802460B4652EA0301DDF80CC00A
:103A5000E4D104E005AF3846FFF7D2FEC71B229B36
:103A6000BB42B8BF3B4616F0110FA4EB03040ED1C6
:103A700021462A462020013904D44A4538BF107017
:103A80000132F8E724EAE472013C1544A41AB8F1C3
:103A9000000F04D04D4538BF85F800800135BBF1DB
:103AA000000F14D04D453CBF30222A70BAF1100FE0
:103AB00005F101020AD14A4538BF019A05F1020514
:103AC0003CBF42F0580205F8012C00E01546F20612
:103AD00012D416F0010F14BF3020202021462A46B0
:103AE000013904D44A4538BF10700132F8E724EA9E
:103AF000E472013C1544A41A3022013B9F4204DCCD
:103B00004D4538BF2A700135F7E728463B46013B53
:103B100009D44D453CBF05AA9A5C05F1010538BFA3
:103B200005F8012CF3E7002FA8BFC0192246034671
:103B30002021013A04D44B4538BF19700133F8E70E
:103B4000002CA8BF001917B0BDE8F08F707D0008E9
:103B500010B5202383F31188104CFDF729FAFDF7E7
:103B6000B7FDFDF7BDFBE36813B12046FDF7C8FBC9
:103B7000FDF7B6FBE36813B10848FDF7C1FB074842
:103B80000A21074A0023FDF7DBFBFDF789FDFDF75E
:103B9000F7F9002383F3118810BD00BF281200201D
:103BA000213C0008000000000000000000000000B0
:103BB00070B5202383F31188164CFDF7F9F9FDF752
:103BC00087FDFDF78DFBFDF78BFBA5682368002DB6
:103BD00002DBA34202D104E0A34202D10E48FDF76A
:103BE00017FA00236FF00106A3600135002D07DCF2
:103BF0006068436863601C60FDF722FC4662F4E77E
:103C000001F0FEFDFDF74CFDFDF7BAF9002383F34B
:103C1000118870BD740A0020407D0008000000007B
:103C200070B5202383F31188FDF7C2F9FDF750FD2D
:103C3000144B154C9E68A3F580639D682368C6F3FA
:103C400080369E42C5F3002508D016B10F480021EA
:103C500001E031460E48FDF71BFC266063689D427B
:103C600008D015B10B48002101E029460A48FDF7AC
:103C70000FFC6560FDF714FDFDF782F9002383F367
:103C8000118870BD000C0140D00F0020A009002059
:103C9000D809002010090020D40E002000000000E8
:103CA00038B50446FDF71CFBA568002D18DCFDF7B0
:103CB00017FB206815B9A04202D104E0A04202D14E
:103CC0000848FDF7A5F90135012DA56008D0036866
:103CD00023605C6000234362BDE83840FDF7B0BB61
:103CE00038BD00BF507D000800000000000000004B
:103CF000A0F16103192B98BF20307047000000002D
:103D000020F02000413819288CBF00200120704786
:103D100010B50446FFF7F4FF30B9A4F130000928CC
:103D20008CBF0020012010BD012010BD000000004C
:103D30002DE9F04F1546074688461A4604464FF0CF
:103D4000200985B046182B78002B00F07481252BB4
:103D500001D1002109E0B44280F01E8123701BE1F3
:103D600008D92D2B0DD141F0100115F8013F2B2B57
:103D7000F6D10BE0202B0CD0232B0DD141F04001CC
:103D8000F3E7302B08D141F00101EEE741F00401E7
:103D9000EBE741F00801E8E7A3F1300EBEF1090FAF
:103DA000284610D84FF0000E4FF00A0A284615F8A2
:103DB000013BA3F1300CBCF1090F17D80AFB0E3EF2
:103DC000AEF1300EF2E72A2B0CD1D2F800E0013030
:103DD000BEF1000F02F1040307DACEF1000E41F04C
:103DE000100102E04FF0FF3E00E01A4603782E2B50
:103DF00023D1437800F1010CA3F13005092D12D82D
:103E0000654600204FF00A0A2B78AC46A3F1300B30
:103E1000BBF1090F05F1010503D80AFB003030386A
:103E2000F2E7134607E02A2B0CD100F1020C1068D0
:103E3000131D002805DB1A4605E084464FF0FF30CD
:103E400001E01A4600209CF80030682B07D003F0F0
:103E5000DF054C2D03D05A2D01D0742B0CD16C2BC7
:103E60000CF101050BD19CF801A0BAF16C0F06D141
:103E70000CF102054C2302E065464FF0FF3395F844
:103E800000C0BCF16E0F7DD011D8BCF1630F23D000
:103E900006D8BCF1250F7BD0BCF1580F7ED083E053
:103EA000BCF1640F7DD0BCF1690F7AD07CE0BCF12D
:103EB000730F30D007D8BCF16F0F00F08780BCF1D2
:103EC000700F33D070E0BCF1750F7CD0BCF1780F6F
:103ED0006AD141F0200161E0C9060AD40EF1FF3E2B
:103EE000BEF1000F05DDB44238BF84F80090013404
:103EF000F4E7B44202D21368043223700EF1FF3E9D
:103F0000BEF1000F04F1010440F39380B44238BFC6
:103F100084F80090F2E78DE8030002F1040A2046DD
:103F2000314612687346FFF72BFC80E002F1040A69
:103F3000126842B98DE80300474A2046314673466D
:103F4000FFF71EFC13E0BEF1FF3F4FF010030ABF66
:103F50004FF0080E41F0200141F021018DE80840AA
:103F600002900391204631460023FFF701FD0446ED
:103F7000AB465D4668780BF1010BFFF7C9FE0028E0
:103F8000F7D155E0131D1268E11B11601A4650E08D
:103F9000B44238BF84F800C001344AE04FF0100C3E
:103FA00016E041F002010EE0B4423CBF252323702D
:103FB0002978631C21B1B34238BF6170023438E004
:103FC000013D1C4635E04FF00A0C01E04FF0080CB3
:103FD0004C2B06D1073222F0070202F1080A0CCA64
:103FE0001DE06C2B02F1040A03D18B07126815D473
:103FF00005E023F0200BBBF15A0F126801D100231A
:104000000DE0742B0AD0682B01F0020304D10BB928
:1040100092B2F4E712B201E0002BF0D0D317029075
:1040200003918DE8005020463146FFF7A1FC04467D
:104030005246013587E6B8F1000F08D0B44238BFC8
:1040400023700134B44284BF002306F8013CE01B16
:1040500005B0BDE8F08F00BF607D000800000000E3
:104060000FB410B5C2B044AB53F8042B4FF48071B9
:1040700002A80193FFF75CFE044602A8FEF710F9C0
:10408000204642B0BDE8104004B070470000000078
:104090000EB403B503AB53F8042B6FF0004101934A
:1040A000FFF746FE02B05DF804EB03B07047000076
:1040B000613819288CBF00200120704700000000E3
:1040C000413819288CBF00200120704700000000F3
:1040D000A0F13003092B07D920F020004138052832
:1040E0008CBF0020012070470120704700000000B5
:1040F000303809288CBF00200120704700000000E4
:10410000202805D0093804288CBF002001207047E2
:1041100001207047000000000000000000000000C7
:10412000024B186800F00100704700BF186C004097
:1041300008B5064B1B6843B9FEF76AF80120FEF785
:1041400037F8BDE80840FEF753B808BDE00C002082
:104150002DE9F84F81460E46002900F09A804E4F17
:10416000012997F8008076D943464C4DDFF844A1E9
:1041700007F1010B0F442922B3FBF2F402FB1434C4
:104180000F2C39D19BF8003003F0C002802A5AD19D
:1041900003F0040101F0FF00414A29B1012111603F
:1041A000EA7B42F0040203E01060EA7B22F00402A2
:1041B00003F00303012BEA7303D005D3022B06D0CF
:1041C00041E0FEF735F83EE0FFF7B2FF3BE0FEF7D7
:1041D0002FF8FEF71DF8FDF783F83248C3680BB1DE
:1041E000FDF78EF82F484FF496712F4A0023FDF704
:1041F000A7F8FDF7FDFF26E0082C0BD19AF8003058
:104200009BF8002043EA0223CAF800309BF80030F4
:104210002B7218E0092C03D19BF800306B7212E06E
:10422000282C07D19BF8003020495A000A6085F8F5
:10423000283008E0102C03D0A4F11403062B02D878
:104240009BF8003063550BF1010BBB4504F10103F2
:1042500091D101F0F5FAD9F8582008F1FF38464419
:10426000B6FBF2F302FB13662023C9F85C6083F30C
:104270001188FCF79DFEFDF72BFA0D48FFF710FDA6
:1042800001F0BEFAFDF70CFAFCF77AFE002383F387
:104290001188BDE8F88F00BF70120020AC09002023
:1042A000681200204C1200208122000860120020B9
:1042B000740A0020186C004000000000000000009C
:1042C00008B5FDF755FAFCF763FE074B9A691B68C2
:1042D00092689B689A4202D20448FCF799FE002338
:1042E00083F3118808BD00BF38180020807D0008C6
:1042F000014902F0A5BC00BF907D0008000000004D
:1043000042F6FC23984207B511D8400800F4FC504F
:10431000094B42001A803F238DF80500000A8DF8F2
:10432000060001A88DF8043002F07AFC01E04FF09D
:10433000FF3003B05DF804FB4812002000000000CD
:10434000B0F5FC5F07B50FD80A4B00F4FC5018809D
:1043500014238DF80500000A8DF8060001A88DF8D9
:10436000043002F05DFC01E04FF0FF3003B05DF877
:1043700004FB00BF4A120020000000000000000003
:10438000B0F5964F07B510D847F6F073094A0340C9
:10439000138015228DF8053001A81B0A8DF8042022
:1043A0008DF8063002F03CFC01E04FF0FF3003B026
:1043B0005DF804FB46120020000000000000000031
:1043C00038B50D46FFF7BCFF04462846FFF7D8FF77
:1043D000204338BD00000000000000000000000085
:1043E0003F4B404A9B6980B5C8209A61FDF758FD54
:1043F00001F0B6FA3C4D3D4E01F00AFB40F6C41008
:10440000FDF74EFD01F0ACFA2B78002BF4D1384CBF
:104410003F20214602F00CFB10B923885B0023806B
:104420002388B3F5807F03D840F68E50FFF768FFEE
:104430000023304C20462380FDF79AFF40B12046F0
:10444000FDF796FF20B14FF4806043F2381143E04E
:10445000294C062021460222FEF742FA0028CBD141
:1044600023881B0A13F00F02238004D12349086814
:1044700008B10A6004E09B09022B04D1012A02D191
:10448000FEF756FAB8E71E4F3846FDF799FF0028A9
:10449000B2D11C4C50202D212246FEF741F80028B5
:1044A000AAD13A88B4F900309A4207DCFFF738FE07
:1044B00020B1B368DB0501D4FEF7F2FA104C2046B8
:1044C000FDF766FF002897D10F4F3846FDF768FFCC
:1044D000002891D138882188FFF772FF8CE700BF50
:1044E00038180020A27D0008080A002000080140BA
:1044F000481200203E120020421200202008002016
:1045000044120020401200203C1200200000000055
:10451000002808B507DD0868114600F0D1F8B0FAA8
:1045200080F0400908BD002008BD00000000000028
:104530002DE9F041124D07460E463F202946904690
:1045400002F076FA0F490446142002F071FA0E497F
:104550000443152002F06CFA2B8820435B009BB2C9
:104560002B80B8F1000F01D0A8F8003017B1054B2F
:104570001B883B8016B1044B1B883380BDE8F0815B
:10458000481200204A1200204612002000000000BD
:10459000054B1A6832B902221A60044A12780AB12D
:1045A00001221A6018687047D00E0020040900200C
:1045B000431E002013F8012F0130002AFAD1704762
:1045C00003460244934202D003F8011BFAE7704706
:1045D000F0B5002A6DD088426BD033D240EA010397
:1045E0009F0716D080EA01039E0706D1032A04D94B
:1045F00001F00303C3F1040300E01346D21A441E82
:10460000CD1811F8016BA94204F8016FF9D10344E8
:1046100000E00346940809D0A4000D1F1E1955F8A8
:10462000047F43F8047BB342F9D1214412F0030222
:104630003FD0013B0A4411F8014B914203F8014F6E
:10464000F9D1F0BD8318114443EA0104A5071E46C1
:1046500015D083EA0104A40704D1042A02D901F089
:10466000030400E014460D46121B671A15F801ED0D
:10467000FD4206F801EDF9D1644223442144960835
:104680000DD01C4635460F4657F804ED013D44F861
:1046900004EDF9D16FF0030474432144234412F074
:1046A000030206D0521A11F8014DD14203F8014D10
:1046B000F9D1F0BD00000000000000000000000083
:1046C00030B5074C451E15F8010F11F8013B225C6F
:1046D000E35C9A4202D10028F5D100E0D01A30BD47
:1046E000A0810008000000000000000000000000A1
:1046F00030B5024612F8013B43B10D4615F8014BA7
:1047000014B19C42FAD130BD1046F2E7184630BDD4
:10471000034670B51A460D4612F8016B15F8014BA9
:104720001CB1B442FAD11346F4E7181A70BD000068
:104730002DE9F04F0B4682464FF00A0987B01978F1
:104740005E1C002900F0D78025290AD0DAF8003055
:1047500050469B6801929847019A93465A463346C1
:10476000EDE7597800252D2908BF9E1C37780CBF2E
:1047700001230023302F18BF2027019308BF0136E3
:1047800016F8013BA3F13001C9B2092903D92A2B3C
:1047900004D11178043209FB0515F1E72E2B4FF0F7
:1047A00000010DD116F8013BA3F13000C0B2092879
:1047B00003D92A2B04D11078043209FB0101F1E757
:1047C00003F0DF004C2803D1307808B103460136EE
:1047D000632B07D1136806AC02F1040B04F80C3DFF
:1047E00020270BE056D84F2B56D00AD9552B58D03E
:1047F000582B61D0934606AC04F80C3D0DF10D002A
:1048000013E0442B54D1116802F1040B0029B8BF06
:104810002D234FF00A02BDBF8DF80C3049420DF137
:104820000D0003A802F01CF903ACC4EB0008019BC7
:10483000C8EB050525EAE575B3B96D42A5B1217848
:104840002D2909D1302F07D1DAF80020504692687F
:104850009047013408F1FF38DAF80020504692689A
:10486000394690470135F7D1B8F1010807D4DAF895
:1048700000205046926814F8011B9047F4E7002D81
:104880003FF46CAFDAF8003050469B6839469847E1
:10489000013DF4E76F2B01D1082303E00ED9752BFE
:1048A00008D10A2302F1040B116803A81A46B9E7DC
:1048B000492B06E0782B06D11023F3E7642BA2D016
:1048C000692BA0D096E7732B94D10C4B146802F19E
:1048D000040B002C08BF1C4647F6FF73002908BFD5
:1048E00019462046214403781BB1884201D001308B
:1048F000F9E7202799E707B0BDE8F08F607D000851
:104900000EB403B503AA52F8041B0192FFF710FF7F
:1049100002B05DF804EB03B0704700000000000037
:104920000EB403B503AA52F8041B0192FFF700FF6F
:1049300002B05DF804EB03B0704700000000000017
:104940002DE9F04385B004460E461546FFF720FEDC
:10495000012804D020467E49FFF7E2FFF4E0022E52
:1049600061DD28687B49FFF7ABFE8146002840F0F7
:104970008C804946686802F0CBF849468046A868B2
:1049800002F0C6F8032E074605D0E868494602F053
:10499000BFF8064601E04FF48036B8F5FC5F02D957
:1049A00020466D49CCE0B7F5964F02D920466B49B9
:1049B000C6E0B6F5803F21D042F6FC239E4202D9E4
:1049C00020466749BCE0FF2E02D820466549B7E083
:1049D000424665493B4620460096FFF7A1FF1FFA75
:1049E00088F0FFF7ADFC0546B8B2FFF7C9FC0543F8
:1049F000B0B2FFF785FC45EA00020BE042462046D4
:104A00005A493B46FFF78CFF1FFA88F0B9B2FFF70F
:104A1000D7FC0246002A204603DA5549FFF780FFFB
:104A200090E054498CE018D153492868FFF748FEBC
:104A3000014650BB686802F06BF842F6FC239842CE
:104A40000546BDD8FF28C0D920464C492A46FFF765
:104A500067FFA8B2FFF754FC74E0012E15D12F6850
:104A600047493846FFF72CFE464D10B920464649C7
:104A700007E038464549FFF723FE064628B9204699
:104A80004349FFF74DFF2E705CE00023204641496B
:104A9000ADF80830FFF744FF3A4B20461B780BB1C6
:104AA0003D4900E03D49FFF73BFF00F059FF00237F
:104AB00004AD25F8083D2946FE2001F0B9FF021E8D
:104AC000B2BF37493749BDF808202046FFF728FF15
:104AD00000232946FF20ADF8083001F0A9FF204649
:104AE0003149BDF80820FFF71BFF03A90DF10E02A5
:104AF0000DF10A00FFF71CFD20462C49BDF80A20E5
:104B0000FFF70EFF20462A49BDF80C20FFF708FFEB
:104B1000BDF80E2020462749FFF702FF2046264910
:104B2000FFF7FEFE20462549FFF7FAFE20462449FE
:104B3000FFF7F6FE20462349FFF7F2FE2046224902
:104B4000FFF7EEFE00F064FF05B0BDE8F08300BFA4
:104B5000B47D00083C880008D97D0008FA7D000873
:104B60001C7E0008517E0008807E0008AF7E000891
:104B7000D07E0008DE7E0008E37E0008E97E0008A3
:104B8000117F0008080A0020177F00082A7F00080C
:104B9000317F0008457F00085C7F0008787F0008AF
:104BA000957F0008B97F0008D57F0008F17F0008D5
:104BB0000C8000082780000842800008538000080D
:104BC00090800008CE800008FE80000800000000F1
:104BD0002DE9F04390E89000714B724A9B6999B0BF
:104BE0009A6120467049FEF7DBFC0DF12008204653
:104BF0006E49FEF7D5FC4646236820465B680DF1FA
:104C000007010122984700283DD09DF8071004298C
:104C100004D120466649FEF7C3FC34E0082901D0E0
:104C20007F2912D14645E7D0236808219B6820469A
:104C30009847236820219B68204698472368204690
:104C40009B6808219847013ED6E70D290BD1002526
:104C500020465849FEF7A4FC3570404602A901F0F1
:104C600037FF814618E01F29C6D90DF15F039E4228
:104C7000C2D2236820469B6898479DF807300136CA
:104C800006F8013CB8E720464B49FEF789FC75E081
:104C900003AB43F825000135002002A901F018FFFD
:104CA00038B1042DF4D120464449FEF779FC4FF089
:104CB0000009002218AB03EB850343F8542CB9F12B
:104CC000000F94D048463E49FFF7FAFC28B9002D62
:104CD00054D020463B493A4A08E048463A49FFF753
:104CE000EFFC28BB204625B13649374AFEF758FC71
:104CF0007DE73649FEF754FC354E013506EBC5031A
:104D000053F8082C22B120463249FEF749FCF4E75B
:104D100017B9204627492AE007F10805083555F854
:104D2000102C002AF5D020462A49FEF739FCF5E779
:104D3000274E3068F0B14946FFF7C2FC08B108368B
:104D4000F7E773682046294603AA98474FE7494684
:104D5000FFF7B6FC0028F4D0083630680028F6D1FA
:104D600020461D494A46FEF71BFC20461B49FEF71C
:104D700017FC3CE7002FF3D03E46EEE7202383F3F9
:104D80001188FCF71DF9FCF7ABFD00211448FCF776
:104D90007FFB0020FCF72CFC002019B0BDE8F0835D
:104DA000381800202F810008358100084A8100084A
:104DB0004F8100087F8E0008528100085B81000847
:104DC00070810008DC7B0008758100087A8100088A
:104DD000240800208F810008938100089681000834
:104DE000A8090020000000000000000000000000F2
:104DF0002DE9F04786B004460E461546FFF7C8FB7E
:104E00000128804602D02046A649BBE33046294609
:104E1000A54AFFF77DFB002839D0022E34D16B68FC
:104E20001B782B2B02D02D2B2ED116E0462004A967
:104E3000FDF78EFA0246002863D1BDF81010462017
:104E400041F0020189B2ADF81010FDF771FA024687
:104E5000002856D12046954994E3462004A9FDF741
:104E600077FA024600284CD1BDF81010462021F0F8
:104E7000020189B2ADF81010FDF75AFA0246002877
:104E80003FD120468A497DE320468A497AE330466D
:104E90002946894AFFF73CFB00283BD0022E36D139
:104EA0006B681B782B2B02D02D2B30D114E04620C1
:104EB00004A9FDF74DFA024618BBBDF810104620B4
:104EC00041F0040189B2ADF81010FDF731FA024645
:104ED000B8B92046794955E3462004A9FDF738FAC8
:104EE000024670B9BDF81010462021F0040189B2C5
:104EF000ADF81010FDF71CFA024610B920467049B3
:104F000040E3002A80F2408320466E49C4E22046F6
:104F10006D4937E3304629466C4AFFF7F9FA0746F0
:104F200000283BD0022E26D16F6869493846FFF72A
:104F3000C7FB98B138466749FFF7C2FB08B940463E
:104F40000CE038466449FFF7BBFB08B9304605E082
:104F500038466249FFF7B4FB38B90320FDF708FC77
:104F60000246204622B15E4996E220465D492EE285
:104F70005D496A6890E220465C49FFF7C1FC204623
:104F80005B49FFF7BDFC20465A49FFF7B9FC2046B4
:104F90005949FFF7B5FC20465849F3E23046294607
:104FA000574AFFF7B5FA824688B1022E07D0394634
:104FB000202004AAFDF7B4FA20465249CEE0394633
:104FC000686801F0A5FD394682B220202FE0304606
:104FD00029464D4AFFF79CFA814680B1022E07D040
:104FE0000221202004AAFDF79BFA20464749B5E09C
:104FF0006868514601F08CFD82B2202016E03046F0
:105000002946434AFFF784FA074698B1022E07D093
:105010000221212004AAFDF783FA20463D499DE0A4
:105020006868494601F074FD82B221203146FDF7DF
:10503000BFFBA9E230462946374AFFF769FAF8B1C3
:10504000022E0AD0414604AA6B204346FDF7D8F948
:10505000204632499DF810201EE23946686801F06A
:1050600057FD41468DF8100004AA6B204346FDF71A
:10507000AFFA10B120462A4984E22046294981E24C
:1050800030462946284AFFF743FA002869D0022E05
:105090004ED00021222004AAFDF742FA20462349DF
:1050A0005CE000BFA0820008C7820008CB82000835
:1050B000E582000829830008768500083D83000802
:1050C0005483000809830008758300088983000859
:1050D000948300089D830008A1830008A983000829
:1050E000D2830008B1830008F48300080B84000811
:1050F0004784000878840008B0840008E68400082B
:10510000168500081E850008448500084D850008A6
:10511000738500087A85000897850008A085000837
:10512000C0850008DE7E0008209B0008C8850008B6
:105130000021686801F0ECFCB249ADF8100020468F
:10514000FFF7DEFBBDF8102022200021FDF730FB29
:10515000021E204601DAAC499EE1AC49BDF910209F
:105160009AE130462946AA4AFFF7D2F9002854D0DE
:10517000032E02D02046A74904E20021686801F00E
:10518000C7FC00210646A86801F0C2FC0746A249F8
:105190002046FFF7B5FBB31E022BBFB236D8002561
:1051A000B54209D06900522001F0FE013A46FDF7F0
:1051B000FFFA28BB0135F3E7522008213A46FDF7F4
:1051C000F7FAE8B9302016213A46FDF7F1FAB8B9F6
:1051D0001821924B302001FB06331A8A42F21073D9
:1051E0007A43B2FBF3F292B2FDF7E2FA40B903233D
:1051F00006AA02F8083D52200C210123FDF7E8F928
:105200000028024602DA2046854945E120468549C4
:1052100032463B46FFF774FBB6E130462946824AE8
:10522000FFF776F9804608B3012E02D120467F4968
:10523000A8E16B681A78332A09D10320FDF7C8FA70
:10524000021E204601DA7A4926E17A499AE1342A97
:1052500009D10420FDF7BCFA021E204601DA764986
:105260001AE176498EE12046754915E13046294616
:10527000744AFFF74DF9074678B1022E40F07D8160
:105280006B681B78312B01D1012003E0302B40F0FB
:1052900074814046FDF74CFA76E1304629466A4A69
:1052A000FFF736F968B3022E14D16B681B78312BE7
:1052B00005D10120FDF71CFA2046644962E1302B3C
:1052C00040F05E8120466249FFF71AFB3846FDF741
:1052D0000FFA59E1012E40F053810221402004AA27
:1052E0000B46FDF78DF828B99DF8110080F00800F5
:1052F000C0F3C00010B12046564943E1204656494C
:1053000040E130462946554AFFF702F9074660B1A9
:1053100020465349FFF7F4FAFDF70AFB024600283E
:105320003FF4ABAE20464F49B6E0304629464E4AE0
:10533000FFF7EEF8804600284BD020464B49FFF798
:10534000DFFA622306AD05F80C3D05230B20009320
:105350002946012204AB00F0F3FB20B1444B9F68C7
:1053600047F080772EE09DF8123000978DF80D30D1
:105370009DF811300B208DF80E30294603223B4654
:105380008DF80C7000F0DCFB20B1394B9F6847F0C2
:10539000007717E09DF8143000978DF80D309DF8D8
:1053A00013300B208DF80E30294603223B468DF832
:1053B0000C7000F0C5FB002800F0D9802C4B9F68D2
:1053C00047F04077002F00F0D280204629493A4626
:1053D00062E030462946284AFFF79AF80746002837
:1053E0004ED020462549FFF78BFA424641204146E0
:1053F000FDF776FA0246002800F0B98020461D49E4
:105400004AE000BFEB8500080986000832860008E4
:10541000548600085D8600088C860008A07A000883
:10542000A1860008C0860008F7910008E5860008FC
:10543000FD8600081B8700082D8700084B870008A1
:105440005D870008768700087B8700087E87000854
:105450009D870008C0870008DE8700087281000869
:10546000008800082888000838880008408800085C
:10547000F41C0020658800087988000880880008EE
:1054800030462946424AFFF743F8002872D0042EDE
:1054900005D020463F49404AFFF732FA74E0686879
:1054A00001F0AEFB0646A86801F0AAFB8046E8685A
:1054B00001F0A6FB00F2111000EB800537492046F1
:1054C000FFF71EFA204636490322FFF719FA6D004E
:1054D0002046344932B2FFF713FAADB220463249C2
:1054E0000FFA88F2FFF70CFA2A4620462F49FFF7F9
:1054F00007FA40213846FCF71BFF402306A901F8B4
:105500000C3D01223846FCF7EBFE03216320FCF73B
:105510000FFF1FFA88F16020FCF70AFFB1B261208B
:10552000FCF706FF29466220FCF702FF51204CF2EF
:10553000D501FCF7FDFE512004A9FCF709FFBDF8D9
:105540001050C5F30D05ADF810501DB1C820FCF783
:10555000A7FCF0E729462A467220FCF7C1FE64202A
:10556000FCF79EFC732029462A46FCF7B9FE20462C
:105570000F4907E020460F4904E020460E4901E0AC
:1055800020460E49FFF7BCF906B0BDE8F08700BF22
:10559000A0880008A4880008D6880008758900083B
:1055A0008C890008A0890008B7890008CE89000806
:1055B00072880008E5890008288D00083F8D0008E2
:1055C000064B1A684AB100221A60054B1B68DB07BC
:1055D00001D4FEF7ADBDFCF72BBE70470C090020CF
:1055E000186C0040000000000000000000000000F7
:1055F00008B5164B164A9B694FF496709A61FCF7F2
:105600004FFC14481449012201F092FB134814493D
:10561000022201F08DFB13481349042201F088FB9C
:1056200012481349082201F083FB12481249102244
:1056300001F07EFB11481249202201F079FB01F0B4
:1056400057FB01460F48FBF7A3FDF8E73818002089
:10565000C08D0008D809002088170020A00900206C
:105660009C170020D40E0020B01700201009002045
:10567000C417002000090020D817002008090020C6
:10568000EC1700204008002000000000000000008F
:1056900008B5202383F31188FBF78AFCFCF718F880
:1056A0000548FEF7FDFAFBF7FBFFFBF769FC00235B
:1056B00083F3118808BD00BF740A002000000000B9
:1056C0000EB403B503AA52F8041B0192FFF730F899
:1056D00002B05DF804EB03B070470000000000006A
:1056E000024B03491868FFF7EBBF00BFA409002075
:1056F000D18D000800000000000000000000000044
:10570000024B03491868FFF7DBBF00BFA409002064
:10571000E08D000800000000000000000000000014
:10572000024B03491868FFF7CBBF00BFA409002054
:10573000F08D0008000000000000000000000000E4
:10574000024B03491868FFF7BBBF00BFA409002044
:10575000FF8D0008000000000000000000000000B5
:1057600038B50B4C0B4B226832B118680A49FFF769
:10577000A7FF0023236038BD084A18681268D307C2
:1057800054BF07490749FFF79BFF0023236038BD3B
:105790000C090020A4090020108E0008186C00409D
:1057A0001F8E00082F8E000800000000000000007F
:1057B000012208B50B4B1A600B4B1B6813F0010F4D
:1057C0000A4B186804D10A49FFF77AFFC82004E0A1
:1057D0000849FFF775FF40F6B830BDE8084001F012
:1057E000CFBA00BF0C090020186C0040A4090020AB
:1057F0003E8E00084F8E00080000000000000000F0
:1058000002210A4B0A4A18680A4B50601B6893FB36
:10581000F1F382F82830084B1968D37B11B143F0BB
:10582000040301E023F00403D373704764120020E3
:10583000AC09002060120020681200200000000067
:10584000044B5A7A044B0AB1012201E04FF4803232
:105850001A617047AC0900200008014000000000F8
:10586000054A0428D37B03F0FC0308BF43F001037F
:10587000D373FFF7E5BF00BFAC09002000000000B4
:1058800002280B4B03D1DA7B22F0080204E0032844
:1058900003D1DA7B42F00802DA731B7A044A5B0711
:1058A00042BF537A43F004035372FFF7C9BF00BFEE
:1058B000AC09002000000000000000000000000013
:1058C0000A4B18B9DA7B42F0100204E0012803D138
:1058D000DA7B22F01002DA731B7A044A9B0742BF7C
:1058E000537A43F002035372FFF7AABFAC090020BA
:1058F0000B4B13B518681C4628B190F820300F2BBD
:1059000001D1FCF7F5F9074B4FF49D6100933B2261
:10591000054B0648FCF7DCFA206002B010BD00BF62
:105920006C120020B08D0008D14B0008A01200209E
:1059300008B5064B06491868064B1A6801321A600A
:10594000FFF7BEFEBDE80840FFF7D2BFA409002064
:10595000618E00083C0800200000000000000000EC
:105960000148FCF77DB900BFDC0900200000000001
:105970001F4C08B526461F4B1F4A9B691F4D9A6155
:10598000202383F31188FBF71BFBFBF7A9FF4AF6E3
:10599000AA226B681A60FBF7FBFE4FF4FA70FCF763
:1059A0007FFA2368002BEBD0154A13680BB1013B3B
:1059B00013601368002BE3D13360FDF771F82023E7
:1059C00083F31188FBF7FCFAFBF78AFFFBF788FCEF
:1059D0000C48C3680BB1FBF793FC0A484FF496716F
:1059E000094A0023FBF7ACFCFDF71AF8C8E700BF33
:1059F0006812002038180020828E0008D80F00207E
:105A0000601200204C1200208122000800000000DB
:105A100008B5202383F31188FBF7D2FAFBF760FF68
:105A20000448FEF73DF9FBF7BBFCBDE80840FEF774
:105A300047BC00BFDC09002000000000000000009F
:105A40002DE9F843FEF76CFB002862D0FBF758FF06
:105A500000234FF02008304C304FA3602360656B6B
:105A6000FDF73EFEB7F826901FFA89F909F13206D4
:105A7000B6B2C9EB060688F31188FBF7A1FAFBF76B
:105A80002FFF2B8B9B0704D42B8803F400739BB24E
:105A900043B1FB8C9BB2C9EB0303B34237DAFDF78A
:105AA0001FFEE8E71E49A360E1632A21A364236483
:105AB000E36563651B4B616423661B4B1B4963668F
:105AC0000123E1641A4940222165292184F83830F4
:105AD0002B88228423F480731B041B0CA1652B806C
