:020000040800F2
:1000000000040020410E0008A1200008A1200008E3
:10001000A1200008A1200008A1200008A1200008BC
:10002000A1200008A1200008A1200008210E00083E
:10003000A1200008A1200008A1200008C126000876
:10004000A1200008A1200008A1200008A12000088C
:10005000A1200008A1200008412300081123000866
:10006000E1220008B1220008812200086120000876
:10007000B12400087124000831240008F12300088D
:10008000B123000871230008A1200008A120000866
:10009000A1200008A1200008A120000811220008CA
:1000A000A1200008A1200008A1200008A12000082C
:1000B000A1200008A1200008A1200008A12000081C
:1000C000A1200008A128000871270008A12000082D
:1000D000A120000831250008A1200008A120000867
:1000E000912100085121000811210008A1200008D9
:1000F000A1200008A1200008A1200008A1200008DC
:10010000A1200008A1200008A1200008A1200008CB
:10011000A1200008A1200008A1200008A1200008BB
:10012000A1200008A1200008A1200008A1200008AB
:10013000A1200008A1200008A1200008A12000089B
:10014000A84A4FF0FF31136900232DE9804811615F
:100150001361D068D160D360D169934641F080517A
:10016000D161D1690C2641F00061D1611A469E48E7
:100170009E4C01688DB041F4807101609C490B6018
:100180009C4906FB03F000590025026041F833202A
:100190000133072BF5D14FF0FF3A974ADFF8CC92A5
:1001A000C2F804A0DBF81820DFF8C4C242F07D02D8
:1001B000CBF818204FF48052C9F80C208F4A904990
:1001C000C9F8042044F24242C9F800204FF410421A
:1001D000CCF80C208B4A4FF00108CCF804208A4A56
:1001E0008A4ECCF8002002F18842A2F50052CDF8E8
:1001F0000CC0CD604A604FF044320A60C1F80C5424
:10020000C1F80424C1F80024C1F80C58C1F804282E
:10021000C1F800287E4A7F4C02F10C011161D160C7
:100220007D49C2F8008051637C495560D1620C3928
:100230005561D561116332467949656042F8041B06
:10024000726006F1300106F10C02C4F80080C6F8B5
:1002500008803261716331631021F26006F154024B
:1002600032627262B26106F16402F2617264B26477
:10027000F26306F1740232646A4A6B48F2646B4AB4
:10028000B163756172674268B56242F03002F6622E
:100290003665426048F69F40654A664F50609560FB
:1002A000136080224FF6FF00634B83F823209D608C
:1002B000DA681040614A02436148DA60C26842F07D
:1002C0008072C2605F48026842EA0802026020222F
:1002D000D97783F822205C4B06A803F11C025B60EF
:1002E0009D601A62DA61DD8400229D621B605B61A1
:1002F0001B61A3F824A0029300230795CDE90A23EC
:1003000008950995CDF818A000F07AFE06A800F02F
:100310003FFE029B089A4D499A624D4A002022F006
:1003200007020A604B4A4C4922F007020A604B4A16
:100330004B499560116002F110015161116100217A
:10034000C3E91201C3E9180103F17C01D56095618D
:100350009967402202211D635D63DD631D645D6456
:100360005D659D65DD655A67BA6087F8201087F87E
:1003700021503A64FD63BD63BD61C3F838A0C3F882
:1003800050A087F822803B615A695F617A611761EA
:1003900007F12802BA6207F12C023A63FA6207F108
:1003A0006002FA6100230022FD64C7E916233D655F
:1003B0007D65C7F848A007F1480000F021FE029BC8
:1003C000284A9F61FA61DA6E87F820801D464F4601
:1003D00032B9D3F870A0DDF80CC0BAF1000F49D0E3
:1003E0002148A2E00010024000700040807A00081E
:1003F000F01C0020801C002000000240A4242444A3
:100400000010014044EE4824446444443C0C002065
:10041000F41C0020FC08002000580040B07A0008BE
:1004200020790008B1200008000001400038014098
:1004300010E000E0D00B002000ED00E00003FA0522
:10044000F0ED00E0001000E000180020CC0E0020CD
:10045000631D002000280020E00F0020A80E0020CF
:100460008119000800040020C0780008000801403D
:10047000000C0140CDF80CC08AF3118862B6AE4A78
:100480009B69F8219A61AD484246CDF800A0AC4B7B
:1004900001F04EFDAB4BC3F808805B601B60AA4BBC
:1004A000C3F808805B601B6006F04AFA05F0B8FAF2
:1004B0005322A64BDFF8EC821A70022202935A7084
:1004C0009A7002F07DFD012818BF0220029BDDF822
:1004D0000CC0D870D9F80820DCF80810C2F300224C
:1004E00011F4804F0CBF1021002141EAC20242F0FA
:1004F0004002DA73D8F800204FF4F471120A1A722D
:100500009348CDF800A04622924B01F011FD202324
:1005100083F3118800F084FD01F012FAB368CDF87E
:1005200008805A1E012A02D98B4800F0A1FD012B38
:100530000DD1C022DBF8183043F48043CBF81830DB
:10054000864B83F825232022C3F884215A609C22FD
:10055000834B42F22C115B6F4FF040091A81002649
:1005600001224FF00208A3F810909A8299811E8010
:1005700019889B887A4B0392C3F8088001F028F908
:1005800000F036FDA9692B6889689B68039A994237
:1005900001D27448C9E786F31188714B7248DFF8BD
:1005A00008A27249CAF80030006006F031FC704BB6
:1005B000704A1E60704B1B60704B1B60704B1B6061
:1005C000704B1B60704B1B60704B1B60704B9B68CB
:1005D000C3F380331360BB68C3F30023536020234D
:1005E00083F3118800F01CFD01F0AAF92368564638
:1005F0005A1E012A01D9674897E76749674A012BC4
:10060000516041D160228021544B4FF4807E83F8A9
:1006100006234FF40070C3F880914FF4000CC3F828
:10062000009083F80723C3F8801119604FF48061AC
:1006300083F80823C3F880E1C3F800E083F80923B6
:10064000C3F88001186083F80A23C3F88011196089
:1006500083F81723C3F880C1C3F800C083F82823A8
:10066000C3F884E1C3F804E083F80123C3F8808170
:10067000C3F8008083F82923C3F88401586083F805
:100680002A23C3F884115960002201214FF00F0B77
:10069000D4F804A0424B5AF832C01CF0040F00F00A
:1006A00085800F2A17D822F0030000F1804000F562
:1006B000803002F00308D0F808E04FEA88080BFA0F
:1006C00008F92EEA0909CCF3031E0EFA08FE49EADE
:1006D0000E09C0F80890986801FA02FE1CF0010F9C
:1006E00014BF4EEA000020EA0E009860D86801FAB4
:1006F00002FE1CF0020F14BF4EEA000020EA0E00BA
:10070000D8600AEBC200406850B1186801FA02FED6
:100710004EEA00001860586820EA0E00586062E057
:10072000586801FA02FE4EEA00005860186820EA94
:100730000E00186057E000BFA0780008D80E002017
:10074000010E0008300C0020C00B0020900B002090
:10075000A0090020D15500089078000800E100E0D1
:100760003C0C0020E07A00088C0B002010090020CF
:10077000B40C0020D00F0020BC0B00209C090020EE
:100780000C090020D00E0020B80C00200809002021
:10079000000C0140F07A0008E0790008FC08002015
:1007A00000040140186C0040880B002001FA02FC94
:1007B0006FEA0C00D3F800E000EA0E0EC3F800E088
:1007C000D3F804E000EA0E0EC3F804E0D3F808E022
:1007D00000EA0E0EC3F808E0D3F80CE000EA0E00C1
:1007E000D860C3F814C00132132A7FF454AF4FF01D
:1007F0000208C4F8008000F0EBFF00F0F9FBAA69E2
:100800002B6892689B689A4201D27A488DE64FF035
:10081000000989F3118878484246784906F0F8FAC9
:1008200077487849042206F0F3FA77487749082296
:1008300006F0EEFA76487749102206F0E9FA764893
:100840007649202206F0E4FA75487649402206F0FF
:10085000DFFA754B75491B684246009330680126E4
:10086000434604F01DFF724C724B266063602023E8
:1008700083F3118800F0D4FB01F062F845F2555281
:1008800063681A6004225A604FF47A729A604AF6DA
:10089000AA221A604CF6CC421A60C4F8008000F01C
:1008A000A7FF654BCDF8009064484FF48471424631
:1008B00001F03EFBBB68624CDB0584F8009012D56A
:1008C0003226A046207878B90146024602F048FB5D
:1008D00018B9012388F8003002E0052001F010FB70
:1008E000013EEFD100E02670237853B10023554A32
:1008F000554813704FF4F47100937522534B01F077
:1009000017FB0022524B1A60029B1B6803F0F00396
:10091000502B01D003F05CFC04F09AF910B103F005
:1009200057FC01E003F07CFC4FF000630A263B61BA
:10093000484F05F005F80DF1150003F0D1F920BB83
:10094000442005210DF1160203F0E2F9E8B9522026
:10095000082106AA03F0DCF9B8B91A239DF815009E
:1009600003FB0073DA8ABDF816309A4202D105F013
:100970003FF81EE003F04CFB38B99DF81500BDF8B8
:10098000181003F0FDFA0028F1D0202383F311881A
:1009900000F046FB00F0D4FF2F4803F019FF00F0F1
:1009A0002FFD04F025FA4FF4FA7001F0A9FA013E88
:1009B000BFD10222294B1A6022780AB101221A60A3
:1009C00001F086FAAB691A6C996891424FF00C02FB
:1009D00001D00B2900D89A601A6400F011FD00F0D4
:1009E00097FF04F075FF06F0F3F901461C4800F08C
:1009F000FFFBF8E740790008BC0B00202409002029
:100A00009C09002038090020D00E00204C0900204D
:100A10000C09002060090020B80C00207409002097
:100A2000080900208809002000080020C578000877
:100A3000D80F00200030004051590008E80F002076
:100A400004090020CC0B0020C00C0020F12D000870
:100A5000F808002050790008C00B0020C80E0020C4
:100A6000040800200000000000000000000000005A
:100A70002DE9F04FC1F80CD0D0F80CD0BDE8F08FC4
:100A800000F0A6FE00F0B4FA002383F31188284694
:100A9000A04701F02DFA00F0C3FA00F051FF00F07A
:100AA00007FC00F095FE00F0A3FA00DFFEE700006F
:100AB000D0400B1CD1409C46203AD34018435242B0
:100AC0006346934018437047000000000000000098
:100AD0004BB942B9002908BF002802D04FF0FF31BE
:100AE000084600F00DB882B0EC462DE9005000F049
:100AF00027F8DDF804E002B00CBC704700000000ED
:100B000002B54FF0080009F099FC02BD000000009A
:100B10002DE9F04198461446069D06460F4600F022
:100B200027F8A4FB0023864604FB01F4B61A00FB59
:100B30000844234467EB0307C5E90067BDE8F0817B
:100B40002DE9F8431746804689461D46089E00F069
:100B5000BFF800FB05F3A0FB074507FB0137B8EB27
:100B600004043D4469EB0505C6E90045BDE8F8838A
:100B700000292DE9F04FA2BF804689464FF0000EB4
:100B8000C0F29A80002BA4BF10461946C0F28E8096
:100B90008945444608BF80454D463CBF00200021A2
:100BA00067D3B1FA81F2002976D0B9FA89F3B9F1A5
:100BB000000F6DD0D31AA3F1200C01FA03F700FA4D
:100BC0000CF2C3F1200A174320FA0AF2174300FA85
:100BD00003F6B9451A4608BFB0453CBF00200021C6
:100BE0000CD34FF0010B2BFA0AF40BFA0CF1214352
:100BF000B8EB060469EB07050BFA03F0002B38D0BD
:100C00007F084FEA360609E0A41B65EB07052419A7
:100C10006D41013445F10005013B07D0BD4208BFDD
:100C2000B442F1D224196D41013BF7D1C2F1200742
:100C300024FA02F305FA07F7A2F120063B4325FA4E
:100C400006F6334325FA02FCA2F1200800190CFA3B
:100C500002F703FA08F8C2F1200C47EA080723FA62
:100C60000CFC03FA02F6694147EA0C07801B61EBB2
:100C700007011EF100024FF0000318BF0122544289
:100C800063EB43056040694080185941BDE8F08F2F
:100C9000B8FA88F320338DE7B0FA80F303F120022D
:100CA000B9FA89F3B9F1000F84D1F1E750426FEA44
:100CB0000E0E63EB43016BE7D0F100084FF0FF3EEF
:100CC00061EB41095EE700BF00000000000000008A
:100CD0002DE9F0410D469D42044608BF944210465E
:100CE000194667D3B3FA83F2002B6BD0B5FA85F3BC
:100CF000002D63D0D31AA3F1200201FA03F7C3F148
:100D0000200C00FA02F10F4320FA0CF10F4300FA15
:100D100003F6BD429E4608BFB4423CBF00200021FE
:100D20000CD34FF00108A41B28FA0CFC08FA02F1BE
:100D300041EA0C0165EB070508FA03F0002B3BD0F4
:100D40007F084FEA360609E0A41B65EB0705241966
:100D50006D41013445F10005013B07D0BD4208BF9C
:100D6000B442F1D224196D41013BF7D1CEF12002FA
:100D700024FA0EF605FA02F2AEF1200325FA03F387
:100D800016431E4325FA0EF7AEF1200C001907FAA0
:100D90000EF306FA0CFCCEF1200743EA0C0326FA08
:100DA00007F706FA0EF269413B43801A61EB030133
:100DB000BDE8F08100200021BDE8F081B4FA84F3A1
:100DC000203397E7B0FA80F303F12002B5FA85F3F8
:100DD000002D8FD1F2E700BF0000000000000000EE
:100DE0000B4610B51B688B4204D09C688268944205
:100DF000F8D219464B68016043604860186010BD26
:100E0000024B034A9B699A6130BFFDE7001800203E
:100E100070760008000000000000000000000000E4
:100E2000EFF30983203383F30988002383F31188C8
:100E300070470000000000000000000000000000FB
:100E400072B6314A82F30988022383F31488BFF310
:100E50006F8F2E4B196841F00101196018682B49FA
:100E60008407FBD5086800F0F9000860002048609E
:100E70005868264910F00C0FFAD1486840F4E01089
:100E80004860086840F08070086018681F49800159
:100E9000FBD511241E4848601E480460486840F095
:100EA00002004860596801F00C010829FAD14FF09E
:100EB0005530194B19498B4202D243F8040BFAE71B
:100EC0004FF05531164B934202D243F8041BFAE718
:100ED000144A154B15498B4204D252F8040F43F8BB
:100EE000040BF8E70021124B124A934202D243F856
:100EF000041BFAE7104C114DAC4203D254F8043BEA
:100F00009847F9E7FFF71CF900080020001002409D
:100F100000641C00002002400000002000040020AB
:100F2000000400205CA400080008002058080020ED
:100F3000F80800205C1D0020400100084001000866
:100F4000024A136B01331363704700BF001800207F
:100F50000D4BC2685B6830B5D0E904458B60013247
:100F6000C26082689B1A4268E41845F1000593420A
:100F70008360C0E9044501D9436030BD02689342F3
:100F800038BF036030BD00BF001000E0000000006B
:100F90000E4B30B55A680E4BC1689C6A83680131AC
:100FA000D31A1B1B4268D0E90445E41845F100053B
:100FB0009342C1608360C0E9044501D9436030BDFC
:100FC0000268934238BF036030BD00BF001000E0EC
:100FD00000180020000000000000000000000000D9
:100FE0000148FFF7D5BF00BF5018002000000000E7
:100FF0000148FFF7CDBF00BF3818002000000000F7
:10100000014B5B6883607047001000E00000000047
:101010000148FFF7F5BF00BF501800200000000096
:101020000148FFF7EDBF00BF3818002000000000A6
:101030000B4A936FD18C103323F8101C916943F83D
:101040000C1C416A43F8081C90F8201003F8041C9B
:1010500002F27C418B4228BF02F17C039367704708
:101060000018002000000000000000000000000048
:101070001FB5044672B6484B484DA86618604848EC
:1010800002F0F6FC474803F083FD6146464803F052
:101090007FFD6946454803F07BFD7146444803F0F7
:1010A00077FD7946434803F073FD434803F070FD34
:1010B0000146424803F06CFD0946404803F068FDD4
:1010C00011463E4803F064FD19463D4803F060FDBB
:1010D0003C4803F05DFD2146384803F059FD2946A0
:1010E000364803F055FD3146344803F051FD39468A
:1010F000334803F04DFD344803F04AFD41462F4884
:1011000003F046FD49462D4803F042FD51462B4869
:1011100003F03EFD59462A4803F03AFD21462B488C
:1011200003F036FD2A4802F0A3FC2A4802F0A0FC96
:10113000294E2C69A268E368009294F82220214687
:10114000013A019294F82020244856F82220029275
:10115000A26903921A6A03F01BFD2469AC4201D014
:10116000002CE7D16E461E483146AA6903F010FDF7
:1011700000241C4856F8241003F00AFDE31E9B07C8
:1011800002D1194803F004FD0134202CF1D1174895
:1011900003F0FEFCFEE700BF146C004000180020C6
:1011A0007576000885760008917600089F7600081D
:1011B000AC760008BA760008C77600089576000875
:1011C000BE760008CF760008D7760008DF760008E4
:1011D000EB760008F5760008807400082D7700088B
:1011E0005677000873770008908E00087C77000817
:1011F000F8B50D46064610B10024012707E00A485D
:10120000FFF736FF07FA04F22A4203D10134002D1A
:10121000F8D108E056F82430002BF0D0204625EA1B
:1012200002059847F2E7F8BD60760008000000006C
:1012300038B51A4B1A689C6911681D464B601960D5
:1012400001219A6182F82010002284F82020A268EF
:101250001B6899689142FBD85A68236062602046F7
:101260005C601460FFF7E4FE6B6BA969013304F165
:10127000480048316B63FFF76BFEEFF30983E269C7
:10128000243B9A4202D90648FFF7F2FE034B21465F
:101290009869BDE83840FFF7EBBB00BF001800209D
:1012A000947700080000000000000000000000002B
:1012B000FFF7BEBF000000000000000000000000BB
:1012C00008B5054BDA6E12B91B6F002B02DC034820
:1012D000FFF7CEFE08BD00BF00180020A37700086E
:1012E00070B50646144CFFF7EBFF2368A5691A6832
:1012F00085F82060226054600122284683F820206F
:10130000A361FFF795FE636BA169013305F1480006
:1013100048316363FFF71CFEEFF30983EA69243B5E
:101320009A4202D90548FFF7A3FEA0692946BDE805
:101330007040FFF79DBB00BF0018002094770008A5
:1013400008B5054BDA6E002A02DB1B6F002B02DCAE
:101350000248FFF78DFE08BD00180020A97700089D
:1013600010B50446FFF7ECFF14B90B48FFF780FEF9
:10137000E368002BF9D0236821891A890A441A816D
:101380006268136023685A6000234FF6FF72E360BF
:10139000024B9A8410BD00BFC075000800180020E1
:1013A000F8B505460C4616461F46FFF7C9FF0DB1B6
:1013B00006B114B90D48FFF75BFE0D4A2F61D369E2
:1013C000EE601989A14203D2641AA4B21B68F8E73F
:1013D00059682B6069605D600D602C8119890C1B58
:1013E0001C814FF6FF739384F8BD00BF2076000880
:1013F00000180020000000000000000000000000B5
:1014000008B5FFF75DFFFFF79BFF064B1A689B6966
:1014100092689B689A4203D9BDE80840FFF708BF6D
:1014200008BD00BF00180020000000000000000000
:1014300070B586B00E460546FFF742FF4FF6FF73C4
:101440009E420D4C10D0A36931460C4A01A8FFF70B
:10145000A7FF2846FFF744FFFFF772FF049B33B155
:1014600001A8FFF77DFF02E02846FFF739FFA369D7
:10147000586A06B070BD00BF001800206117000850
:1014800049B1064B42689B6918605A60436013601B
:101490000420FFF7CDBF4FF0FF3070470018002049
:1014A00010B50446FFF74CFF14B90C48FFF7E0FDF8
:1014B00094F82030002BF8D00F2BF6D00023A26830
:1014C00084F82030064B1B6899689142FBD25A6819
:1014D0002360626020465C60146010BD00750008E7
:1014E00000180020000000000000000000000000C4
:1014F0002DE9F84306460F46FFF722FF0EB91A48BA
:1015000015E034684FF0000803E02269134207D168
:101510002468B44225D0E3683B43E360002FF4D154
:101520006568D4F80890FFF70BFF15B90F48FFF76F
:101530009FFDAB6B95F8202049EA03030A2AAB63B1
:1015400003D16A6A134206D1E2E70B2AE0D16A6A44
:1015500013409342DCD1C5F824802846FFF7A0FF52
:10156000D6E7BDE8F88300BFD075000840760008D4
:1015700070B50546254B9E69FFF7A2FE15B92448B4
:10158000FFF776FDAC68002C3BD0B368A2689A42A6
:1015900028D2A36094F82030062B0ED0072B18D049
:1015A00003BB012384F8203094E80C001A60226801
:1015B00020465360FFF774FF14E094E80C001A60B3
:1015C000226820465360616AFFF70AFC636A9C68E0
:1015D000DBE794E80C001A60226820465360616AD9
:1015E000FFF7FEFB30462946FFF7FAFB756206203F
:1015F000FFF776FEAB68B342C1D1F36BAB42BED10D
:1016000070BDF36BAE60EB60F56370BD0018002039
:10161000307600080000000000000000000000001C
:1016200008B5036873B193F82020032A02D0064856
:10163000FFF71EFD0022026059621846BDE808400F
:10164000FFF72EBF08BD00BFE074000800000000D7
:1016500008B50E4B9C69606204F12805A06AA84297
:1016600004D00368A362FFF71BFFF7E794F821306B
:101670000F209B0701BF226963691A61226908BFB5
:101680005361FFF72DFE0248FFF7F2FC001800201F
:10169000507800080000000000000000000000007A
:1016A00008B5202383F31188064AD36E002B01DD91
:1016B000116F11B10448FFF7DBFC013BD36681F3E6
:1016C000118808BD00180020AF7700080000000056
:1016D00008B5202383F31188064AD36E002B01DB63
:1016E000116F11B10448FFF7C3FC0133D36681F3D6
:1016F000118808BD00180020B47700080000000021
:1017000008B5064BDA6E002A02DD1A6F002A02DCE9
:101710000348FFF7ADFC00221A6708BD001800203F
:10172000B977000800000000000000000000000081
:1017300008B5064BDA6E002A01DD1A6F12B10448B3
:10174000FFF796FC01221A6708BD00BF00180020B1
:10175000BE7700080000000000000000000000004C
:1017600038B50446202383F31188FFF751FCFFF7B7
:10177000DFFF94F820300025072B1AD8DFE803F0AC
:101780000419190B140E1914FFF7BAFFFFF728FC00
:1017900085F3118838BD636A1D600AE0656AFFF74A
:1017A000CFFDAB680133AB6094E80C001A6022688F
:1017B00053604FF0FF3320466362FFF771FEFFF77F
:1017C0009FFFFFF70DFC002383F3118838BD000055
:1017D00008B5054BDA6E12B9196F002902DC03480F
:1017E000FFF746FC1A6708BD00180020C377000801
:1017F00008B5FFF7EDFFFFF7FBFB074B9A691B6886
:1018000092689B689A4202D20448FFF731FC002399
:1018100083F3118808BD00BF0018002090750008F0
:1018200008B5FFF7D5FFFFF7E3FB074B9A691B6885
:1018300092689B689A4202D20448FFF719FC002381
:1018400083F3118808BD00BF0018002080750008D0
:1018500008B5FFF7BDFFFFF7CBFB074B9A691B6885
:1018600092689B689A4202D20448FFF701FC002369
:1018700083F3118808BD00BF0018002050750008D0
:1018800008B5FFF7A5FFFFF7B3FB074B9A691B6885
:1018900092689B689A4202D20448FFF7E9FB002352
:1018A00083F3118808BD00BF0018002040750008B0
:1018B00008B5FFF78DFFFFF79BFB074B9A691B6885
:1018C00092689B689A4202D20448FFF7D1FB00233A
:1018D00083F3118808BD00BF001800207075000850
:1018E00008B5FFF775FFFFF783FB074B9A691B6885
:1018F00092689B689A4202D20448FFF7B9FB002322
:1019000083F3118808BD00BF00180020107500087F
:1019100008B5FFF75DFFFFF76BFB074B9A691B6884
:1019200092689B689A4202D20448FFF7A1FB002309
:1019300083F3118808BD00BF00180020307500082F
:1019400008B5054BDA6E0AB91A6F12B10348FFF7F2
:101950008FFB01221A6708BD00180020C877000815
:1019600008B5202383F31188FFF75AFBBDE8084030
:10197000FFF7E6BF000000000000000000000000CC
:1019800010B52023044683F31188FFF749FBFFF7C6
:10199000D7FFFFF7D5FC1049104A08681268E31D0D
:1019A00023F00703121A9A4223BF1B180B60044648
:1019B0000024FFF70DFFFFF71BFB094B9A691B681B
:1019C00092689B689A4202D20648FFF751FB0023B7
:1019D00083F31188204610BDCC0E0020E00F0020BC
:1019E00000180020607500080000000000000000E2
:1019F00008B5202383F31188FFF712FBBDE80840E8
:101A0000FFF79EBF00000000000000000000000083
:101A10002DE9F04704460F469946D0F81C8015463C
:101A200012B91A48FFF724FBFFF7E2FF0026FFF781
:101A300087FCA26842B920464946FFF721FD0028ED
:101A4000F5D0FFF705FF1DE06369013AA2605A1C5B
:101A500062613A7807F1010A1A70236962699A4251
:101A600024BFE3686361B8F1000F01D02046C0478E
:101A7000FFF7EEFE013D06F1010603D0FFF7B8FFC8
:101A80005746D4E73046BDE8F08700BF70780008BD
:101A90003030FFF7BDBF0000000000000000000074
:101AA00030304FF6FF73FFF7B3BF000000000000B7
:101AB000F8B504460E461746FFF79AFFFFF740FCBD
:101AC000A3684BB920463946FFF7DAFC051EF5DA64
:101AD000FFF7BEFE2846F8BD013BA36063695A1CB0
:101AE00062611E70236962699A4224BFE368636180
:101AF000E3690BB120469847FFF7AAFE0020F8BD26
:101B00003030FFF7D5BF00000000000000000000EB
:101B100030304FF6FF72FFF7CBBF0000000000002F
:101B20002DE9F843044688469946C669174612B916
:101B30001748FFF79DFAFFF75BFF00250EB120461F
:101B4000B047FFF7FDFBA06840B920464946FFF7C4
:101B500097FC0028F5D0FFF77BFE15E0A36901385C
:101B60005A1CA261A0601B7808F805302369A2699D
:101B700001359A4224BFE368A361FFF769FEAF42D3
:101B800002D0FFF735FFD9E72846BDE8F88300BF4C
:101B900000760008000000000000000000000000C7
:101BA0000C30FFF7BDBF0000000000000000000087
:101BB0000C304FF6FF73FFF7B3BF000000000000CA
:101BC00070B504460E46FFF713FFE36943B12046A4
:101BD000984705E020463146FFF752FC051E0FDB13
:101BE000FFF7AEFBA368002BF4D0A269013BA36012
:101BF000531CA36115782269934224BFE368A36153
:101C0000FFF726FE284670BD00000000000000001F
:101C10000C30FFF7D5BF00000000000000000000FE
:101C20000C304FF6FF71FFF7CBBF00000000000043
:101C30001F4B2DE9F0419E69054610B91D48FFF77D
:101C400017FA202383F31188FFF7EAF9FFF778FEEC
:101C5000F46B002CF2D0A768B742EFD1AC42EDD1C3
:101C6000E668FE63FFF72CFB2568A5421AD0D7F87B
:101C7000408056B1FFF724FB3368B34203D09B6822
:101C8000984538BF9846F668F3E72B68C7F8088090
:101C900023605C60EB6BA560E3602846EC6304F0B6
:101CA00017FE01E00023AB60BDE8F041FFF700BE86
:101CB000001800201076000800000000000000005E
:101CC00038B50446202383F31188FFF7A9F9FFF7FD
:101CD00037FEFFF7F5FA0CB9174826E0A36822682B
:101CE000002B02DBA242F7D101E0A242F4D0013B7B
:101CF000002BA360114D0CDAAB6905205C626268B1
:101D00001C605A6063601360FFF7EAFAAB695C6AB3
:101D100000E00024FFF75CFDFFF76AF9AA692B6871
:101D200092689B689A4202D20548FFF7A1F9002306
:101D300083F31188204638BDF07500080018002094
:101D400020750008000000000000000000000000F6
:101D50002DE9F04104464FF0200888F31188FFF781
:101D60005FF9FFF7EDFD94F822500DB950480FE0F0
:101D7000013D504EEDB284F82250FFF729FDFFF7E8
:101D800037F9B269336892689B689A4202D24A482E
:101D9000FFF76EF9002383F31188002D40F0868051
:101DA00094F820300F2B40F0818094F8213003F01C
:101DB0000303012B03D0022B56D0BDE8F08122692A
:101DC0006369A4F108061A612269536154F8085C3A
:101DD00005F10807103588F31188FFF721F9FFF79F
:101DE000AFFD2846FFF7C4FBFFF762FD3B469E426E
:101DF00006D35A6808321A44964201D22F48C7E7E0
:101E0000BB421A6801D09E4227D90AB1964224D219
:101E100054F8040C44F8082C1E6000F1080154F832
:101E2000087C7218BA4201BF52681218083244F88E
:101E3000042C586808BF725800F10801194408BF03
:101E400044F8082C8E420AD154F8042C024408327B
:101E50005A6054F8082C1A6001E01346C7E7284678
:101E6000BDE8F041FFF7E4BE22696369676C1A615F
:101E70002269536188F31188FFF7D2F8FFF760FDFC
:101E8000FFF75EFA0FB90E4882E73B6823603C60BB
:101E9000FFF79EFCFFF7ACF8B269336892689B6865
:101EA0009A4201D2074873E785F31188BDE8F081B3
:101EB000F074000800180020A0750008D074000815
:101EC000C074000850760008000000000000000008
:101ED00008B5202383F31188FFF7A2F8BDE8084076
:101EE000FFF72EBD00000000000000000000000011
:101EF000044608B5FFF7ECFF2046FFF7A9FB0000FA
:101F000010B50446FFF7E4FF14B90548FFF7B0F831
:101F100021460820FFF78CFABDE81040FFF7F8BC17
:101F200060780008000000000000000000000000D1
:101F30002DE9F0411746984604460D460246FF2318
:101F400000F16006B24202D002F8013BFAE73246E5
:101F5000552163199A4202D202F8011BFAE7FFF7F2
:101F6000B7FFFFF7EDF934B1E72D04D97F2F02D881
:101F7000B8F1000F02D11F48FFF77AF8069B243D05
:101F80006219E26044F8058053601B4B04F148007D
:101F900013620223012284F82030002384F82220D7
:101FA000164AA760516922616161546104F12802F7
:101FB00084F82130E363A363A36127640C61A26208
:101FC00004F12C022263E2624FF0FF32E364A26468
:101FD0002365002263650023E661C4E91623FFF749
:101FE0000FF8204604F074FCFFF792FC2046BDE891
:101FF000F08100BFB0750008810A000800180020B9
:10200000202383F311880F4B5B6813F4006315D012
:10201000EFF309834FF0807243F8042CA3F1200200
:1020200082F30988084A1168926989689268914226
:102030008CBF064A064A43F8082C704783F3118880
:10204000704700BF00ED00E000180020970A00086C
:10205000AA0A0008000000000000000000000000C4
:1020600008B5FEF76DFFFFF733FB084B084A196808
:1020700001F00F01596013680BB150689847FFF7E2
:102080000FFBBDE80840FFF7BBBF00BF00000240E8
:10209000801C002000000000000000000000000084
:1020A000FEE700000000000000000000000000004B
:1020B000034A93899BB243F080039381704700BF2A
:1020C0000038014000000000000000000000000097
:1020D0000B0710B5446B02D50948FEF7C9FF036B27
:1020E00019680A6822F00F020A60197A5A680F23E9
:1020F0008B401360A3889BB243F40073A38010BD90
:10210000307B00080000000000000000000000001C
:1021100008B5FEF715FFFFF7DBFA4FF480220748FA
:10212000074B12215A614368D3F894309847FFF760
:10213000B7FABDE80840FFF763BF00BFFC08002006
:10214000000401400000000000000000000000004A
:1021500008B5FEF7F5FEFFF7BBFA4FF4003207486B
:10216000074B11215A614368D3F88C309847FFF729
:1021700097FABDE80840FFF743BF00BFFC08002006
:10218000000401400000000000000000000000000A
:1021900010B5FEF7D5FEFFF79BFA1A4B5C6904F405
:1021A0007C425A61620504D517480A2143685B6D79
:1021B0009847230504D514480B214368DB6D9847E5
:1021C000E00404D510480C2143685B6E9847A104D5
:1021D00004D50D480D214368DB6E9847620404D591
:1021E00009480E2143685B6F9847230404D50648CD
:1021F0000F214368DB6F9847FFF752FABDE81040A4
:10220000FFF7FEBE00040140FC08002000000000B3
:1022100010B5FEF795FEFFF75BFA174B5C6904F407
:1022200078725A61A30604D5144805214368DB6A15
:102230009847600604D51148062143685B6B9847B0
:10224000210604D50D4807214368DB6B9847E2055A
:1022500004D50A48082143685B6C9847A30504D558
:10226000064809214368DB6C9847FFF719FABDE877
:102270001040FFF7C5BE00BF00040140FC0800206D
:1022800008B5FEF75DFEFFF723FA10220648074B5C
:1022900004215A6143685B6A9847FFF701FABDE879
:1022A0000840FFF7ADBE00BFFC080020000401405D
:1022B00008B5FEF745FEFFF70BFA08220648074B64
:1022C00003215A614368DB699847FFF7E9F9BDE8E4
:1022D0000840FFF795BE00BFFC0800200004014045
:1022E00008B5FEF72DFEFFF7F3F904220648074B69
:1022F00002215A6143685B699847FFF7D1F9BDE84D
:102300000840FFF77DBE00BFFC080020000401402C
:1023100008B5FEF715FEFFF7DBF902220648074B6A
:1023200001215A614368DB689847FFF7B9F9BDE8B6
:102330000840FFF765BE00BFFC0800200004014014
:1023400008B5FEF7FDFDFFF7C3F901220648074B6C
:1023500000215A6143685B689847FFF7A1F9BDE81F
:102360000840FFF74DBE00BFFC08002000040140FC
:1023700008B5FEF7E5FDFFF7ABF9084B1968C1F3A7
:1023800003610A065A60064A136B0BB1506B9847FB
:10239000FFF786F9BDE80840FFF732BE00000240B3
:1023A000801C002000000000000000000000000071
:1023B00008B5FEF7C5FDFFF78BF9084B1968C1F3A7
:1023C00003510A055A60064A936A0BB1D06A9847CE
:1023D000FFF766F9BDE80840FFF712BE00000240B3
:1023E000801C002000000000000000000000000031
:1023F00008B5FEF7A5FDFFF76BF9084B1968C1F3A7
:1024000003410A045A60064A136A0BB1506A98479E
:10241000FFF746F9BDE80840FFF7F2BD00000240B3
:10242000801C0020000000000000000000000000F0
:1024300008B5FEF785FDFFF74BF9084B1968C1F3A6
:1024400003310A035A60064A93690BB1D069984771
:10245000FFF726F9BDE80840FFF7D2BD00000240B3
:10246000801C0020000000000000000000000000B0
:1024700008B5FEF765FDFFF72BF9084B1968C1F3A6
:1024800003210A025A60064A13690BB15069984742
:10249000FFF706F9BDE80840FFF7B2BD00000240B3
:1024A000801C002000000000000000000000000070
:1024B00008B5FEF745FDFFF70BF9084B1968C1F3A6
:1024C00003110A015A60064A93680BB1D068984715
:1024D000FFF7E6F8BDE80840FFF792BD00000240B4
:1024E000801C002000000000000000000000000030
:1024F00008B5FFF705F9FEF773FD002383F3118894
:1025000008BD000000000000000000000000000006
:1025100008B5202383F31188FEF77AFDBDE8084053
:10252000FFF706B9000000000000000000000000F6
:102530002DE9F0415D4CFEF703FDFFF7C9F8666F2A
:10254000B7893588BFB2ADB2EB050BD5FFF7E0FF19
:10255000201D4FF40071FEF7CBFF4FF6FF63338071
:10256000FFF7C6FFFFF7D4FFDFF84081A8062ED59E
:10257000280713D015F0080F0CBF00218021EA07AF
:1025800048BF41F02001AB0748BF41F040016D0753
:1025900048BF41F480714648FEF7AAFFFEF7D0FE1F
:1025A000B588FEF7CDFE6369EDB21BB94048042142
:1025B000FEF79EFFFEF7C4FEFEF7C2FE236A626AC4
:1025C000934240D1D8F81420002A3CD04FE0FFF7C6
:1025D0008FFF39061AD52A0618D5FFF799FFFEF79F
:1025E000AFFEFEF7ADFEA36C626C30489A4243D159
:1025F000826B002A40D004300821FEF779FF27F0D3
:10260000C00343F04003B381FFF772FF6B0614D59C
:10261000FFF77EFFFEF794FE626CA36C23489A429C
:1026200002D1836B002B3CD14FF6BF7327F04007DC
:10263000BFB2B7813380FFF75BFFFFF731F8BDE82A
:10264000F041FFF7DDBC6269013262615A1C22620F
:102650001D70226AE3699A4203D3D8F81830C8F88B
:102660002030144804F08CFA3588ADB27EE710486B
:102670008021FEF73DFFF7E7A26B0C490132A26310
:102680005A1CA26493F80080236C9A4201D3CB6B4E
:102690008B6409481FFA88F804F072FAA6F80480DF
:1026A000B2E704301021FEF723FFBDE73C0C002009
:1026B000400C0020480C00206C0C002000000000A2
:1026C0002DE9F047FEF73CFC2024FFF701F884F3E6
:1026D0001188FEF79DFCFFF72BF8FEF731FEFEF7A1
:1026E0002FFE1F4AD38C174601339BB2D384134667
:1026F00053F81C1F99421E4610D11A4A1368013321
:102700001360FEF7FDFFFEF76BFC002383F31188D7
:10271000FEF7C6FFBDE8F047FFF772BC91462546BD
:102720000B89013B0B81FC69B4F80880B8F1000FFC
:10273000E3D12368D4F80CA0C4F80C805E60C9F81B
:102740001C30FEF7DDFFFEF74BFC88F31188206993
:10275000D04785F31188FEF75BFCFEF7E9FFE2E75F
:10276000001800206412002000000000000000009B
:1027700070B5464C636B9D8AFEF7E2FBADB2FEF787
:10278000A7FF05F45F43626B83F47F4383F0FF038D
:102790009382236B1868016821F00F010160187A99
:1027A00059680F2303FA00F00860E16A0E68306888
:1027B00020F00F0030604868097A8B40036005F410
:1027C00080739BB203B10123A360AB0548BFA3682C
:1027D0002E4844BF43F00203A36094F838308BB90D
:1027E0006E051FD5938823F400731B041B0C938084
:1027F00013889BB243F400731380836843F004038F
:1028000083600FE0938A23F480631B041B0C938284
:10281000036E13B1416D0139984700236365E36D81
:10282000013BE365280542BFA36843F00803A360AA
:10283000690442BFA36843F02003A360EA0442BFD7
:10284000A36843F01003A3602B0442BFA36843F0C6
:102850004003A360A36893B1202383F31188FEF79C
:10286000D7FBFEF765FF0A486FF00101FEF7D8FEBF
:10287000FEF746FFFEF7B4FB002383F31188FEF753
:102880000FFFBDE87040FFF7BBBB00BFF41C00208A
:10289000101D0020000000000000000000000000EB
:1028A0002DE9F041794EFEF74BFBFEF711FF746BFB
:1028B00096F83820238BB4F814809BB21FFA88F85E
:1028C00047463546002A7ED148EA0343704A23F042
:1028D0007F43934219D006D8073A93420AD0013277
:1028E000934217D06AE06B4A93422ED00232934251
:1028F00038D063E0338C1A0A0AD003F0010343F0A6
:10290000F00302F00602134302E0338CC3F34703E3
:10291000238253E0A38823F400731B041B0CA380C1
:10292000F36A1A68136843F001031360A3889BB22B
:1029300043F48053A3805368012B3FD8238823F4AA
:1029400080631B041B0C238038E0A38823F40073EE
:102950001B041B0CA380336B1A68136843F001033C
:1029600013602BE0238AF36A1B685D684DB1338CDA
:1029700043F00103338423889BB243F4A063238094
:102980007DE0A38823F400731B041B0CA380238821
:102990009BB243F400732380202383F31188FEF756
:1029A00037FBFEF7C5FE06F11C002946FEF738FE90
:1029B000FEF7A6FEFEF714FB85F3118818F00A0F48
:1029C0005DD0238B5BE018F00A0F16D0316C19B183
:1029D000F36C0BB130469847696D2C4811B1036E0A
:1029E00003B198470023A78AAB642B646B65238BE4
:1029F0006B6EBFB20BB12548984738060ED5EB6D0C
:102A0000296D5A1CEA65CB5C23826B6D01336B65C3
:102A1000AB6D9A4222BF00221C4BDA6579060FD5B6
:102A20002B6CEA6B01332B64AB6C591CA964218AB3
:102A3000D154AA6C6B6C9A4222BF0022134B9A6449
:102A4000FA060DD5A78A2388BFB29BB243F00103D3
:102A50002380EB6C13B10D48016C984700232B6465
:102A60007B050CD5A38A23F480631B041B0CA38273
:102A70002B6E13B10548416D984700236B65FEF737
:102A80000FFEBDE8F041FFF7BBBA00BFF41C002009
:102A900008000300820007000000000000000000A2
:102AA00038B50B070446426B02D51A48FEF7E0FA28
:102AB000C36A1868016821F00F010160187A59682B
:102AC0000F2383400B6094F8385015BB938823F490
:102AD00080531B041B0C9380138823F480631B0416
:102AE0001B0C138013889BB243F4007313802023C4
:102AF00083F31188FEF78CFAFEF71AFE04F11C002E
:102B00002946FEF78DFDFEF7FBFDFEF769FA85F31A
:102B1000118838BD307B0008000000000000000074
:102B20000EB403B503AA52F8041B019200F018FB7F
:102B300002B05DF804EB03B0704700000000000035
:102B4000002913B5044606DD19491A4A02B0BDE84A
:102B50001040FFF7E5BF1849184AFFF7E1FF20468C
:102B60001749184AFFF7DCFF20461749174AFFF7B5
:102B7000D7FF20461649174AFFF7D2FF20461649CD
:102B8000164AFFF7CDFF20461549164AFFF7C8FF42
:102B900020461549154AFFF7C3FF154B2046009301
:102BA0001449154A154BFFF7BBFF02B010BD00BF1B
:102BB0003C7B0008487B00084D7B0008607B0008D8
:102BC000697B00087C7B0008867B0008997B0008F5
:102BD000A17B0008B47B0008BE7B0008D17B000805
:102BE000E67B0008F97B0008237C0008367C00089F
:102BF0006C7C0008457C00085C7C0008687C000850
:102C000010B510B91248FEF733FA0121114C427A7F
:102C1000236801FA02F21A42F4D023EA0202837A0C
:102C2000226003F01F04A14058090B4C203044F8E7
:102C30002010002103F1604303F5614383F8001382
:102C4000530601BF054A536923F00103536110BDC8
:102C5000007B0008F01C002000E100E000100240B2
:102C600008B5FEF7B5FDFEF7C3F9074B9A691B6877
:102C700092689B689A4202D20448FEF7F9F9002351
:102C800083F3118808BD00BF00180020907C000865
:102C9000002970B5064602DD1149124A1CE02023C6
:102CA00083F31188104DFEF7BBF9FEF749FEEC8C5B
:102CB000FEF78EFDFEF79CF9AA692B6892689B6867
:102CC000A4B29A4202D20948FEF7D2F9002383F354
:102CD0001188304622460649BDE87040FFF720BF04
:102CE0003C7B0008757C000800180020207B000851
:102CF0007D7C0008000000000000000000000000D3
:102D0000014904F00DB800BFA07C000800000000DD
:102D100042F6FC23984207B511D8400800F4FC5055
:102D2000094B42001A803F238DF80500000A8DF8F8
:102D3000060001A88DF8043003F0E2FF01E04FF037
:102D4000FF3003B05DF804FBF81000200000000025
:102D5000B0F5FC5F07B50FD80A4B00F4FC501880A3
:102D600014238DF80500000A8DF8060001A88DF8DF
:102D7000043003F0C5FF01E04FF0FF3003B05DF811
:102D800004FB00BFFE100020000000000000000057
:102D9000B0F5964F07B510D847F6F073094A0340CF
:102DA000138015228DF8053001A81B0A8DF8042028
:102DB0008DF8063003F0A4FF01E04FF0FF3003B0C0
:102DC0005DF804FBF6100020000000000000000089
:102DD00038B50D46FFF7BCFF04462846FFF7D8FF7D
:102DE000204338BD0000000000000000000000008B
:102DF000484B494A9B6983B59A61C820FFF780F820
:102E000002F09EFD0221402001AA0B4600F0F0FED8
:102E100058B902219DF80530402023F001038DF8B8
:102E2000053001AA0B4600F0CBFF3C4D3C4E02F0B2
:102E3000DFFD40F6C410FFF763F802F081FD2B7848
:102E4000002BF4D1374C3F20214603F061FE10B92E
:102E500023885B0023802388B3F5807F03D840F666
:102E60008E50FFF755FF00232F4C2046238000F0A3
:102E70006FFE40B1204600F06BFE20B14FF4806041
:102E800043F2381143E0294C06202146022201F08A
:102E90004FF90028CBD123881B0A13F00F0223809F
:102EA00004D12349086808B10A6004E09B09022B99
:102EB00004D1012A02D101F063F9B8E71D4F384669
:102EC00000F076FE0028B2D11B4C50202D21224666
:102ED00000F01EFF0028AAD13A88B4F900309A42C7
:102EE00007DC01F0B5FE20B1B368DB0501D401F0C9
:102EF00097F9104C204600F043FE002897D10F4F61
:102F0000384600F045FE002891D138882188FFF727
:102F10005FFF8CE700180020B27C0008CC0B00207B
:102F200000080140F8100020F0100020F2100020EE
:102F300020080020F4100020FC100020FA100020CF
:102F4000002808B507DD0868114600F0D1F8B0FA8E
:102F500080F0400908BD002008BD0000000000000E
:102F60002DE9F041124D07460E463F202946904676
:102F700003F0CEFD0F490446142003F0C9FD0E49AD
:102F80000443152003F0C4FD2B8820435B009BB253
:102F90002B80B8F1000F01D0A8F8003017B1054B15
:102FA0001B883B8016B1044B1B883380BDE8F08141
:102FB000F8100020FE100020F61000200000000095
:102FC000054B1A6832B902221A60044A12780AB113
:102FD00001221A6018687047C80E002004090020FA
:102FE000431E002013F8012F0130002AFAD1704748
:102FF00003460244934202D003F8011BFAE77047EC
:10300000F0B5002A6DD088426BD033D240EA01037C
:103010009F0716D080EA01039E0706D1032A04D930
:1030200001F00303C3F1040300E01346D21A441E67
:10303000CD1811F8016BA94204F8016FF9D10344CE
:1030400000E00346940809D0A4000D1F1E1955F88E
:10305000047F43F8047BB342F9D1214412F0030208
:103060003FD0013B0A4411F8014B914203F8014F54
:10307000F9D1F0BD8318114443EA0104A5071E46A7
:1030800015D083EA0104A40704D1042A02D901F06F
:10309000030400E014460D46121B671A15F801EDF3
:1030A000FD4206F801EDF9D164422344214496081B
:1030B0000DD01C4635460F4657F804ED013D44F847
:1030C00004EDF9D16FF0030474432144234412F05A
:1030D000030206D0521A11F8014DD14203F8014DF6
:1030E000F9D1F0BD00000000000000000000000069
:1030F00030B5074C451E15F8010F11F8013B225C55
:10310000E35C9A4202D10028F5D100E0D01A30BD2C
:10311000C080000800000000000000000000000067
:1031200030B5024612F8013B43B10D4615F8014B8C
:1031300014B19C42FAD130BD1046F2E7184630BDBA
:10314000034670B51A460D4612F8016B15F8014B8F
:103150001CB1B442FAD11346F4E7181A70BD00004E
:103160002DE9F04F0B4682464FF00A0987B01978D7
:103170005E1C002900F0D78025290AD0DAF800303B
:1031800050469B6801929847019A93465A463346A7
:10319000EDE7597800252D2908BF9E1C37780CBF14
:1031A00001230023302F18BF2027019308BF0136C9
:1031B00016F8013BA3F13001C9B2092903D92A2B22
:1031C00004D11178043209FB0515F1E72E2B4FF0DD
:1031D00000010DD116F8013BA3F13000C0B209285F
:1031E00003D92A2B04D11078043209FB0101F1E73D
:1031F00003F0DF004C2803D1307808B103460136D4
:10320000632B07D1136806AC02F1040B04F80C3DE4
:1032100020270BE056D84F2B56D00AD9552B58D023
:10322000582B61D0934606AC04F80C3D0DF10D000F
:1032300013E0442B54D1116802F1040B0029B8BFEC
:103240002D234FF00A02BDBF8DF80C3049420DF11D
:103250000D0003A803F074FC03ACC4EB0008019B51
:10326000C8EB050525EAE575B3B96D42A5B121782E
:103270002D2909D1302F07D1DAF800205046926865
:103280009047013408F1FF38DAF800205046926880
:10329000394690470135F7D1B8F1010807D4DAF87B
:1032A00000205046926814F8011B9047F4E7002D67
:1032B0003FF46CAFDAF8003050469B6839469847C7
:1032C000013DF4E76F2B01D1082303E00ED9752BE4
:1032D00008D10A2302F1040B116803A81A46B9E7C2
:1032E000492B06E0782B06D11023F3E7642BA2D0FC
:1032F000692BA0D096E7732B94D10C4B146802F184
:10330000040B002C08BF1C4647F6FF73002908BFBA
:1033100019462046214403781BB1884201D0013070
:10332000F9E7202799E707B0BDE8F08FC47C0008D3
:103330000EB403B503AA52F8041B0192FFF710FF65
:1033400002B05DF804EB03B070470000000000001D
:103350000EB403B503AA52F8041B0192FFF700FF55
:1033600002B05DF804EB03B07047000000000000FD
:103370002DE9F04385B004460E461546FFF720FEC2
:10338000012804D020467E49FFF7E2FFF4E0022E38
:1033900061DD28687B49FFF7ABFE8146002840F0DD
:1033A0008C804946686803F023FC49468046A8683B
:1033B00003F01EFC032E074605D0E868494603F0DB
:1033C00017FC064601E04FF48036B8F5FC5F02D9E1
:1033D00020466D49CCE0B7F5964F02D920466B499F
:1033E000C6E0B6F5803F21D042F6FC239E4202D9CA
:1033F00020466749BCE0FF2E02D820466549B7E069
:10340000424665493B4620460096FFF7A1FF1FFA5A
:1034100088F0FFF79DFC0546B8B2FFF7B9FC0543FD
:10342000B0B2FFF775FC45EA00020BE042462046C9
:103430005A493B46FFF78CFF1FFA88F0B9B2FFF7F5
:10344000C7FC0246002A204603DA5549FFF780FFF1
:1034500090E054498CE018D153492868FFF748FEA2
:10346000014650BB686803F0C3FB42F6FC23984258
:103470000546BDD8FF28C0D920464C492A46FFF74B
:1034800067FFA8B2FFF744FC74E0012E15D12F6846
:1034900047493846FFF72CFE464D10B920464649AD
:1034A00007E038464549FFF723FE064628B920467F
:1034B0004349FFF74DFF2E705CE000232046414951
:1034C000ADF80830FFF744FF3A4B20461B780BB1AC
:1034D0003D4900E03D49FFF73BFF02F031FA002390
:1034E00004AD25F8083D2946FE2003F011FB021E1D
:1034F000B2BF37493749BDF808202046FFF728FFFB
:1035000000232946FF20ADF8083003F001FB2046D8
:103510003149BDF80820FFF71BFF03A90DF10E028A
:103520000DF10A00FFF71CFD20462C49BDF80A20CA
:10353000FFF70EFF20462A49BDF80C20FFF708FFD1
:10354000BDF80E2020462749FFF702FF20462649F6
:10355000FFF7FEFE20462549FFF7FAFE20462449E4
:10356000FFF7F6FE20462349FFF7F2FE20462249E8
:10357000FFF7EEFE02F03CFA05B0BDE8F08300BFB5
:10358000CB7C000892880008F07C0008117D0008C0
:10359000337D0008687D0008977D0008C67D00081F
:1035A000E77D0008F57D0008FA7D0008007E000830
:1035B000287E0008CC0B00202E7E0008417E0008EB
:1035C000487E00085C7E0008737E00088F7E00083D
:1035D000AC7E0008D07E0008EC7E0008087F000862
:1035E000237F00083E7F0008597F00086A7F00089B
:1035F000A77F0008E57F0008158000080000000094
:103600002DE9F04390E89000714B724A9B6999B0A4
:103610009A6120467049FFF783FA0DF12008204691
:103620006E49FFF77DFA4646236820465B680DF138
:1036300007010122984700283DD09DF80710042972
:1036400004D120466649FFF76BFA34E0082901D01F
:103650007F2912D14645E7D0236808219B68204680
:103660009847236820219B68204698472368204676
:103670009B6808219847013ED6E70D290BD100250C
:1036800020465849FFF74CFA3570404602A903F02E
:103690008FFA814618E01F29C6D90DF15F039E42BB
:1036A000C2D2236820469B6898479DF807300136B0
:1036B00006F8013CB8E720464B49FFF731FA75E0C0
:1036C00003AB43F825000135002002A903F070FA8E
:1036D00038B1042DF4D120464449FFF721FA4FF0C8
:1036E0000009002218AB03EB850343F8542CB9F111
:1036F000000F94D048463E49FFF7FAFC28B9002D48
:1037000054D020463B493A4A08E048463A49FFF738
:10371000EFFC28BB204625B13649374AFFF700FAAF
:103720007DE73649FFF7FCF9354E013506EBC50359
:1037300053F8082C22B120463249FFF7F1F9F4E79B
:1037400017B9204627492AE007F10805083555F83A
:10375000102C002AF5D020462A49FFF7E1F9F5E7B9
:10376000274E3068F0B14946FFF7C2FC08B1083671
:10377000F7E773682046294603AA98474FE749466A
:10378000FFF7B6FC0028F4D0083630680028F6D1E0
:1037900020461D494A46FFF7C3F920461B49FFF75B
:1037A000BFF93CE7002FF3D03E46EEE7202383F33A
:1037B0001188FDF735FCFEF7C3F800211448FDF72A
:1037C00097FE0020FDF744FF002019B0BDE8F0830C
:1037D00000180020468000084C8000086180000826
:1037E000668000088F8E00086980000872800008DB
:1037F000878000083C7B00088C80000891800008CE
:1038000024080020A6800008AA800008AD800008D7
:103810008C0B0020000000000000000000000000F1
:103820000022014B1A607047F808002000000000D9
:1038300010F0010F0CBF4FF000420022C3039BB2F7
:103840001343064A1361A2F51F42E83A136823F0B6
:10385000F10343F05003184310607047000C01401F
:1038600030B585B004AC04F8010D08465521154665
:10387000FFF7BEFB0095034621460B20012202F014
:103880004FF918B1024B9B6843EA006005B030BDA8
:10389000F41C0020000000000000000000000000F8
:1038A000014601220D20FFF7DBBF000000000000F1
:1038B00038B50C461546FFF7D3FF88B920786A1E45
:1038C0009042A8BF104623461A1B824204DA13F81E
:1038D000012F03F8012CF7E7002220EAE073E254FD
:1038E00038BD0000000000000000000000000000E3
:1038F000014605222220FFF7DBBF00000000000088
:10390000014608222120FFF7D3BF0000000000007D
:1039100001460C222020FFF7CBBF00000000000072
:103920000EB403B503AA52F8041B0192FFF718FC6A
:1039300002B05DF804EB03B0704700000000000027
:10394000002910B504DDBDE810400849FFF7E8BFC5
:10395000074B08491C684FF47A73B4FBF3F203FB7E
:103960001243BDE81040FFF7DBBF00BFC081000875
:1039700064120020D0810008000000000000000058
:103980000B4B10B51B68044603F0010398420DD0A1
:10399000FFF74EFF012C02D10648002102E02CB9AE
:1039A00021460548BDE81040FDF7A2BD10BD00BF8F
:1039B000186C004008090020B80C0020000000002E
:1039C00008B5FDF79DFEFDF70BFB002383F311887F
:1039D00008BD000000000000000000000000000022
:1039E00008B5202383F31188FDF712FBBDE80840DA
:1039F000FDF79EBE00000000000000000000000077
:103A000008B5FFF7EDFF0020FFF7BAFF01220B4BCF
:103A10001A60FDF795FC0A48C3680BB1FDF7A0FCDE
:103A2000084A002306484FF4FA71FDF7B9FCFFF786
:103A3000C7FF0022044B1A6008BD00BFF808002031
:103A40002412002021380008681200200000000025
:103A500008B5FFF7C5FF0120FFF792FFBDE808405A
:103A6000FFF7AEBF000000000000000000000000F3
:103A700010B50D240A4B01385B6F10F8012F72B19D
:103A80000A2A04D11A8892B21106FBD59C800178CB
:103A90001A8892B21206FBD58AB29A80EDE710BD61
:103AA0003C0C0020000000000000000000000000AE
:103AB000B0B502F1080482B024F0070402AFADEB08
:103AC000040D551C02AC8DF8080021B11AB10DF19E
:103AD0000900FFF795FA00230B20009321462A46A0
:103AE00002F01EF818B1034B9B6843EA0060BD4624
:103AF000B0BD00BFF41C002000000000000000006A
:103B000007B502AB23F8021D19460222FFF7D0FFCA
:103B100003B05DF804FB000000000000000000009E
:103B20000222FFF79DBE0000000000000000000020
:103B300001464F20FFF7F4BF000000000000000026
:103B400001460B20FFF7ECBF000000000000000062
:103B500001461820FFF7E4BF00000000000000004D
:103B600001461720FFF7DCBF000000000000000046
:103B700001461020FFF7D4BF000000000000000045
:103B800001461520FFF7CCBF000000000000000038
:103B900001461420FFF7C4BF000000000000000031
:103BA00001460A20FFF7BCBF000000000000000033
:103BB00001460920FFF7B4BF00000000000000002C
:103BC00001461220FFF7ACBF00000000000000001B
:103BD00001461320FFF7A4BF000000000000000012
:103BE00001461C20FFF79CBF000000000000000001
:103BF0002DE9F0430E4615461C4600218FB0531B9D
:103C0000A3424FF0000302DA02F8011BF7E7772224
:103C10008DF811008DF8102000930B2004A90322C9
:103C20008DF8123001F07CFF00284DD173097833F4
:103C30000EAF07F8293D002C44DD16F01F0820D0F8
:103C40002123394600930B2005AB012201F068FFC8
:103C5000214681460023F218D2B2D006A1EB03041C
:103C60000DD08B4208D003EB080205A8024452781D
:103C7000013305F8012BEEE71646002419E016463D
:103C800017E01F2CCCBF4FF0210804F10108394682
:103C9000012205ABCDF800800B2001F041FF0DF1B2
:103CA0001501814608F1FF322846FFF7A9F9203CAB
:103CB0002035B9F1000F09D19DF80F3001338DF88F
:103CC0000F30B8E7002006E0012000E00220034B9F
:103CD0009B6843EA00600FB0BDE8F083F41C00204D
:103CE00013B5022304460021402001AAFFF780FFFC
:103CF00028B99DF8043003F003030133237002B0A8
:103D000010BD0000000000000000000000000000E6
:103D100010B502231446FFF76BFF10B923885BBA76
:103D2000238010BD00000000000000000000000023
:103D300002461C216020FFF7EBBF000000000000DE
:103D400002461A216020FFF7E3BF000000000000D8
:103D5000024618216020FFF7DBBF000000000000D2
:103D6000024614216020FFF7D3BF000000000000CE
:103D7000024612216020FFF7CBBF000000000000C8
:103D8000024610216020FFF7C3BF000000000000C2
:103D900002460E216020FFF7BBBF000000000000BC
:103DA000024602216020FFF7B3BF000000000000C0
:103DB000024600216020FFF7ABBF000000000000BA
:103DC0002DE9F04F11EB03099A463D4B87B013F8EC
:103DD000008014BF20250025C14583460C46039270
:103DE00065DCBAF1000F62DD364F3220FEF788F84D
:103DF000584600213A464346FFF7FAFE0646002899
:103E000058D1DDF80CC0524661463819FFF7F8F872
:103E10001920FEF775F8772300968DF814300B20E3
:103E200005A9032233468DF815B08DF8166001F010
:103E300077FE002833DB202699FBF6F3640905EBB7
:103E4000431595FBF6F6DFF88490651C6D01B442CE
:103E500023DA4545D8BF202304F10104C8BF08F088
:103E60001F0304F17702A5F1200189F800203944ED
:103E70001A46154803F1020A89F80130FFF7C0F825
:103E800000230B2000931149524601F049FE2035D2
:103E900038B96420FEF734F8D9E700200CE003209D
:103EA00000E004200A4B9B6843EA006004E04FF006
:103EB000FF3001E06FF0010007B0BDE8F08F00BFF8
:103EC00000820008001100200212002000120020D1
:103ED000F41C0020000000000000000000000000B2
:103EE00013B50221044601AA40200B46FFF780FECD
:103EF00078B99DF8053014B123F0080301E043F0D0
:103F0000080302218DF80530402001AA0B46FFF777
:103F100057FF02B010BD00000000000000000000CC
:103F200013B502230021044601AA4020FFF760FEDA
:103F3000014660B99DF8053001AA23F0180343EA51
:103F4000C4008DF8050002234020FFF739FF02B0BE
:103F500010BD000000000000000000000000000094
:103F600007B553BA02AA22F8023D0223FFF728FF41
:103F700003B05DF804FB000000000000000000003A
:103F8000831E022B73B506460D4636D80024B44274
:103F90004FEA4401B4BF2A460022522001F0FE013C
:103FA000FFF7DEFF50BB0134B442F0D152200821AC
:103FB0002A46FFF7D5FF08BB302016212A46FFF717
:103FC000CFFFD8B91A220E4B302002FB0434238ACB
:103FD000182103FB05F242F21073B2FBF3F292B226
:103FE000FFF7BEFF50B9032302AA02F8013D0C21DE
:103FF00001235220FFF7E4FE00E0012002B070BD73
:1040000050790008000000000000000000000000DF
:10401000831E022BF7B5044600F281804020002168
:1040200001AA0223FFF7E4FD00287CD19DF80430AB
:10403000022C03F0FC0302D143F0010305E0032C42
:104040000CBF43F0020343F003038DF8043000215A
:10405000402001AA0223FFF7B3FE0146002861D1E8
:104060001A266643314D0721AA5BFFF779FFAF1986
:104070000146002856D10A217A88FFF771FF0146D0
:1040800000284FD11121BA88FFF76AFF01460028A6
:1040900048D11421FA88FFF763FF0146002841D177
:1040A00006F108031020EA5AEF18FFF759FF00281D
:1040B00039D1222002217A88FFF752FF98BB2620AF
:1040C0000821BA88FFF74CFF68BB26200B21FA882D
:1040D000FFF746FF38BB103630200821AA5BFFF7F8
:1040E0003FFF00BB1A233544442000216A885C430B
:1040F000FFF736FFB8B944200221AA88FFF730FF46
:1041000088B944200521EA88FFF72AFF58B9074BF0
:1041100018342D211A5B5020FFF722FF03E04FF0E7
:10412000FF3000E0084603B0F0BD00BF5079000842
:10413000002330B50C4685B08DF80D00000A1546F9
:104140008DF80E0000930B2003A903228DF80C308C
:1041500001F0E6FC3CB135B100950B2003A901222A
:10416000234601F0DDFC18B1024B9B6843EA006076
:1041700005B030BDF41C002000000000000000006D
:10418000002121200A46FFF7D3BF000000000000F5
:10419000014602200246FFF7CBBF000000000000EE
:1041A00008B5FDF715FBFCF723FF074B9A691B6861
:1041B00092689B689A4202D20448FCF759FF002398
:1041C00083F3118808BD00BF00180020F0810008AB
:1041D0000E4B10B51C68BCB90D4B1B68DB0713D424
:1041E000202383F31188FCF71BFFFDF7A9FB0120B7
:1041F000FFF71EFB21460748FDF77AF9FDF700F9A6
:10420000BDE81040FFF7CCBF10BD00BFF80800208C
:10421000186C0040080900200000000000000000A9
:1042200008B51A4B1B68DB0711D5202383F31188CF
:10423000FCF7F6FEFDF784FB0020FFF7F9FA1448BF
:104240000021FDF755F9FDF7DBF8FFF7A9FF012283
:10425000104B1A60202383F31188FCF7E1FEFDF771
:104260006FFBFDF76DF80C48C3680BB1FDF778F8EC
:104270000A4A002308484FF4FA71FDF791F8FFF756
:104280008FFF0022064B1A6008BD00BF186C00406B
:10429000B80C0020F8080020241200202138000863
:1042A0006812002000000000000000000000000074
:1042B000F0B51D4C002A08BF22460024571E17F8EF
:1042C000016F651C26B9069DED060FD4202604E07B
:1042D000059EB542F7D22C46F1E7013B5D1CAC428E
:1042E00004DA884238BF06700130F6E705462E1A18
:1042F000A64209DA8D4238BF167805F101053CBFA8
:1043000005F8016C0132F2E7002CACBF0219021C67
:10431000202610461D1A1544A54204DD884238BFE8
:1043200006700130F6E7F0BDC47C00080000000014
:104330002DE9F84319460646144610461D46544AD0
:104340000023FCF7C5FB0621C0F3032EC0F30312C4
:104350004FEA103C02EB0E03634400F00F0001FB38
:104360000300CD230A2703FB00F14FEAD1280CEB11
:10437000CC010A440EEB8E010A4402EB080103FB58
:1043800001F2D20A07FB121102EB4E024FF00D0EA2
:104390004FF000090EFB02FE4FEADE1E07FB1E2255
:1043A0000EEB8C0E03FB0EF3DB0A07FB180007FB7A
:1043B00013EE3030303130320EF1300E3033DFF862
:1043C000D480C0B2C9B2D2B25FFA8EFEDBB2A945C8
:1043D00008BFA045374606F105064ED30621C4F3B3
:1043E0000313C4F30325200B5A19024404F00F04ED
:1043F00001FB0244CD210A2601FB04FE4FEADE2E1A
:1044000006FB1E4400EBC0021A44303405EB850362
:104410003C70D41814EB0E0202D1781CBDE8F8836E
:104420005143CB0A06FB132213EB450302F1300282
:104430007A7003D110B9B81CBDE8F8830D21594337
:10444000CA090A2101FB123312EB800203F1300387
:10445000BB7002D1F81CBDE8F883CD235343DB0ABF
:1044600001FB13223032FA7013B9381DBDE8F8830E
:1044700030333B71781DBDE8F88306F8050C06F86B
:10448000041C06F8032C06F802EC06F8013C9EE733
:10449000A08601009F8601000000000000000000CF
:1044A0002DE9F04F97B0239E054616F0400B894644
:1044B000DDF880A0219C04D0BAF10A0B18BF4FF0A0
:1044C000010BF70606F0200148BF26F00106C9B22D
:1044D00016F00208019117D0002A73F1000106DAE4
:1044E000524263EB4303013C4FF02D080CE071078F
:1044F00003D5013C4FF02B0806E016F008081CBF5E
:104500004FF0200804F1FF34BBF1000F0AD0BAF1DC
:10451000100F01D0013C05E052EA0301A4F10204AE
:1045200003D00AE052EA030104D1302301278DF8B9
:1045300014302CE0BAF10A0F24D0BAF1100F14BFD6
:104540000321042100270AF1FF3C029105A901374C
:1045500001EB070E4948D1B201EA0C01415C019818
:10456000CDF80CC001430EF8011C10461946029A02
:10457000FCF79EFA02460B4652EA0301DDF80CC036
:10458000E4D104E005AF3846FFF7D2FEC71B229BFB
:10459000BB42B8BF3B4616F0110FA4EB03040ED18B
:1045A00021462A462020013904D44A4538BF1070DC
:1045B0000132F8E724EAE472013C1544A41AB8F188
:1045C000000F04D04D4538BF85F800800135BBF1A0
:1045D000000F14D04D453CBF30222A70BAF1100FA5
:1045E00005F101020AD14A4538BF019A05F10205D9
:1045F0003CBF42F0580205F8012C00E01546F206D7
:1046000012D416F0010F14BF3020202021462A4674
:10461000013904D44A4538BF10700132F8E724EA62
:10462000E472013C1544A41A3022013B9F4204DC91
:104630004D4538BF2A700135F7E728463B46013B18
:1046400009D44D453CBF05AA9A5C05F1010538BF68
:1046500005F8012CF3E7002FA8BFC0192246034636
:104660002021013A04D44B4538BF19700133F8E7D3
:10467000002CA8BF001917B0BDE8F08F9082000889
:1046800010B5202383F31188104CFCF7C1FCFDF713
:104690004FF8FCF755FEE36813B12046FCF760FEC7
:1046A000FCF74EFEE36813B10848FCF759FE0748D3
:1046B0000A21074A0023FCF773FEFDF721F8FCF7F7
:1046C0008FFC002383F3118810BD00BF3812002037
:1046D000514700080000000000000000000000003A
:1046E00070B5202383F31188164CFCF791FCFDF77D
:1046F0001FF8FCF725FEFCF723FEA5682368002DB4
:1047000002DBA34202D104E0A34202D10E48FCF72F
:10471000AFFC00236FF00106A3600135002D07DC1C
:104720006068436863601C60FCF7BAFE4662F4E7A9
:1047300001F056F8FCF7E4FFFCF752FC002383F38A
:10474000118870BD300C002070820008000000004D
:1047500070B5202383F31188FCF75AFCFCF7E8FFBF
:10476000144B154C9E68A3F580639D682368C6F3BF
:1047700080369E42C5F3002508D016B10F480021AF
:1047800001E031460E48FCF7B3FE266063689D42A7
:1047900008D015B10B48002101E029460A48FCF772
:1047A000A7FE6560FCF7ACFFFCF71AFC002383F35F
:1047B000118870BD000C0140D00F00209C09002022
:1047C000BC0B00200C090020D00E002000000000CF
:1047D00038B50446FCF7B4FDA568002D18DCFCF7DD
:1047E000AFFD206815B9A04202D104E0A04202D179
:1047F0000848FCF73DFC0135012DA56008D0036891
:1048000023605C6000234362BDE83840FCF748BE8B
:1048100038BD00BF808200080000000000000000DA
:10482000A0F16103192B98BF2030704700000000F1
:1048300020F02000413819288CBF0020012070474B
:1048400010B50446FFF7F4FF30B9A4F13000092891
:104850008CBF0020012010BD012010BD0000000011
:104860002DE9F04F1546074688461A4604464FF094
:10487000200985B046182B78002B00F07481252B79
:1048800001D1002109E0B44280F01E8123701BE1B8
:1048900008D92D2B0DD141F0100115F8013F2B2B1C
:1048A000F6D10BE0202B0CD0232B0DD141F0400191
:1048B000F3E7302B08D141F00101EEE741F00401AC
:1048C000EBE741F00801E8E7A3F1300EBEF1090F74
:1048D000284610D84FF0000E4FF00A0A284615F867
:1048E000013BA3F1300CBCF1090F17D80AFB0E3EB7
:1048F000AEF1300EF2E72A2B0CD1D2F800E00130F5
:10490000BEF1000F02F1040307DACEF1000E41F010
:10491000100102E04FF0FF3E00E01A4603782E2B14
:1049200023D1437800F1010CA3F13005092D12D8F1
:10493000654600204FF00A0A2B78AC46A3F1300BF5
:10494000BBF1090F05F1010503D80AFB003030382F
:10495000F2E7134607E02A2B0CD100F1020C106895
:10496000131D002805DB1A4605E084464FF0FF3092
:1049700001E01A4600209CF80030682B07D003F0B5
:10498000DF054C2D03D05A2D01D0742B0CD16C2B8C
:104990000CF101050BD19CF801A0BAF16C0F06D106
:1049A0000CF102054C2302E065464FF0FF3395F809
:1049B00000C0BCF16E0F7DD011D8BCF1630F23D0C5
:1049C00006D8BCF1250F7BD0BCF1580F7ED083E018
:1049D000BCF1640F7DD0BCF1690F7AD07CE0BCF1F2
:1049E000730F30D007D8BCF16F0F00F08780BCF197
:1049F000700F33D070E0BCF1750F7CD0BCF1780F34
:104A00006AD141F0200161E0C9060AD40EF1FF3EEF
:104A1000BEF1000F05DDB44238BF84F800900134C8
:104A2000F4E7B44202D21368043223700EF1FF3E61
:104A3000BEF1000F04F1010440F39380B44238BF8B
:104A400084F80090F2E78DE8030002F1040A2046A2
:104A5000314612687346FFF72BFC80E002F1040A2E
:104A6000126842B98DE80300474A20463146734632
:104A7000FFF71EFC13E0BEF1FF3F4FF010030ABF2B
:104A80004FF0080E41F0200141F021018DE808406F
:104A900002900391204631460023FFF701FD0446B2
:104AA000AB465D4668780BF1010BFFF7C9FE0028A5
:104AB000F7D155E0131D1268E11B11601A4650E052
:104AC000B44238BF84F800C001344AE04FF0100C03
:104AD00016E041F002010EE0B4423CBF25232370F2
:104AE0002978631C21B1B34238BF6170023438E0C9
:104AF000013D1C4635E04FF00A0C01E04FF0080C78
:104B00004C2B06D1073222F0070202F1080A0CCA28
:104B10001DE06C2B02F1040A03D18B07126815D437
:104B200005E023F0200BBBF15A0F126801D10023DE
:104B30000DE0742B0AD0682B01F0020304D10BB9ED
:104B400092B2F4E712B201E0002BF0D0D31702903A
:104B500003918DE8005020463146FFF7A1FC044642
:104B60005246013587E6B8F1000F08D0B44238BF8D
:104B700023700134B44284BF002306F8013CE01BDB
:104B800005B0BDE8F08F00BFC47C00080000000045
:104B90000FB410B5C2B044AB53F8042B4FF480717E
:104BA00002A80193FFF75CFE044602A8FEF760FF2F
:104BB000204642B0BDE8104004B07047000000003D
:104BC0000EB403B503AB53F8042B6FF0004101930F
:104BD000FFF746FE02B05DF804EB03B0704700003B
:104BE000613819288CBF00200120704700000000A8
:104BF000413819288CBF00200120704700000000B8
:104C0000A0F13003092B07D920F0200041380528F6
:104C10008CBF002001207047012070470000000079
:104C2000303809288CBF00200120704700000000A8
:104C3000202805D0093804288CBF002001207047A7
:104C4000012070470000000000000000000000008C
:104C5000024B186800F00100704700BF186C00405C
:104C600008B5064B1B6843B9FEF7BAFE0120FEF7F4
:104C700087FEBDE80840FEF7A3BE08BDF808002087
:104C80002DE9F84F81460E46002900F09A804E4FDC
:104C9000012997F8008076D943464C4DDFF844A1AE
:104CA00007F1010B0F442922B3FBF2F402FB143489
:104CB0000F2C39D19BF8003003F0C002802A5AD162
:104CC00003F0040101F0FF00414A29B10121116004
:104CD000EA7B42F0040203E01060EA7B22F0040267
:104CE00003F00303012BEA7303D005D3022B06D094
:104CF00041E0FEF785FE3EE0FFF7B2FF3BE0FEF746
:104D00007FFEFEF76DFEFCF71BFB3248C3680BB15C
:104D1000FCF726FB2F484FF496712F4A0023FCF72F
:104D20003FFBFEF74DFE26E0082C0BD19AF8003031
:104D30009BF8002043EA0223CAF800309BF80030B9
:104D40002B7218E0092C03D19BF800306B7212E033
:104D5000282C07D19BF8003020495A000A6085F8BA
:104D6000283008E0102C03D0A4F11403062B02D83D
:104D70009BF8003063550BF1010BBB4504F10103B7
:104D800091D100F04DFDD9F8582008F1FF38464484
:104D9000B6FBF2F302FB13662023C9F85C6083F3D1
:104DA0001188FCF735F9FCF7C3FC0D48FFF710FD3F
:104DB00000F016FDFCF7A4FCFCF712F9002383F3C6
:104DC0001188BDE8F88F00BF6C120020900B002006
:104DD000681200204C120020513A00086012002096
:104DE000300C0020186C00400000000000000000A3
:104DF00008B5FCF7EDFCFCF7FBF8074B9A691B685C
:104E000092689B689A4202D20448FCF731F9002369
:104E100083F3118808BD00BF00180020A08200089D
:104E20002DE9F04786B004460E461546FEF7C8F851
:104E30000128804602D02046A64995E330462946FF
:104E4000A54AFEF77DF8002839D0022E34D16B68D0
:104E50001B782B2B02D02D2B2ED116E0462004A937
:104E6000FEF75EFE0246002863D1BDF81010462012
:104E700041F0020189B2ADF81010FEF741FE024682
:104E8000002856D1204695496EE3462004A9FEF736
:104E900047FE024600284CD1BDF81010462021F0F4
:104EA000020189B2ADF81010FEF72AFE0246002872
:104EB0003FD120468A4957E320468A4954E3304689
:104EC0002946894AFEF73CF800283BD0022E36D10D
:104ED0006B681B782B2B02D02D2B30D114E0462091
:104EE00004A9FEF71DFE024618BBBDF810104620AF
:104EF00041F0040189B2ADF81010FEF701FE024640
:104F0000B8B9204679492FE3462004A9FEF708FEE8
:104F1000024670B9BDF81010462021F0040189B294
:104F2000ADF81010FEF7ECFD024610B920467049AE
:104F30001AE3002A80F21A8320466E495BE220467B
:104F40006D4911E3304629466C4AFDF7F9FF0746E3
:104F500000283BD0022E26D16F6869493846FEF7FB
:104F6000C7F898B138466749FEF7C2F808B9404615
:104F70000CE038466449FEF7BBF808B9304605E056
:104F800038466249FEF7B4F838B90320FEF7C8FF87
:104F90000246204622B15E492DE220465D4904E2E8
:104FA0005D496A6827E220465C49FEF7C1F9204660
:104FB0005B49FEF7BDF920465A49FEF7B9F920468C
:104FC0005949FEF7B5F920465849CDE23046294601
:104FD000574AFDF7B5FF824688B1022E07D0394601
:104FE000202004AAFEF794FE20465249CEE039461E
:104FF000686801F0FDFD394682B220202FE030467E
:1050000029464D4AFDF79CFF814680B1022E07D00C
:105010000221202004AAFEF77BFE20464749B5E086
:105020006868514601F0E4FD82B2202016E0304667
:105030002946434AFDF784FF074698B1022E07D060
:105040000221212004AAFEF763FE20463D499DE08F
:105050006868494601F0CCFD82B221203146FEF756
:105060007FFF83E230462946374AFDF769FFF8B1F2
:10507000022E0AD0414604AA6B204346FEF7B8FD33
:10508000204632499DF81020B5E13946686801F0A4
:10509000AFFD41468DF8100004AA6B204346FEF791
:1050A0008FFE10B120462A495EE2204629495BE284
:1050B00030462946284AFDF743FF002869D0022ED2
:1050C0004ED00021222004AAFEF722FE20462349CA
:1050D0005CE000BFB0820008D7820008DB820008D5
:1050E000F582000839830008868500084D83000892
:1050F00064830008198300088583000899830008E9
:10510000A4830008AD830008B1830008B9830008B8
:10511000E2830008C1830008048400081B8400089F
:105120005784000888840008C0840008F6840008BA
:10513000268500082E850008548500085D85000836
:10514000838500088A850008A7850008B0850008C7
:10515000D0850008F57D0008E49B0008D88500088C
:105160000021686801F044FDA449ADF81000204614
:10517000FEF7DEF8BDF8102022200021FEF7F0FE39
:10518000021E204601DA9E4935E19E49BDF91020F4
:1051900031E1304629469C4AFDF7D2FEF8B1022E95
:1051A00005D004A8FEF7DCFC2046984914E0002155
:1051B000686801F01DFD9649ADF810002046FEF725
:1051C000B7F81720BDF81010FEF79AFC021E204613
:1051D00001DA90490FE19049BDF810200BE130460B
:1051E00029468E4AFDF7ACFE00B3032E02D02046BE
:1051F0008B49B9E16868002101F0FAFC00210646FC
:10520000A86801F0F5FC054686492046ADB2FEF7D8
:105210008FF830462946FEF7B3FE021E204601DA1B
:105220008149E8E0814932462B461BE03046294659
:105230007F4AFDF785FE0746E8B1012E02D12046E0
:105240007C4991E16B681A78A2F13203022B0FD8E6
:10525000A2F130052846FEF7DBFE031E204604DAE5
:105260002A467549FEF764F880E174492A46C2E08F
:1052700020467349BFE030462946724AFDF760FE7A
:1052800068B3022E14D16B681B78312B05D1012035
:10529000FEF726FE20466C4966E1302B40F0628125
:1052A00020466A49FEF744F83846FEF719FE5DE1EC
:1052B000012E40F057810221402004AA0B46FEF740
:1052C00097FC28B99DF8110080F00800C0F3C000D9
:1052D00010B120465E4947E120465E4944E1304630
:1052E00029465D4AFDF72CFE074660B120465B4922
:1052F000FEF71EF8FEF744FF024600283FF4D5AE45
:105300002046574977E030462946564AFDF718FEB1
:10531000804600284BD020465349FEF709F8622307
:1053200006AD05F80C3D05230B200093294601220C
:1053300004AB00F0F5FB20B14C4B9F6847F0807741
:105340002EE09DF8123000978DF80D309DF8113049
:105350000B208DF80E30294603223B468DF80C7049
:1053600000F0DEFB20B1414B9F6847F0007717E06B
:105370009DF8143000978DF80D309DF813300B20F8
:105380008DF80E30294603223B468DF80C7000F054
:10539000C7FB002800F0E080344B9F6847F040775F
:1053A000002F00F0D980204631493A4623E03046AC
:1053B0002946304AFDF7C4FD074678B120462E49FC
:1053C000FDF7B6FF424641204146FEF7B1FE0246D8
:1053D000002800F0C180204625490CE030462946CF
:1053E000264AFDF7ADFD002800F0B980042E4BD011
:1053F00020462349234AFDF79BFFB7E0FB850008C1
:105400001986000842860008648600086A8600083B
:1054100089860008A1860008C3860008DB8600088C
:10542000E4860008138700082887000847870008DB
:10543000479200086C87000886870008A587000847
:10544000B8870008D1870008D4870008F3870008D0
:1054500016880008348800088980000856880008EB
:105460007E8800088E88000896880008F41C0020BA
:10547000BB880008CF880008D6880008F688000896
:10548000FA8800082C890008686801F029FC0646A3
:10549000A86801F025FC8046E86801F021FC00F2D4
:1054A000111000EB800533492046FDF741FF2046EF
:1054B00031490322FDF73CFF6D0020462F4932B2EF
:1054C000FDF736FFADB220462D490FFA88F2FDF701
:1054D0002FFF2A4620462B49FDF72AFF4021384658
:1054E000FEF70EFB402306A901F80C3D01223846C9
:1054F000FEF7DEFA03216320FEF702FB1FFA88F1B4
:105500006020FEF7FDFAB1B26120FEF7F9FA2946F4
:105510006220FEF7F5FA51204CF2D501FEF7F0FAC1
:10552000512004A9FEF7FCFABDF81050C5F30D0593
:10553000ADF810501DB1C820FCF7E2FCF0E7294699
:105540002A467220FEF7B4FA6420FCF7D9FC7320D7
:1055500029462A46FEF7ACFA20460B4904E02046CD
:105560000A4901E020460A49FDF7E2FE06B0BDE81F
:10557000F08700BFCB890008E2890008F68900089F
:105580000D8A0008248A0008C88800083B8A0008A1
:10559000768D000800000000000000000000000000
:1055A000064B1A684AB100221A60054B1B68DB07DC
:1055B00001D4FFF755BBFEF723BA7047B40C0020A7
:1055C000186C004000000000000000000000000017
:1055D00008B5164B164A9B694FF496709A61FCF712
:1055E0008FFC14481449012201F012FC134814499D
:1055F000022201F00DFC13481349042201F008FCBB
:1056000012481349082201F003FC124812491022E3
:1056100001F0FEFB11481249202201F0F9FB01F0D4
:10562000D7FB01460F48FBF7E3FDF8E70018002021
:10563000D08D0008BC0B0020881700209C0900209A
:105640009C170020D00E0020B01700200C0900206D
:10565000C4170020B80C0020D8170020080900202B
:10566000EC170020400800200000000000000000AF
:1056700008B5202383F31188FBF7CAFCFCF758F820
:105680000548FFF7A5F8FCF73BF8FBF7A9FC00235A
:1056900083F3118808BD00BF300C0020000000001B
:1056A0000EB403B503AA52F8041B0192FDF758FD8E
:1056B00002B05DF804EB03B070470000000000008A
:1056C000024B03491868FFF7EBBF00BF880B0020AF
:1056D000E18D000800000000000000000000000054
:1056E000024B03491868FFF7DBBF00BF880B00209F
:1056F000F08D000800000000000000000000000025
:10570000024B03491868FFF7CBBF00BF880B00208E
:10571000008E0008000000000000000000000000F3
:10572000024B03491868FFF7BBBF00BF880B00207E
:105730000F8E0008000000000000000000000000C4
:1057400038B50B4C0B4B226832B118680A49FFF789
:10575000A7FF0023236038BD084A18681268D307E2
:1057600054BF07490749FFF79BFF0023236038BD5B
:10577000B40C0020880B0020208E0008186C00401C
:105780002F8E00083F8E000800000000000000007F
:10579000012208B50B4B1A600B4B1B6813F0010F6D
:1057A0000A4B186804D10A49FFF77AFFC82004E0C1
:1057B0000849FFF775FF40F6B830BDE8084001F032
:1057C0004FBB00BFB40C0020186C0040880B0020B9
:1057D0004E8E00085F8E00080000000000000000F0
:1057E00002210A4B0A4A18680A4B50601B6893FB57
:1057F000F1F382F82830084B1968D37B11B143F0DC
:10580000040301E023F00403D37370476412002003
:10581000900B0020601200206812002000000000A1
:10582000044B5A7A044B0AB1012201E04FF4803252
:105830001A617047900B0020000801400000000032
:10584000054A0428D37B03F0FC0308BF43F001039F
:10585000D373FFF7E5BF00BF900B002000000000EE
:1058600002280B4B03D1DA7B22F0080204E0032864
:1058700003D1DA7B42F00802DA731B7A044A5B0731
:1058800042BF537A43F004035372FFF7C9BF00BF0E
:10589000900B00200000000000000000000000004D
:1058A0000A4B18B9DA7B42F0100204E0012803D158
:1058B000DA7B22F01002DA731B7A044A9B0742BF9C
:1058C000537A43F002035372FFF7AABF900B0020F4
:1058D0000B4B13B518681C4628B190F820300F2BDD
:1058E00001D1FCF735FA074B4FF49D6100933B2241
:1058F000054B0648FCF71CFB206002B010BD00BF42
:1059000098120020C08D000801360008A012002067
:1059100008B5064B06491868064B1A6801321A602A
:10592000FFF7BEFEBDE80840FFF7D2BF880B00209E
:10593000718E00083C0800200000000000000000FC
:105940000148FCF7BDB900BFC00B002000000000FB
:105950001F4C08B526461F4B1F4A9B691F4D9A6175
:10596000202383F31188FBF75BFBFBF7E9FF4AF683
:10597000AA226B681A60FBF73BFF4FF4FA70FCF742
:10598000BFFA2368002BEBD0154A13680BB1013B1B
:1059900013601368002BE3D13360FEF741FC202332
:1059A00083F31188FBF73CFBFBF7CAFFFBF7C8FC4E
:1059B0000C48C3680BB1FBF7D3FC0A484FF496714F
:1059C000094A0023FBF7ECFCFEF7EAFBC8E700BF3F
:1059D0006812002000180020928E0008D80F0020C6
:1059E000601200204C120020513A00080000000014
:1059F00008B5202383F31188FBF712FBFBF7A0FF08
:105A00000448FEF7E5FEFBF7FBFCBDE80840FFF7A6
:105A1000EFB900BFC00B0020000000000000000034
:105A20002DE9F843FFF714F9002862D0FBF798FF3F
:105A300000234FF02008304C304FA3602360656B8B
:105A4000FDF70EF9B7F826901FFA89F909F1320629
:105A5000B6B2C9EB060688F31188FBF7E1FAFBF74B
:105A60006FFF2B8B9B0704D42B8803F400739BB22E
:105A700043B1FB8C9BB2C9EB0303B34237DAFDF7AA
:105A8000EFF8E8E71E49A360E1632A21A3642364D9
:105A9000E36563651B4B616423661B4B1B496366AF
:105AA0000123E1641A4940222165292184F8383014
:105AB0002B88228423F480731B041B0CA1652B808C
:105AC000AB8823F400631B041B0CAB802A81AB88DA
:105AD0009BB243F4C063AB802B889BB243F48063DA
