:020000040800F2
:1000000000040020B10E0008F1200008F1200008D3
:10001000F1200008F1200008F1200008F12000087C
:10002000F1200008F1200008F1200008910E0008DE
:10003000F1200008F1200008F12000081127000835
:10004000F1200008F1200008F1200008F12000084C
:10005000F1200008F1200008912300086123000826
:100060003123000801230008D1220008B120000834
:1000700001250008C124000881240008412400084B
:1000800001240008C1230008F1200008F120000825
:10009000F1200008F1200008F1200008612200088A
:1000A000F1200008F1200008F1200008F1200008EC
:1000B000F1200008F1200008F1200008F1200008DC
:1000C000F1200008F1280008C1270008F1200008ED
:1000D000F120000881250008F1200008F120000827
:1000E000E1210008A121000861210008F120000899
:1000F000F1200008F1200008F1200008F12000089C
:10010000F1200008F1200008F1200008F12000088B
:10011000F1200008F1200008F1200008F12000087B
:10012000F1200008F1200008F1200008F12000086B
:10013000F1200008F1200008F1200008F12000085B
:10014000A84A4FF0FF31136900232DE9804811615F
:100150001361D068D160D360D169944641F0805179
:10016000D161D1690C2641F00061D1611A469E48E7
:100170009E4C01688DB041F4807101609C490B6018
:100180009C4906FB03F000590025026041F833202A
:100190000133072BF5D14FF0FF3A974ADFF8C892A9
:1001A000C2F804A0DCF81820DFF8C0B242F07D02EB
:1001B000CCF818204FF48052CDF80CC0C9F80C20B0
:1001C0008E4A8F49C9F8042044F24242C9F80020FF
:1001D0004FF41042CBF80C208A4A0126CBF80420B9
:1001E000894A8A4FCBF8002002F18842A2F50052DA
:1001F000CD604A604FF044320A60C1F80C54C1F837
:100200000424C1F80024C1F80C58C1F80428C1F82E
:1002100000287F4ADFF8588202F10C011161D16099
:100220007C49166051637C495560D1620C39556137
:10023000D56111633A467949C8F8045042F8041B65
:100240007A6007F1300107F10C02C8F80060BE6067
:100250003A61796339631021FA6007F154023A6216
:100260007A62BA6107F16402FA617A64BA64FA6385
:1002700007F174023A646A4A6A48FA646A4AB963DE
:100280007D617A674268BD6242F03002FF623F657D
:10029000426041F63F70654A654C5060956013605E
:1002A00080224FF6FF00634B83F823209D60DA68BD
:1002B0001040614A02436148DA60C26842F08072CD
:1002C000C2605F480268324302602022D97783F817
:1002D00022205C4B06A803F11C025B609D601A6241
:1002E000DA61A3F824A00022DD849D621B605B61BB
:1002F0001B6102930023CDF818A0CDE90A230795CE
:100300000895099500F08CFE06A800F051FE029BAE
:10031000089A4D499A624D4A002022F007020A606D
:100320004B4A4C4922F007020A604B4A4B49956000
:10033000116002F11001516111610021C3E9120144
:10034000C3E9180103F17C01D560956199674022EA
:1003500002211D635D63C3F838A0DD631D645D6425
:10036000C3F850A05D659D65DD655A67A26084F89D
:10037000201084F821502264E563A563A56184F808
:10038000226023615A695C616261146104F1280290
:10039000A26204F12C022263E26204F16002E261D3
:1003A00000230022C4F848A0C4E91623E5642565AB
:1003B000656504F1480000F033FE029B284A9C6109
:1003C000E261DA6E84F82060BA4644461D4632B9CE
:1003D000D3F87080DDF80CC0B8F1000F4AD0214886
:1003E000A7E000BF0010024000700040407B000802
:1003F000201800205C17002000000240A4242444A0
:100400000010014044EE482444644444AC0D0020F4
:100410009817002000580040707B0008707A000890
:1004200001210008000001400038014010E000E018
:10043000400D002000ED00E00003FA05F0ED00E0C3
:10044000001000E0C812002040110020D31E002040
:1004500000280020A40D002020100020D119000841
:1004600000040020B07B000800080140000C01409F
:10047000F8080020CDF80CC088F3118862B6B04AA5
:100480009B69F8219A61AF483246CDF80080AE4BA7
:1004900001F076FDAD4B9E605B601B60AC4B9E60D7
:1004A0005B601B6005F094FD04F02AF94FF4B47111
:1004B000CDF800807022A74BA74801F061FD5322C0
:1004C000A64BA74E1A7002225A70042202939A7009
:1004D00002F09EFD012818BF0220029BD870D9F8B7
:1004E0000820DBF80810C2F3002211F4804F0CBF83
:1004F0001021002141EAC20242F04002DA73326860
:100500004FF4F471120A1A729648CDF80080462210
:10051000954B01F035FD202383F3118800F090FD09
:1005200001F036FABB68DDF80CC05A1E012A02D968
:100530008E4800F08DFD012B0DD1C022DCF8183063
:1005400043F48043CCF81830894B83F825232022CC
:10055000C3F884215A602222DAF874304FF040093F
:100560001A814FF0010B42F22C1200274FF00208C3
:10057000A3F81090A3F814B09A811F801A889B8862
:10058000CAF8088001F04CF900F042FDAA692B6816
:1005900092689B689A4201D27648CAE787F311882D
:1005A000754B7648DFF814A25A467549CAF80030F0
:1005B000006005F02DFF734B734A1F60734B1B6087
:1005C000734B1B60734B1B60734B1B60734B1B6047
:1005D000734B1B60734B9B68C3F380331360724B88
:1005E0009B68C3F300235360202383F3118800F03A
:1005F00027FD01F0CDF9236857465A1E012A01D97B
:100600006A4896E76A496B4A012B516041D16022E2
:100610008021574B4FF4807E83F806234FF40070FF
:10062000C3F880914FF4000CC3F8009083F80723BF
:10063000C3F8801119604FF4806183F80823C3F870
:1006400080E1C3F800E083F80923C3F88001186053
:1006500083F80A23C3F88011196083F81723C3F8BD
:1006600080C1C3F800C083F82823C3F884E1C3F82D
:1006700004E083F80123C3F88081C3F8008083F885
:100680002923C3F88401586083F82A23C3F884110E
:100690005960002201214FF00F0BD4F804A0464B03
:1006A0005AF832C01CF0040F00F08A800F2A17D8C5
:1006B00022F0030000F1804000F5803002F00308D2
:1006C000D0F808E04FEA88080BFA08F92EEA090981
:1006D000CCF3031E0EFA08FE49EA0E09C0F8089092
:1006E000986801FA02FE1CF0010F14BF4EEA0000E8
:1006F00020EA0E009860D86801FA02FE1CF0020F92
:1007000014BF4EEA000020EA0E00D8600AEBC200D7
:10071000406850B1186801FA02FE4EEA0000186005
:10072000586820EA0E00586067E0586801FA02FE37
:100730004EEA00005860186820EA0E0018605CE07D
:10074000507A000848100020710E0008280E002082
:100750002C0D0020E168000800090020F80C0020A2
:10076000186C0040080B0020F1640008407A000873
:1007700000E100E0A07B0008AC0D0020F40C00209C
:10078000740A0020240E00204C110020240D0020AB
:10079000000B0020700A002040100020680A002092
:1007A0006C0A0020000C014000080140107C000889
:1007B000A07A0008F808002000040140F00C002096
:1007C00001FA02FC6FEA0C00D3F800E000EA0E0E1A
:1007D000C3F800E0D3F804E000EA0E0EC3F804E02A
:1007E000D3F808E000EA0E0EC3F808E0D3F80CE0F6
:1007F00000EA0E00D860C3F814C00132132A7FF457
:100800004FAF4FF00208C4F8008001F009F800F083
:10081000FFFBAA692B6892689B689A4201D27548CF
:1008200087E64FF0000989F31188734842467349FF
:1008300005F0EEFD72487349042205F0E9FD7248A7
:100840007249082205F0E4FD71487249102205F052
:10085000DFFD71487149202205F0DAFD70487149C9
:10086000402205F0D5FD704B70491B68424600934D
:1008700038680127042305F08BFE6D4C6D4B276013
:100880006360202383F3118800F0DAFB01F080F825
:1008900045F2555263681A6004225A604FF47A7226
:1008A0009A604AF6AA221A604CF6CC421A60C4F842
:1008B000008000F0C5FF604BCDF800905F484FF41A
:1008C0008471424601F05CFB5D4B5E4C9B6884F892
:1008D0000090DB0512D53227A046207878B9014672
:1008E000024602F065FB18B9012388F8003002E0E7
:1008F000052001F02DFB013FEFD100E027702378A8
:1009000053B10023504A514813704FF4F4710093CF
:1009100075224F4B01F034FB00224E4B1A603368B6
:1009200003F0F003502B02D003F0DAFC05E003F0F3
:10093000D7FA00B1012003F0DBFA4FF000630A267A
:100940003F4A136105F074FF06A803F099F838BB1D
:10095000BDF81830B3F5017F02D306F009F827E09F
:100960000DF1150003F094F8D0B9522008210DF1D3
:10097000160206F0D5FC98B99DF8150003F008FCA6
:1009800070B99DF81500BDF8161003F099FB38B941
:10099000382002214FF4017206F062FD0028DCD0FD
:1009A00005F0E6FF4FF4FA7001F0D2FA013EC9D12A
:1009B0000222294B1A6022780AB101221A6001F042
:1009C000AFFAAB691A6C996891424FF00C0201D0F2
:1009D0000B2900D89A601A6400F002FD00F0C0FFF5
:1009E00005F0EEFE05F0F4FC01461C4800F0F0FBBB
:1009F000F8E700BF907A0008240D0020880A002044
:100A0000000B00209C0A002040100020B00A0020AB
:100A1000700A0020C40A0020680A0020D80A0020BA
:100A20006C0A0020EC0A002000080020B57B0008BA
:100A30004411002000300040416800085811002097
:100A400000080140A80D0020A00D0020380E002055
:100A5000412E0008280D0020380D00200408002039
:100A60002DE9F04FC1F80CD0D0F80CD0BDE8F08FD4
:100A700000F0D6FE00F0CCFA002383F3118828465C
:100A8000A04701F05DFA00F0DBFA00F081FF00F012
:100A9000FFFB00F0C5FE00F0BBFA00DFFEE7000040
:100AA000D0400B1CD1409C46203AD34018435242C0
:100AB00063469340184370470000000000000000A8
:100AC0004BB942B9002908BF002802D04FF0FF31CE
:100AD000084600F00DB882B0EC462DE9005000F059
:100AE00027F8DDF804E002B00CBC704700000000FD
:100AF00002B54FF0080009F0B1FD02BD0000000092
:100B00002DE9F04198461446069D06460F4600F032
:100B100027F8A4FB0023864604FB01F4B61A00FB69
:100B20000844234467EB0307C5E90067BDE8F0818B
:100B30002DE9F8431746804689461D46089E00F079
:100B4000BFF800FB05F3A0FB074507FB0137B8EB37
:100B500004043D4469EB0505C6E90045BDE8F8839A
:100B600000292DE9F04FA2BF804689464FF0000EC4
:100B7000C0F29A80002BA4BF10461946C0F28E80A6
:100B80008945444608BF80454D463CBF00200021B2
:100B900067D3B1FA81F2002976D0B9FA89F3B9F1B5
:100BA000000F6DD0D31AA3F1200C01FA03F700FA5D
:100BB0000CF2C3F1200A174320FA0AF2174300FA95
:100BC00003F6B9451A4608BFB0453CBF00200021D6
:100BD0000CD34FF0010B2BFA0AF40BFA0CF1214362
:100BE000B8EB060469EB07050BFA03F0002B38D0CD
:100BF0007F084FEA360609E0A41B65EB07052419B8
:100C00006D41013445F10005013B07D0BD4208BFED
:100C1000B442F1D224196D41013BF7D1C2F1200752
:100C200024FA02F305FA07F7A2F120063B4325FA5E
:100C300006F6334325FA02FCA2F1200800190CFA4B
:100C400002F703FA08F8C2F1200C47EA080723FA72
:100C50000CFC03FA02F6694147EA0C07801B61EBC2
:100C600007011EF100024FF0000318BF0122544299
:100C700063EB43056040694080185941BDE8F08F3F
:100C8000B8FA88F320338DE7B0FA80F303F120023D
:100C9000B9FA89F3B9F1000F84D1F1E750426FEA54
:100CA0000E0E63EB43016BE7D0F100084FF0FF3EFF
:100CB00061EB41095EE700BF00000000000000009A
:100CC0002DE9F0410D469D42044608BF944210466E
:100CD000194667D3B3FA83F2002B6BD0B5FA85F3CC
:100CE000002D63D0D31AA3F1200201FA03F7C3F158
:100CF000200C00FA02F10F4320FA0CF10F4300FA26
:100D000003F6BD429E4608BFB4423CBF002000210E
:100D10000CD34FF00108A41B28FA0CFC08FA02F1CE
:100D200041EA0C0165EB070508FA03F0002B3BD004
:100D30007F084FEA360609E0A41B65EB0705241976
:100D40006D41013445F10005013B07D0BD4208BFAC
:100D5000B442F1D224196D41013BF7D1CEF120020A
:100D600024FA0EF605FA02F2AEF1200325FA03F397
:100D700016431E4325FA0EF7AEF1200C001907FAB0
:100D80000EF306FA0CFCCEF1200743EA0C0326FA18
:100D900007F706FA0EF269413B43801A61EB030143
:100DA000BDE8F08100200021BDE8F081B4FA84F3B1
:100DB000203397E7B0FA80F303F12002B5FA85F308
:100DC000002D8FD1F2E700BF0000000000000000FE
:100DD0000B4610B51B688B4204D09C688268944215
:100DE000F8D219464B68016043604860186010BD36
:100DF0000D4BC2685B6830B5D0E904458B600132A9
:100E0000C26082689B1A4268E41845F1000593426B
:100E10008360C0E9044501D9436030BD0268934254
:100E200038BF036030BD00BF001000E000000000CC
:100E30000B4A936FD18C103323F8101C916943F83F
:100E40000C1C416A43F8081C90F8201003F8041C9D
:100E500002F27C418B4228BF02F17C03936770470A
:100E6000C812002000000000000000000000000088
:100E7000024B034A9B699A6130BFFDE7C81200200C
:100E800020780008000000000000000000000000C2
:100E9000EFF30983203383F30988002383F3118858
:100EA000704700000000000000000000000000008B
:100EB00072B62E4981F30988022383F31488BFF3A5
:100EC0006F8F08462A4B1A6842F001021A601968AF
:100ED000274A8907FBD5116801F0F901116000214B
:100EE00051605968224A11F00C0FFAD1516841F44F
:100EF00000215160116841F0807111601A689201FF
:100F0000FCD51C4A1A4B4FF055315A60102203F59C
:100F100080531A60184B194A934202D243F8041BBB
:100F2000FAE74FF05532164B834202D243F8042BB6
:100F3000FAE7144A144B15498B4204D252F8040FB5
:100F400043F8040BF8E70021114B124A934202D2F6
:100F500043F8041BFAE7104C104DAC4203D254F88E
:100F6000043B9847F9E7FFF7EBF800BF00080020C3
:100F7000001002400064080000000020000400206F
:100F8000000400207CA6000800080020580800206B
:100F9000F8080020CC1E0020400100084001000895
:100FA000024A136B01331363704700BFC81200205D
:100FB0000E4B30B55A680E4BC1689C6A836801318C
:100FC000D31A1B1B4268D0E90445E41845F100051B
:100FD0009342C1608360C0E9044501D9436030BDDC
:100FE0000268934238BF036030BD00BF001000E0CC
:100FF000C8120020000000000000000000000000F7
:101000000148FFF7D5BF00BF181300200000000003
:101010000148FFF7CDBF00BF001300200000000013
:10102000014B5B6883607047001000E00000000027
:101030000148FFF7F5BF00BF1813002000000000B3
:101040000148FFF7EDBF00BF0013002000000000C3
:101050001FB5044672B6484B484DA866186048480C
:1010600002F0E6FF474803F0ABFD6146464803F057
:10107000A7FD6946454803F0A3FD7146444803F0C7
:101080009FFD7946434803F09BFD434803F098FDDC
:101090000146424803F094FD0946404803F090FDA4
:1010A00011463E4803F08CFD19463D4803F088FD8B
:1010B0003C4803F085FD2146384803F081FD294670
:1010C000364803F07DFD3146344803F079FD39465A
:1010D000334803F075FD344803F072FD41462F4854
:1010E00003F06EFD49462D4803F06AFD51462B483A
:1010F00003F066FD59462A4803F062FD21462B485D
:1011000003F05EFD2A4802F093FF2A4802F090FFA8
:10111000294E2C69A268E368009294F822202146A7
:10112000013A019294F82020244856F82220029295
:10113000A26903921A6A03F043FD2469AC4201D00C
:10114000002CE7D16E461E483146AA6903F038FDEF
:1011500000241C4856F8241003F032FDE31E9B07C0
:1011600002D1194803F02CFD0134202CF1D117488D
:1011700003F026FDFEE700BF146C0040C8120020FB
:101180002578000835780008417800084F78000875
:101190005C7800086A7800087778000845780008CD
:1011A0006E7800087F780008877800088F7800083C
:1011B0009B780008A578000830760008DD780008E4
:1011C0000679000823790008509D00082C79000852
:1011D000F8B50D46064610B10024012707E00A487D
:1011E000FFF736FF07FA04F22A4203D10134002D3B
:1011F000F8D108E056F82430002BF0D0204625EA3C
:1012000002059847F2E7F8BD1078000800000000DA
:1012100038B51A4B1A689C6911681D464B601960F5
:1012200001219A6182F82010002284F82020A2680F
:101230001B6899689142FBD85A6823606260204617
:101240005C601460FFF7F4FD6B6BA969013304F176
:10125000480048316B63FFF7CBFDEFF30983E26988
:10126000243B9A4202D90648FFF7F2FE034B21467F
:101270009869BDE83840FFF7F3BB00BFC8120020F3
:101280004479000800000000000000000000000099
:10129000FFF7BEBF000000000000000000000000DB
:1012A00008B5054BDA6E12B91B6F002B02DC034840
:1012B000FFF7CEFE08BD00BFC8120020537900081A
:1012C00070B50646144CFFF7EBFF2368A5691A6852
:1012D00085F82060226054600122284683F820208F
:1012E000A361FFF7A5FD636BA169013305F1480018
:1012F00048316363FFF77CFDEFF30983EA69243B20
:101300009A4202D90548FFF7A3FEA0692946BDE825
:101310007040FFF7A5BB00BFC81200204479000849
:1013200008B5054BDA6E002A02DB1B6F002B02DCCE
:101330000248FFF78DFE08BDC81200205979000849
:1013400010B50446FFF7ECFF14B90B48FFF780FE19
:10135000E368002BF9D0236821891A890A441A818D
:101360006268136023685A6000234FF6FF72E360DF
:10137000024B9A8410BD00BF30770008C8120020CD
:10138000F8B505460C4616461F46FFF7C9FF0DB1D6
:1013900006B114B90D48FFF75BFE0D4A2F61D36902
:1013A000EE601989A14203D2641AA4B21B68F8E75F
:1013B00059682B6069605D600D602C8119890C1B78
:1013C0001C814FF6FF739384F8BD00BFC076000800
:1013D000C812002000000000000000000000000013
:1013E00008B5FFF75DFFFFF79BFF064B1A689B6987
:1013F00092689B689A4203D9BDE80840FFF708BF8E
:1014000008BD00BFC812002000000000000000005E
:1014100070B586B00E460546FFF742FF4FF6FF73E4
:101420009E420D4C10D0A36931460C4A01A8FFF72B
:10143000A7FF2846FFF744FFFFF772FF049B33B175
:1014400001A8FFF77DFF02E02846FFF739FFA369F7
:10145000586A06B070BD00BFC8120020B11700085E
:1014600049B1064B42689B6918605A60436013603B
:101470000420FFF7CDBF4FF0FF307047C8120020A7
:1014800010B50446FFF74CFF14B90C48FFF7E0FD18
:1014900094F82030002BF8D00F2BF6D00023A26850
:1014A00084F82030064B1B6899689142FBD25A6839
:1014B0002360626020465C60146010BD0078000804
:1014C000C812002000000000000000000000000022
:1014D0002DE9F84306460F46FFF722FF0EB91A48DA
:1014E00015E034684FF0000803E02269134207D189
:1014F0002468B44225D0E3683B43E360002FF4D175
:101500006568D4F80890FFF70BFF15B90F48FFF78F
:101510009FFDAB6B95F8202049EA03030A2AAB63D1
:1015200003D16A6A134206D1E2E70B2AE0D16A6A64
:1015300013409342DCD1C5F824802846FFF7A0FF72
:10154000D6E7BDE8F88300BF50770008D0770008E1
:1015500070B50546254B9E69FFF7A2FE15B92448D4
:10156000FFF776FDAC68002C3BD0B368A2689A42C6
:1015700028D2A36094F82030062B0ED0072B18D069
:1015800003BB012384F8203094E80C001A60226821
:1015900020465360FFF774FF14E094E80C001A60D3
:1015A000226820465360616AFFF712FC636A9C68F8
:1015B000DBE794E80C001A60226820465360616AF9
:1015C000FFF706FC30462946FFF702FC756206204D
:1015D000FFF776FEAB68B342C1D1F36BAB42BED12D
:1015E00070BDF36BAE60EB60F56370BDC812002098
:1015F000C0770008000000000000000000000000AC
:1016000008B5036873B193F82020032A02D0064876
:10161000FFF71EFD0022026059621846BDE808402F
:10162000FFF72EBF08BD00BF907600080000000045
:1016300008B50E4B9C69606204F12805A06AA842B7
:1016400004D00368A362FFF71BFFF7E794F821308B
:101650000F209B0701BF226963691A61226908BFD5
:101660005361FFF72DFE0248FFF7F2FCC81200207D
:10167000007A0008000000000000000000000000E8
:1016800070B504460D46FFF70BFE6562154DA26866
:10169000A86983689A4204D82046BDE87040FFF7E5
:1016A000EFBEFFF7EDFE0123064684F82030AC6163
:1016B000FFF7BEFB6B6B06F14800013304F14801F4
:1016C0006B63FFF795FBEFF30983F269243B9A42C2
:1016D00002D90548FFF7BCFC20463146BDE8704002
:1016E000FFF7BEB9C81200204479000800000000CE
:1016F00008B5202383F31188064AD36E002B01DD41
:10170000116F11B10448FFF7A3FC013BD36681F3CD
:10171000118808BDC81200205F7900080000000091
:1017200008B5202383F31188064AD36E002B01DB12
:10173000116F11B10448FFF78BFC0133D36681F3BD
:10174000118808BDC812002064790008000000005C
:1017500008B5064BDA6E002A02DD1A6F002A02DC99
:101760000348FFF775FC00221A6708BDC812002065
:10177000697900080000000000000000000000007F
:1017800008B5064BDA6E002A01DD1A6F12B1044863
:10179000FFF75EFC01221A6708BD00BFC8120020D7
:1017A0006E7900080000000000000000000000004A
:1017B00038B50446202383F31188FFF739FCFFF77F
:1017C000DFFF94F820300025072B1AD8DFE803F05C
:1017D0000419190B140E1914FFF7BAFFFFF710FCC8
:1017E00085F3118838BD636A1D600AE0656AFFF7FA
:1017F00097FDAB680133AB6094E80C001A60226877
:1018000053604FF0FF3320466362FFF739FEFFF766
:101810009FFFFFF7F5FB002383F3118838BD00001D
:1018200008B5054BDA6E12B9196F002902DC0348BE
:10183000FFF70EFC1A6708BDC81200207379000874
:1018400008B5FFF7EDFFFFF7E3FB074B9A691B684D
:1018500092689B689A4202D20448FFF7F9FB002382
:1018600083F3118808BD00BFC8120020107700085C
:1018700008B5FFF7D5FFFFF7CBFB074B9A691B684D
:1018800092689B689A4202D20448FFF7E1FB00236A
:1018900083F3118808BD00BFC8120020F07700084C
:1018A00008B5FFF7BDFFFFF7B3FB074B9A691B684D
:1018B00092689B689A4202D20448FFF7C9FB002352
:1018C00083F3118808BD00BFC8120020D07600083D
:1018D00008B5FFF7A5FFFFF79BFB074B9A691B684D
:1018E00092689B689A4202D20448FFF7B1FB00233A
:1018F00083F3118808BD00BFC812002000770008DC
:1019000008B5FFF78DFFFFF783FB074B9A691B684C
:1019100092689B689A4202D20448FFF799FB002321
:1019200083F3118808BD00BFC8120020F0760008BC
:1019300008B5FFF775FFFFF76BFB074B9A691B684C
:1019400092689B689A4202D20448FFF781FB002309
:1019500083F3118808BD00BFC8120020A0770008DB
:1019600008B5FFF75DFFFFF753FB074B9A691B684C
:1019700092689B689A4202D20448FFF769FB0023F1
:1019800083F3118808BD00BFC8120020B07600089C
:1019900008B5054BDA6E0AB91A6F12B10348FFF7A2
:1019A00057FB01221A6708BDC81200207879000889
:1019B00008B5202383F31188FFF742FBBDE80840F8
:1019C000FFF7E6BF0000000000000000000000007C
:1019D00010B52023044683F31188FFF731FBFFF78E
:1019E000D7FFFFF79DFC1049104A08681268E31DF5
:1019F00023F00703121A9A4223BF1B180B600446F8
:101A00000024FFF70DFFFFF703FB094B9A691B68E2
:101A100092689B689A4202D20648FFF719FB00239E
:101A200083F31188204610BD40110020A40D002032
:101A3000C8120020B077000800000000000000007D
:101A400008B5202383F31188FFF7FAFABDE80840B0
:101A5000FFF79EBF00000000000000000000000033
:101A60002DE9F04704460F469946D0F81C801546EC
:101A700012B91A48FFF7ECFAFFF7E2FF0026FFF76A
:101A80004FFCA26842B920464946FFF7E9FC00280E
:101A9000F5D0FFF705FF1DE06369013AA2605A1C0B
:101AA00062613A7807F1010A1A70236962699A4201
:101AB00024BFE3686361B8F1000F01D02046C0473E
:101AC000FFF7EEFE013D06F1010603D0FFF7B8FF78
:101AD0005746D4E73046BDE8F08700BF207A0008BB
:101AE0003030FFF7BDBF0000000000000000000024
:101AF00030304FF6FF73FFF7B3BF00000000000067
:101B0000F8B504460E461746FFF79AFFFFF708FCA4
:101B1000A3684BB920463946FFF7A2FC051EF5DA4B
:101B2000FFF7BEFE2846F8BD013BA36063695A1C5F
:101B300062611E70236962699A4224BFE36863612F
:101B4000E3690BB120469847FFF7AAFE0020F8BDD5
:101B50003030FFF7D5BF000000000000000000009B
:101B600030304FF6FF72FFF7CBBF000000000000DF
:101B70002DE9F843044688469946C669174612B9C6
:101B80001748FFF765FAFFF75BFF00250EB1204607
:101B9000B047FFF7C5FBA06840B920464946FFF7AC
:101BA0005FFC0028F5D0FFF77BFE15E0A369013844
:101BB0005A1CA261A0601B7808F805302369A2694D
:101BC00001359A4224BFE368A361FFF769FEAF4283
:101BD00002D0FFF735FFD9E72846BDE8F88300BFFC
:101BE00080770008000000000000000000000000F6
:101BF0000C30FFF7BDBF0000000000000000000037
:101C00000C304FF6FF73FFF7B3BF00000000000079
:101C100070B504460E46FFF713FFE36943B1204653
:101C2000984705E020463146FFF71AFC051E0FDBFA
:101C3000FFF776FBA368002BF4D0A269013BA360F9
:101C4000531CA36115782269934224BFE368A36102
:101C5000FFF726FE284670BD0000000000000000CF
:101C60000C30FFF7D5BF00000000000000000000AE
:101C70000C304FF6FF71FFF7CBBF000000000000F3
:101C8000204B2DE9F0419E69054610B91E48FFF72B
:101C9000DFF9202383F31188FFF7D2F9FFF778FEED
:101CA000F46B002CF2D0A768B742EFD1AC42EDD173
:101CB000E668FE63FFF7F4FA2568A5421BD0D7F863
:101CC000408056B1FFF7ECFA3368B34203D09B680B
:101CD000984538BF9846F668F3E72B68C7F8088040
:101CE00023605C60EB6BA560E3602846EC633146E3
:101CF000FFF7C6FC01E00023AB60BDE8F041FFF751
:101D0000FFBD00BFC812002090770008000000004F
:101D100038B50446202383F31188FFF791F9FFF7C4
:101D200037FEFFF7BDFA0CB9174826E0A368226812
:101D3000002B02DBA242F7D101E0A242F4D0013B2A
:101D4000002BA360114D0CDAAB6905205C62626860
:101D50001C605A6063601360FFF7B2FAAB695C6A9B
:101D600000E00024FFF75CFDFFF752F9AA692B6839
:101D700092689B689A4202D20548FFF769F90023EE
:101D800083F31188204638BD70770008C812002000
:101D9000E0760008000000000000000000000000E5
:101DA0002DE9F04104464FF0200888F31188FFF731
:101DB00047F9FFF7EDFD94F822500DB950480FE0B8
:101DC000013D504EEDB284F82250FFF729FDFFF798
:101DD0001FF9B269336892689B689A4202D24A48F6
:101DE000FFF736F9002383F31188002D40F0868039
:101DF00094F820300F2B40F0818094F8213003F0CC
:101E00000303012B03D0022B56D0BDE8F0812269D9
:101E10006369A4F108061A612269536154F8085CE9
:101E200005F10807103588F31188FFF709F9FFF766
:101E3000AFFD2846FFF78CFBFFF762FD3B469E4255
:101E400006D35A6808321A44964201D22F48C7E78F
:101E5000BB421A6801D09E4227D90AB1964224D2C9
:101E600054F8040C44F8082C1E6000F1080154F8E2
:101E7000087C7218BA4201BF52681218083244F83E
:101E8000042C586808BF725800F10801194408BFB3
:101E900044F8082C8E420AD154F8042C024408322B
:101EA0005A6054F8082C1A6001E01346C7E7284628
:101EB000BDE8F041FFF7E4BE22696369676C1A610F
:101EC0002269536188F31188FFF7BAF8FFF760FDC4
:101ED000FFF726FA0FB90E4882E73B6823603C60A3
:101EE000FFF79EFCFFF794F8B269336892689B682D
:101EF0009A4201D2074873E785F31188BDE8F08163
:101F000040770008C8120020E077000880760008BB
:101F100070760008A07600080000000000000000B5
:101F200008B5202383F31188FFF78AF8BDE808403D
:101F3000FFF72EBD000000000000000000000000C0
:101F4000044608B5FFF7ECFF2046FFF771FB0000E1
:101F500010B50446FFF7E4FF14B90548FFF778F819
:101F600021460820FFF754FABDE81040FFF7F8BCFF
:101F7000107A0008000000000000000000000000CF
:101F80002DE9F0411746984604460D460246FF23C8
:101F900000F16006B24202D002F8013BFAE7324695
:101FA000552163199A4202D202F8011BFAE7FFF7A2
:101FB000B7FFFFF7B5F934B1E72D04D97F2F02D869
:101FC000B8F1000F02D11F48FFF742F8069B243DED
:101FD0006219E26044F8058053601B4B00251362D0
:101FE000022384F82030012384F82230174BA760A5
:101FF0005A69236162615C6104F1280384F821500D
:102000002764E563A563A5611461A36204F12C0351
:102010002363E3624FF0FF330022A364002304F143
:102020004800C4E91623E661E56425656565FEF7A9
:10203000F7FF20462946FFF723FBFFF791FC2046D8
:10204000BDE8F08120770008710A0008C81200205E
:10205000202383F311880F4B5B6813F4006315D0C2
:10206000EFF309834FF0807243F8042CA3F12002B0
:1020700082F30988084A11689269896892689142D6
:102080008CBF064A064A43F8082C704783F3118830
:10209000704700BF00ED00E0C8120020870A00086A
:1020A0009A0A000800000000000000000000000084
:1020B00008B5FEF775FFFFF733FB084B084A1968B0
:1020C00001F00F01596013680BB150689847FFF792
:1020D0000FFBBDE80840FFF7BBBF00BF0000024098
:1020E0005C1700200000000000000000000000005D
:1020F000FEE70000000000000000000000000000FB
:10210000034A93899BB243F080039381704700BFD9
:102110000038014000000000000000000000000046
:102120000B0710B5446B02D50948FEF791FF036B0E
:1021300019680A6822F00F020A60197A5A680F2398
:102140008B401360A3889BB243F40073A38010BD3F
:10215000507C0008000000000000000000000000AB
:1021600008B5FEF71DFFFFF7DBFA4FF480220748A2
:10217000074B12215A614368D3F894309847FFF710
:10218000B7FABDE80840FFF763BF00BFF8080020BA
:1021900000040140000000000000000000000000FA
:1021A00008B5FEF7FDFEFFF7BBFA4FF40032074813
:1021B000074B11215A614368D3F88C309847FFF7D9
:1021C00097FABDE80840FFF743BF00BFF8080020BA
:1021D00000040140000000000000000000000000BA
:1021E00010B5FEF7DDFEFFF79BFA1A4B5C6904F4AD
:1021F0007C425A61620504D517480A2143685B6D29
:102200009847230504D514480B214368DB6D984794
:10221000E00404D510480C2143685B6E9847A10484
:1022200004D50D480D214368DB6E9847620404D540
:1022300009480E2143685B6F9847230404D506487C
:102240000F214368DB6F9847FFF752FABDE8104053
:10225000FFF7FEBE00040140F80800200000000067
:1022600010B5FEF79DFEFFF75BFA174B5C6904F4AF
:1022700078725A61A30604D5144805214368DB6AC5
:102280009847600604D51148062143685B6B984760
:10229000210604D50D4807214368DB6B9847E2050A
:1022A00004D50A48082143685B6C9847A30504D508
:1022B000064809214368DB6C9847FFF719FABDE827
:1022C0001040FFF7C5BE00BF00040140F808002021
:1022D00008B5FEF765FEFFF723FA10220648074B04
:1022E00004215A6143685B6A9847FFF701FABDE829
:1022F0000840FFF7ADBE00BFF80800200004014011
:1023000008B5FEF74DFEFFF70BFA08220648074B0B
:1023100003215A614368DB699847FFF7E9F9BDE893
:102320000840FFF795BE00BFF808002000040140F8
:1023300008B5FEF735FEFFF7F3F904220648074B10
:1023400002215A6143685B699847FFF7D1F9BDE8FC
:102350000840FFF77DBE00BFF808002000040140E0
:1023600008B5FEF71DFEFFF7DBF902220648074B12
:1023700001215A614368DB689847FFF7B9F9BDE866
:102380000840FFF765BE00BFF808002000040140C8
:1023900008B5FEF705FEFFF7C3F901220648074B13
:1023A00000215A6143685B689847FFF7A1F9BDE8CF
:1023B0000840FFF74DBE00BFF808002000040140B0
:1023C00008B5FEF7EDFDFFF7ABF9084B1968C1F34F
:1023D00003610A065A60064A136B0BB1506B9847AB
:1023E000FFF786F9BDE80840FFF732BE0000024063
:1023F0005C1700200000000000000000000000004A
:1024000008B5FEF7CDFDFFF78BF9084B1968C1F34E
:1024100003510A055A60064A936A0BB1D06A98477D
:10242000FFF766F9BDE80840FFF712BE0000024062
:102430005C17002000000000000000000000000009
:1024400008B5FEF7ADFDFFF76BF9084B1968C1F34E
:1024500003410A045A60064A136A0BB1506A98474E
:10246000FFF746F9BDE80840FFF7F2BD0000024063
:102470005C170020000000000000000000000000C9
:1024800008B5FEF78DFDFFF74BF9084B1968C1F34E
:1024900003310A035A60064A93690BB1D069984721
:1024A000FFF726F9BDE80840FFF7D2BD0000024063
:1024B0005C17002000000000000000000000000089
:1024C00008B5FEF76DFDFFF72BF9084B1968C1F34E
:1024D00003210A025A60064A13690BB150699847F2
:1024E000FFF706F9BDE80840FFF7B2BD0000024063
:1024F0005C17002000000000000000000000000049
:1025000008B5FEF74DFDFFF70BF9084B1968C1F34D
:1025100003110A015A60064A93680BB1D0689847C4
:10252000FFF7E6F8BDE80840FFF792BD0000024063
:102530005C17002000000000000000000000000008
:1025400008B5FFF705F9FEF75BFD002383F311885B
:1025500008BD0000000000000000000000000000B6
:1025600008B5202383F31188FEF762FDBDE808401B
:10257000FFF706B9000000000000000000000000A6
:102580002DE9F0415D4CFEF70BFDFFF7C9F8666FD2
:10259000B7893588BFB2ADB2EB050BD5FFF7E0FFC9
:1025A000201D4FF40071FEF793FF4FF6FF63338059
:1025B000FFF7C6FFFFF7D4FFDFF84081A8062ED54E
:1025C000280713D015F0080F0CBF00218021EA075F
:1025D00048BF41F02001AB0748BF41F040016D0703
:1025E00048BF41F480714648FEF772FFFEF798FE3F
:1025F000B588FEF795FE6369EDB21BB9404804212A
:10260000FEF766FFFEF78CFEFEF78AFE236A626A1B
:10261000934240D1D8F81420002A3CD04FE0FFF775
:102620008FFF39061AD52A0618D5FFF799FFFEF74E
:1026300077FEFEF775FEA36C626C30489A4243D178
:10264000826B002A40D004300821FEF741FF27F0BA
:10265000C00343F04003B381FFF772FF6B0614D54C
:10266000FFF77EFFFEF75CFE626CA36C23489A4284
:1026700002D1836B002B3CD14FF6BF7327F040078C
:10268000BFB2B7813380FFF75BFFFFF731F8BDE8DA
:10269000F041FFF7DDBC6269013262615A1C2262BF
:1026A0001D70226AE3699A4203D3D8F81830C8F83B
:1026B0002030144803F054FD3588ADB27EE7104851
:1026C0008021FEF705FFF7E7A26B0C490132A263F8
:1026D0005A1CA26493F80080236C9A4201D3CB6BFE
:1026E0008B6409481FFA88F803F03AFDA6F80480C5
:1026F000B2E704301021FEF7EBFEBDE7AC0D002081
:10270000B00D0020B80D0020DC0D002000000000FE
:102710002DE9F047FEF744FC2024FFF701F884F38D
:102720001188FEF785FCFFF72BF8FEF7F9FDFEF7A1
:10273000F7FD1F4AD38C174601339BB2D38413464F
:1027400053F81C1F99421E4610D11A4A13680133D0
:102750001360FEF7FDFFFEF753FC002383F311889F
:10276000FEF7C6FFBDE8F047FFF772BC914625466D
:102770000B89013B0B81FC69B4F80880B8F1000FAC
:10278000E3D12368D4F80CA0C4F80C805E60C9F8CB
:102790001C30FEF7DDFFFEF733FC88F3118820695B
:1027A000D04785F31188FEF743FCFEF7E9FFE2E727
:1027B000C81200203C1800200000000000000000AB
:1027C00070B5464C636B9D8AFEF7EAFBADB2FEF72F
:1027D000A7FF05F45F43626B83F47F4383F0FF033D
:1027E0009382236B1868016821F00F010160187A49
:1027F00059680F2303FA00F00860E16A0E68306838
:1028000020F00F0030604868097A8B40036005F4BF
:1028100080739BB203B10123A360AB0548BFA368DB
:102820002E4844BF43F00203A36094F838308BB9BC
:102830006E051FD5938823F400731B041B0C938033
:1028400013889BB243F400731380836843F004033E
:1028500083600FE0938A23F480631B041B0C938234
:10286000036E13B1416D0139984700236365E36D31
:10287000013BE365280542BFA36843F00803A3605A
:10288000690442BFA36843F02003A360EA0442BF87
:10289000A36843F01003A3602B0442BFA36843F076
:1028A0004003A360A36893B1202383F31188FEF74C
:1028B000BFFBFEF765FF0A486FF00101FEF7A0FEBF
:1028C000FEF746FFFEF79CFB002383F31188FEF71B
:1028D0000FFFBDE87040FFF7BBBB00BF981700209B
:1028E000B4170020000000000000000000000000FD
:1028F0002DE9F041794EFEF753FBFEF711FF746BA3
:1029000096F83820238BB4F814809BB21FFA88F80D
:1029100047463546002A7ED148EA0343704A23F0F1
:102920007F43934219D006D8073A93420AD0013226
:10293000934217D06AE06B4A93422ED00232934200
:1029400038D063E0338C1A0A0AD003F0010343F055
:10295000F00302F00602134302E0338CC3F3470393
:10296000238253E0A38823F400731B041B0CA38071
:10297000F36A1A68136843F001031360A3889BB2DB
:1029800043F48053A3805368012B3FD8238823F45A
:1029900080631B041B0C238038E0A38823F400739E
:1029A0001B041B0CA380336B1A68136843F00103EC
:1029B00013602BE0238AF36A1B685D684DB1338C8A
:1029C00043F00103338423889BB243F4A063238044
:1029D0007DE0A38823F400731B041B0CA3802388D1
:1029E0009BB243F400732380202383F31188FEF706
:1029F0001FFBFEF7C5FE06F11C002946FEF700FE90
:102A0000FEF7A6FEFEF7FCFA85F3118818F00A0F10
:102A10005DD0238B5BE018F00A0F16D0316C19B132
:102A2000F36C0BB130469847696D2C4811B1036EB9
:102A300003B198470023A78AAB642B646B65238B93
:102A40006B6EBFB20BB12548984738060ED5EB6DBB
:102A5000296D5A1CEA65CB5C23826B6D01336B6573
:102A6000AB6D9A4222BF00221C4BDA6579060FD566
:102A70002B6CEA6B01332B64AB6C591CA964218A63
:102A8000D154AA6C6B6C9A4222BF0022134B9A64F9
:102A9000FA060DD5A78A2388BFB29BB243F0010383
:102AA0002380EB6C13B10D48016C984700232B6415
:102AB0007B050CD5A38A23F480631B041B0CA38223
:102AC0002B6E13B10548416D984700236B65FEF7E7
:102AD0000FFEBDE8F041FFF7BBBA00BF981700201A
:102AE0000800030082000700000000000000000052
:102AF00038B50B070446426B02D51A48FEF7A8FA10
:102B0000C36A1868016821F00F010160187A5968DA
:102B10000F2383400B6094F8385015BB938823F43F
:102B200080531B041B0C9380138823F480631B04C5
:102B30001B0C138013889BB243F400731380202373
:102B400083F31188FEF774FAFEF71AFE04F11C00F5
:102B50002946FEF755FDFEF7FBFDFEF751FA85F31A
:102B6000118838BD507C0008000000000000000003
:102B70000EB403B503AA52F8041B019200F018FB2F
:102B800002B05DF804EB03B07047000000000000E5
:102B9000002913B5044606DD19491A4A02B0BDE8FA
:102BA0001040FFF7E5BF1849184AFFF7E1FF20463C
:102BB0001749184AFFF7DCFF20461749174AFFF765
:102BC000D7FF20461649174AFFF7D2FF204616497D
:102BD000164AFFF7CDFF20461549164AFFF7C8FFF2
:102BE00020461549154AFFF7C3FF154B20460093B1
:102BF0001449154A154BFFF7BBFF02B010BD00BFCB
:102C00005C7C0008687C00086D7C0008807C000803
:102C1000897C00089C7C0008A67C0008B97C000820
:102C2000C17C0008D47C0008DE7C0008F17C000830
:102C3000067D0008197D0008437D0008567D0008C8
:102C40008C7D0008657D00087C7D0008887D00087B
:102C500010B510B91248FEF7FBF90121114C427A68
:102C6000236801FA02F21A42F4D023EA0202837ABC
:102C7000226003F01F04A14058090B4C203044F897
:102C80002010002103F1604303F5614383F8001332
:102C9000530601BF054A536923F00103536110BD78
:102CA000207C00082018002000E100E00010024015
:102CB00008B5FEF7B5FDFEF7ABF9074B9A691B683F
:102CC00092689B689A4202D20448FEF7C1F9002339
:102CD00083F3118808BD00BFC8120020B07D000832
:102CE000002970B5064602DD1149124A1CE0202376
:102CF00083F31188104DFEF7A3F9FEF749FEEC8C23
:102D0000FEF78EFDFEF784F9AA692B6892689B682E
:102D1000A4B29A4202D20948FEF79AF9002383F33B
:102D20001188304622460649BDE87040FFF720BFB3
:102D30005C7C0008957D0008C8120020407C0008DB
:102D40009D7D000800000000000000000000000061
:102D5000014903F0D5BA00BFC07D000800000000A3
:102D600042F6FC23984207B511D8400800F4FC5005
:102D7000094B42001A803F238DF80500000A8DF8A8
:102D8000060001A88DF8043003F0AAFA01E04FF024
:102D9000FF3003B05DF804FB6A1200200000000061
:102DA000B0F5FC5F07B50FD80A4B00F4FC50188053
:102DB00014238DF80500000A8DF8060001A88DF88F
:102DC000043003F08DFA01E04FF0FF3003B05DF8FE
:102DD00004FB00BF6E120020000000000000000095
:102DE000B0F5964F07B510D847F6F073094A03407F
:102DF000138015228DF8053001A81B0A8DF80420D8
:102E00008DF8063003F06CFA01E04FF0FF3003B0AC
:102E10005DF804FB681200200000000000000000C4
:102E200038B50D46FFF7BCFF04462846FFF7D8FF2C
:102E3000204338BD0000000000000000000000003A
:102E4000484B494A9B6983B59A61C820FFF780F8CF
:102E500003F0EEFC0221402001AA0B4604F0E8F941
:102E600058B902219DF80530402023F001038DF868
:102E7000053001AA0B4604F063FA3C4D3C4E03F0CA
:102E800077FD4CF61450FFF763F803F0D1FC2B7874
:102E9000002BF4D1374C3F20214603F029F910B91B
:102EA00023885B0023802388B3F5807F03D840F616
:102EB0008E50FFF755FF00232F4C2046238000F053
:102EC00017FE40B1204600F013FE20B14FF48060A1
:102ED00043F2381143E0294C06202146022204F037
:102EE00017FB0028CBD123881B0A13F00F02238085
:102EF00004D12349086808B10A6004E09B09022B49
:102F000004D1012A02D101F0D3F8B8E71D4F3846A9
:102F100000F01EFE0028B2D11B4C50202D2122466D
:102F200004F0FEF90028AAD13A88B4F900309A4298
:102F300007DC00F0D5FF20B1B368DB0501D401F058
:102F4000F7F9104C204600F0EBFD002897D10F4F09
:102F5000384600F0EDFD002891D138882188FFF730
:102F60005FFF8CE7C8120020D27D0008A00D002072
:102F7000000801406A120020621200206C1200203A
:102F80002008002064120020661200206012002039
:102F9000002808B507DD0868114600F0D1F8B0FA3E
:102FA00080F0400908BD002008BD000000000000BE
:102FB0002DE9F041124D07460E463F202946904626
:102FC00003F096F80F490446142003F091F80E49D7
:102FD0000443152003F08CF82B8820435B009BB240
:102FE0002B80B8F1000F01D0A8F8003017B1054BC5
:102FF0001B883B8016B1044B1B883380BDE8F081F1
:103000006A1200206E1200206812002000000000EA
:10301000054B1A6832B902221A60044A12780AB1C2
:1030200001221A6018687047380D0020A80D002092
:10303000431E002013F8012F0130002AFAD17047F7
:1030400003460244934202D003F8011BFAE770479B
:10305000F0B5002A6DD088426BD033D240EA01032C
:103060009F0716D080EA01039E0706D1032A04D9E0
:1030700001F00303C3F1040300E01346D21A441E17
:10308000CD1811F8016BA94204F8016FF9D103447E
:1030900000E00346940809D0A4000D1F1E1955F83E
:1030A000047F43F8047BB342F9D1214412F00302B8
:1030B0003FD0013B0A4411F8014B914203F8014F04
:1030C000F9D1F0BD8318114443EA0104A5071E4657
:1030D00015D083EA0104A40704D1042A02D901F01F
:1030E000030400E014460D46121B671A15F801EDA3
:1030F000FD4206F801EDF9D16442234421449608CB
:103100000DD01C4635460F4657F804ED013D44F8F6
:1031100004EDF9D16FF0030474432144234412F009
:10312000030206D0521A11F8014DD14203F8014DA5
:10313000F9D1F0BD00000000000000000000000018
:1031400030B5074C451E15F8010F11F8013B225C04
:10315000E35C9A4202D10028F5D100E0D01A30BDDC
:10316000E0810008000000000000000000000000F6
:1031700030B5024612F8013B43B10D4615F8014B3C
:1031800014B19C42FAD130BD1046F2E7184630BD6A
:10319000034670B51A460D4612F8016B15F8014B3F
:1031A0001CB1B442FAD11346F4E7181A70BD0000FE
:1031B0002DE9F04F0B4682464FF00A0987B0197887
:1031C0005E1C002900F0D78025290AD0DAF80030EB
:1031D00050469B6801929847019A93465A46334657
:1031E000EDE7597800252D2908BF9E1C37780CBFC4
:1031F00001230023302F18BF2027019308BF013679
:1032000016F8013BA3F13001C9B2092903D92A2BD1
:1032100004D11178043209FB0515F1E72E2B4FF08C
:1032200000010DD116F8013BA3F13000C0B209280E
:1032300003D92A2B04D11078043209FB0101F1E7EC
:1032400003F0DF004C2803D1307808B10346013683
:10325000632B07D1136806AC02F1040B04F80C3D94
:1032600020270BE056D84F2B56D00AD9552B58D0D3
:10327000582B61D0934606AC04F80C3D0DF10D00BF
:1032800013E0442B54D1116802F1040B0029B8BF9C
:103290002D234FF00A02BDBF8DF80C3049420DF1CD
:1032A0000D0003A802F03CFF03ACC4EB0008019B37
:1032B000C8EB050525EAE575B3B96D42A5B12178DE
:1032C0002D2909D1302F07D1DAF800205046926815
:1032D0009047013408F1FF38DAF800205046926830
:1032E000394690470135F7D1B8F1010807D4DAF82B
:1032F00000205046926814F8011B9047F4E7002D17
:103300003FF46CAFDAF8003050469B683946984776
:10331000013DF4E76F2B01D1082303E00ED9752B93
:1033200008D10A2302F1040B116803A81A46B9E771
:10333000492B06E0782B06D11023F3E7642BA2D0AB
:10334000692BA0D096E7732B94D10C4B146802F133
:10335000040B002C08BF1C4647F6FF73002908BF6A
:1033600019462046214403781BB1884201D0013020
:10337000F9E7202799E707B0BDE8F08FE47D000862
:103380000EB403B503AA52F8041B0192FFF710FF15
:1033900002B05DF804EB03B07047000000000000CD
:1033A0000EB403B503AA52F8041B0192FFF700FF05
:1033B00002B05DF804EB03B07047000000000000AD
:1033C0002DE9F04385B004460E461546FFF720FE72
:1033D000012804D020467E49FFF7E2FFF4E0022EE8
:1033E00061DD28687B49FFF7ABFE8146002840F08D
:1033F0008C804946686802F0EBFE49468046A86822
:1034000002F0E6FE032E074605D0E868494602F0C2
:10341000DFFE064601E04FF48036B8F5FC5F02D9C6
:1034200020466D49CCE0B7F5964F02D920466B494E
:10343000C6E0B6F5803F21D042F6FC239E4202D979
:1034400020466749BCE0FF2E02D820466549B7E018
:10345000424665493B4620460096FFF7A1FF1FFA0A
:1034600088F0FFF79DFC0546B8B2FFF7B9FC0543AD
:10347000B0B2FFF775FC45EA00020BE04246204679
:103480005A493B46FFF78CFF1FFA88F0B9B2FFF7A5
:10349000C7FC0246002A204603DA5549FFF780FFA1
:1034A00090E054498CE018D153492868FFF748FE52
:1034B000014650BB686802F08BFE42F6FC2398423E
:1034C0000546BDD8FF28C0D920464C492A46FFF7FB
:1034D00067FFA8B2FFF744FC74E0012E15D12F68F6
:1034E00047493846FFF72CFE464D10B9204646495D
:1034F00007E038464549FFF723FE064628B920462F
:103500004349FFF74DFF2E705CE000232046414900
:10351000ADF80830FFF744FF3A4B20461B780BB15B
:103520003D4900E03D49FFF73BFF03F081F90023EF
:1035300004AD25F8083D2946FE2002F0D9FD021E03
:10354000B2BF37493749BDF808202046FFF728FFAA
:1035500000232946FF20ADF8083002F0C9FD2046BF
:103560003149BDF80820FFF71BFF03A90DF10E023A
:103570000DF10A00FFF71CFD20462C49BDF80A207A
:10358000FFF70EFF20462A49BDF80C20FFF708FF81
:10359000BDF80E2020462749FFF702FF20462649A6
:1035A000FFF7FEFE20462549FFF7FAFE2046244994
:1035B000FFF7F6FE20462349FFF7F2FE2046224998
:1035C000FFF7EEFE03F0D4F905B0BDE8F08300BFCD
:1035D000EB7D0008A2890008107E0008317E0008FB
:1035E000537E0008887E0008B77E0008E67E00084B
:1035F000077F0008157F00081A7F0008207F000859
:10360000487F0008A00D00204E7F0008617F000861
:10361000687F00087C7F0008937F0008AF7F000868
:10362000CC7F0008F07F00080C800008288000088C
:10363000438000085E800008798000088A800008C6
:10364000C7800008058100083581000800000000DF
:103650002DE9F04390E89000714B724A9B6999B054
:103660009A6120467049FFF783FA0DF12008204641
:103670006E49FFF77DFA4646236820465B680DF1E8
:1036800007010122984700283DD09DF80710042922
:1036900004D120466649FFF76BFA34E0082901D0CF
:1036A0007F2912D14645E7D0236808219B68204630
:1036B0009847236820219B68204698472368204626
:1036C0009B6808219847013ED6E70D290BD10025BC
:1036D00020465849FFF74CFA3570404602A902F0DF
:1036E00057FD814618E01F29C6D90DF15F039E42A0
:1036F000C2D2236820469B6898479DF80730013660
:1037000006F8013CB8E720464B49FFF731FA75E06F
:1037100003AB43F825000135002002A902F038FD73
:1037200038B1042DF4D120464449FFF721FA4FF077
:103730000009002218AB03EB850343F8542CB9F1C0
:10374000000F94D048463E49FFF7FAFC28B9002DF7
:1037500054D020463B493A4A08E048463A49FFF7E8
:10376000EFFC28BB204625B13649374AFFF700FA5F
:103770007DE73649FFF7FCF9354E013506EBC50309
:1037800053F8082C22B120463249FFF7F1F9F4E74B
:1037900017B9204627492AE007F10805083555F8EA
:1037A000102C002AF5D020462A49FFF7E1F9F5E769
:1037B000274E3068F0B14946FFF7C2FC08B1083621
:1037C000F7E773682046294603AA98474FE749461A
:1037D000FFF7B6FC0028F4D0083630680028F6D190
:1037E00020461D494A46FFF7C3F920461B49FFF70B
:1037F000BFF93CE7002FF3D03E46EEE7202383F3EA
:103800001188FDF71DFCFEF7C3F800211448FDF7F1
:103810005FFE0020FDF70CFF002019B0BDE8F0832B
:10382000C8120020668100086C81000881810008B0
:10383000868100084F9D0008898100089281000858
:10384000A78100085C7C0008AC810008B1810008F9
:1038500024080020C6810008CA810008CD81000824
:10386000F40C002000000000000000000000000038
:103870002DE9F84319460646144610461D46544A9B
:103880000023FDF71DF90621C0F3032EC0F3031238
:103890004FEA103C02EB0E03634400F00F0001FB03
:1038A0000300CD230A2703FB00F14FEAD1280CEBDC
:1038B000CC010A440EEB8E010A4402EB080103FB23
:1038C00001F2D20A07FB121102EB4E024FF00D0E6D
:1038D0004FF000090EFB02FE4FEADE1E07FB1E2220
:1038E0000EEB8C0E03FB0EF3DB0A07FB180007FB45
:1038F00013EE3030303130320EF1300E3033DFF82D
:10390000D480C0B2C9B2D2B25FFA8EFEDBB2A94592
:1039100008BFA045374606F105064ED30621C4F37D
:103920000313C4F30325200B5A19024404F00F04B7
:1039300001FB0244CD210A2601FB04FE4FEADE2EE4
:1039400006FB1E4400EBC0021A44303405EB85032D
:103950003C70D41814EB0E0202D1781CBDE8F88339
:103960005143CB0A06FB132213EB450302F130024D
:103970007A7003D110B9B81CBDE8F8830D21594302
:10398000CA090A2101FB123312EB800203F1300352
:10399000BB7002D1F81CBDE8F883CD235343DB0A8A
:1039A00001FB13223032FA7013B9381DBDE8F883D9
:1039B00030333B71781DBDE8F88306F8050C06F836
:1039C000041C06F8032C06F802EC06F8013C9EE7FE
:1039D000A08601009F86010000000000000000009A
:1039E0000022014B1A607047280D002000000000E3
:1039F00002461C21602003F093BC00000000000080
:103A000002461A21602003F08BBC00000000000079
:103A100002461821602003F083BC00000000000073
:103A200002461421602003F07BBC0000000000006F
:103A300002461221602003F073BC00000000000069
:103A400002461021602003F06BBC00000000000063
:103A500002460E21602003F063BC0000000000005D
:103A600002460221602003F05BBC00000000000061
:103A700002460021602003F053BC0000000000005B
:103A800002460221382003F04BBC00000000000079
:103A900013B5022304460021402001AA03F0C8FB0D
:103AA00028B99DF8043003F003030133237002B0FA
:103AB00010BD000000000000000000000000000039
:103AC00001460220024603F023BD00000000000072
:103AD00001464F2003F014BD00000000000000006C
:103AE00001460B2003F00CBD0000000000000000A8
:103AF0000146182003F004BD000000000000000093
:103B00000146172003F0FCBC00000000000000008C
:103B10000146102003F0F4BC00000000000000008B
:103B20000146152003F0ECBC00000000000000007E
:103B30000146142003F0E4BC000000000000000077
:103B400001460A2003F0DCBC000000000000000079
:103B50000146092003F0D4BC000000000000000072
:103B60000146122003F0CCBC000000000000000061
:103B70000146132003F0C4BC000000000000000058
:103B800001461C2003F0BCBC000000000000000047
:103B9000014601220D2003F073BC0000000000006C
:103BA00001460522222003F08BBC0000000000002B
:103BB00001460822212003F083BC00000000000021
:103BC00001460C22202003F07BBC00000000000016
:103BD000F0B51D4C002A08BF22460024571E17F8D6
:103BE000016F651C26B9069DED060FD4202604E062
:103BF000059EB542F7D22C46F1E7013B5D1CAC4275
:103C000004DA884238BF06700130F6E705462E1AFE
:103C1000A64209DA8D4238BF167805F101053CBF8E
:103C200005F8016C0132F2E7002CACBF0219021C4E
:103C3000202610461D1A1544A54204DD884238BFCF
:103C400006700130F6E7F0BDE47D000800000000DA
:103C50002DE9F04F97B0239E054616F0400B89469C
:103C6000DDF880A0219C04D0BAF10A0B18BF4FF0F8
:103C7000010BF70606F0200148BF26F00106C9B285
:103C800016F00208019117D0002A73F1000106DA3C
:103C9000524263EB4303013C4FF02D080CE07107E7
:103CA00003D5013C4FF02B0806E016F008081CBFB6
:103CB0004FF0200804F1FF34BBF1000F0AD0BAF135
:103CC000100F01D0013C05E052EA0301A4F1020407
:103CD00003D00AE052EA030104D1302301278DF812
:103CE00014302CE0BAF10A0F24D0BAF1100F14BF2F
:103CF0000321042100270AF1FF3C029105A90137A5
:103D000001EB070E4948D1B201EA0C01415C019870
:103D1000CDF80CC001430EF8011C10461946029A5A
:103D2000FCF7BEFE02460B4652EA0301DDF80CC06A
:103D3000E4D104E005AF3846FFF79AFDC71B229B8C
:103D4000BB42B8BF3B4616F0110FA4EB03040ED1E3
:103D500021462A462020013904D44A4538BF107034
:103D60000132F8E724EAE472013C1544A41AB8F1E0
:103D7000000F04D04D4538BF85F800800135BBF1F8
:103D8000000F14D04D453CBF30222A70BAF1100FFD
:103D900005F101020AD14A4538BF019A05F1020531
:103DA0003CBF42F0580205F8012C00E01546F2062F
:103DB00012D416F0010F14BF3020202021462A46CD
:103DC000013904D44A4538BF10700132F8E724EABB
:103DD000E472013C1544A41A3022013B9F4204DCEA
:103DE0004D4538BF2A700135F7E728463B46013B71
:103DF00009D44D453CBF05AA9A5C05F1010538BFC1
:103E000005F8012CF3E7002FA8BFC019224603468E
:103E10002021013A04D44B4538BF19700133F8E72B
:103E2000002CA8BF001917B0BDE8F08FE082000891
:103E3000A0F16103192B98BF2030704700000000EB
:103E400020F02000413819288CBF00200120704745
:103E500010B50446FFF7F4FF30B9A4F1300009288B
:103E60008CBF0020012010BD012010BD000000000B
:103E7000613819288CBF0020012070470000000025
:103E8000413819288CBF0020012070470000000035
:103E9000A0F13003092B07D920F020004138052874
:103EA0008CBF0020012070470120704700000000F7
:103EB000303809288CBF0020012070470000000026
:103EC000202805D0093804288CBF00200120704725
:103ED000012070470000000000000000000000000A
:103EE000024B186800F00100704700BF186C0040DA
:103EF00010F0010F0CBF4FF000420022C3039BB231
:103F00001343064A1361A2F51F42E83A136823F0EF
:103F1000F10343F05003184310607047000C014058
:103F20000B4B10B51B68044603F0010398420DD0FB
:103F3000FFF7DEFF012C02D10648002102E02CB978
:103F400021460548BDE81040FDF7C2BA10BD00BFCC
:103F5000186C00406C0A0020680A00200000000075
:103F600008B5FDF7F5FBFDF74BF8002383F3118847
:103F700008BD00000000000000000000000000007C
:103F800008B5202383F31188FDF752F8BDE80840F7
:103F9000FDF7F6BB0000000000000000000000007C
:103FA00008B5064B1B6843B9FFF7EAFF0120FFF78E
:103FB000B7FFBDE80840FFF7D3BF08BD280D0020BC
:103FC00008B5FFF7DDFF0020FFF7AAFF01220B4B2A
:103FD0001A60FDF7A5F90A48C3680BB1FDF7B0F9FF
:103FE000084A002306484FF4FA71FDF7C9F9FFF7B4
:103FF000B7FF0022044B1A6008BD00BF280D002047
:1040000070120020E1390008401800200000000074
:1040100008B5FFF7B5FF0120FFF782FFBDE80840B4
:10402000FFF79EBF0000000000000000000000003D
:1040300010B50D240A4B01385B6F10F8012F72B1D7
:104040000A2A04D11A8892B21106FBD59C80017805
:104050001A8892B21206FBD58AB29A80EDE710BD9B
:10406000AC0D002000000000000000000000000077
:1040700013B50221044601AA40200B4603F0D8F8EC
:1040800078B99DF8053014B123F0080301E043F03E
:10409000080302218DF80530402001AA0B4603F0E9
:1040A0004FF902B010BD0000000000000000000049
:1040B000002121200A4603F02BBA00000000000076
:1040C000831E022B73B506460D4636D80024B44233
:1040D0004FEA4401B4BF2A460022522001F0FE01FB
:1040E00003F0BEF950BB0134B442F0D15220082194
:1040F0002A4603F0B5F908BB302016212A4603F002
:10410000AFF9D8B91A220E4B302002FB0434238AAF
:10411000182103FB05F242F21073B2FBF3F292B2E4
:1041200003F09EF950B9032302AA02F8013D0C21C5
:104130000123522003F004F900E0012002B070BD19
:1041400000830008000000000000000000000000E4
:1041500013B502230021044601AA402003F068F8A9
:10416000014660B99DF8053001AA23F0180343EA1F
:10417000C4008DF805000223402003F0E1F802B0EE
:1041800010BD000000000000000000000000000062
:10419000831E022BF7B5044600F2818040200021E7
:1041A00001AA022303F044F800287CD19DF80430D2
:1041B000022C03F0FC0302D143F0010305E0032CC1
:1041C0000CBF43F0020343F003038DF804300021D9
:1041D000402001AA022303F0B3F80146002861D170
:1041E0001A266643314D0721AA5B03F039F9AF194E
:1041F0000146002856D10A217A8803F031F9014698
:1042000000284FD11121BA8803F02AF9014600286D
:1042100048D11421FA8803F023F90146002841D13E
:1042200006F108031020EA5AEF1803F019F90028E4
:1042300039D1222002217A8803F012F998BB262076
:104240000821BA8803F00CF968BB26200B21FA88F4
:1042500003F006F938BB103630200821AA5B03F0C2
:10426000FFF800BB1A233544442000216A885C43D0
:1042700003F0F6F8B8B944200221AA8803F0F0F858
:1042800088B944200521EA8803F0EAF858B9074BB9
:1042900018342D211A5B502003F0E2F803E04FF0B0
:1042A000FF3000E0084603B0F0BD00BF0083000807
:1042B00008B5FDF7B5FAFCF7ABFE074B9A691B682A
:1042C00092689B689A4202D20448FCF7C1FE002320
:1042D00083F3118808BD00BFC8120020F0820008D7
:1042E0000E4B10B51C68BCB90D4B1B68DB0713D413
:1042F000202383F31188FCF7A3FEFDF749FB01207F
:10430000FFF7F6FD21460748FDF7E2F8FDF768F8EC
:10431000BDE81040FFF7CCBF10BD00BF280D002046
:10432000186C00406C0A0020000000000000000033
:1043300008B51A4B1B68DB0711D5202383F31188BE
:10434000FCF77EFEFDF724FB0020FFF7D1FD1448AB
:104350000021FDF7BDF8FDF743F8FFF7A9FF0122A3
:10436000104B1A60202383F31188FCF769FEFDF7D8
:104370000FFBFCF7D5FF0C48C3680BB1FCF7E0FF5F
:104380000A4A002308484FF4FA71FCF7F9FFFFF7D7
:104390008FFF0022064B1A6008BD00BF186C00405A
:1043A000680A0020280D002070120020E139000862
:1043B0004018002000000000000000000000000085
:1043C00010B5202383F31188104CFCF731FEFDF764
:1043D000D7F9FCF7A5FFE36813B12046FCF7B0FF5F
:1043E000FCF79EFFE36813B10848FCF7A9FF0748F4
:1043F0000A21074A0023FCF7C3FFFDF7A9F9FCF7E0
:10440000FFFD002383F3118810BD00BF841200203C
:1044100091440008000000000000000000000000BF
:1044200070B5202383F31188164CFCF701FEFDF7CD
:10443000A7F9FCF775FFFCF773FFA5682368002D4B
:1044400002DBA34202D104E0A34202D10E48FCF7F2
:10445000FFFD00236FF00106A3600135002D07DC8E
:104460006068436863601C60FDF70AF84662F4E721
:1044700002F02EF9FDF76CF9FCF7C2FD002383F37F
:10448000118870BD280E00209083000800000000F5
:1044900070B5202383F31188FCF7CAFDFDF770F98E
:1044A000144B154C9E68A3F580639D682368C6F382
:1044B00080369E42C5F3002508D016B10F48002172
:1044C00001E031460E48FDF703F8266063689D421F
:1044D00008D015B10B48002101E029460A48FCF735
:1044E000F7FF6560FDF734F9FCF78AFD002383F3DD
:1044F000118870BD000C01404C110020000B002001
:10450000240D0020700A0020401000200000000050
:1045100038B50446FCF704FFA568002D18DCFCF74D
:10452000FFFE206815B9A04202D104E0A04202D1EA
:104530000848FCF78DFD0135012DA56008D0036802
:1045400023605C6000234362BDE83840FCF798BFFD
:1045500038BD00BFA083000800000000000000007C
:1045600008B5202383F31188FCF762FDFDF708F9F5
:104570000548FFF7CDFFFDF7EBF8FCF741FD002301
:1045800083F3118808BD00BF280E00200000000042
:104590002DE9F84F81460E46002900F09A804E4FD3
:1045A000012997F8008076D943464C4DDFF844A1A5
:1045B00007F1010B0F442922B3FBF2F402FB143480
:1045C0000F2C39D19BF8003003F0C002802A5AD159
:1045D00003F0040101F0FF00414A29B101211160FB
:1045E000EA7B42F0040203E01060EA7B22F004025E
:1045F00003F00303012BEA7303D005D3022B06D08B
:1046000041E0FFF7DDFC3EE0FFF7CAFC3BE0FFF7CF
:10461000D7FCFFF7B5FCFCF783FE3248C3680BB14B
:10462000FCF78EFE2F484FF496712F4A0023FCF7BB
:10463000A7FEFFF795FC26E0082C0BD19AF8003076
:104640009BF8002043EA0223CAF800309BF80030B0
:104650002B7218E0092C03D19BF800306B7212E02A
:10466000282C07D19BF8003020495A000A6085F8B1
:10467000283008E0102C03D0A4F11403062B02D834
:104680009BF8003063550BF1010BBB4504F10103AE
:1046900091D102F03DF8D9F8582008F1FF3846448E
:1046A000B6FBF2F302FB13662023C9F85C6083F3C8
:1046B0001188FCF7BDFCFDF763F80D48FFF728FFF4
:1046C00002F006F8FDF744F8FCF79AFC002383F3A8
:1046D0001188BDE8F88F00BF98120020F80C002068
:1046E0004018002024180020114000084418002021
:1046F000280E0020186C00400000000000000000A0
:104700002DE9F843FFF7ECFB002800F0948001F05E
:104710008FFB01F05DFCFDF74BF90023474C4FF098
:104720002009A3602360656BFEF7C2FA444B9846EC
:10473000DE8CB6B206F13207BFB2BF1B89F3118817
:10474000FCF77EFCFDF724F92B8B9B0704D42B8808
:1047500003F400739BB243B1B8F826309BB29B1BA5
:10476000BB4260DAFEF7A4FAE8E702260420354AE5
:104770003549C2F8846082F82133C2F8840082F897
:104780002233CF6927F48007CF610F6947F4800790
:104790000F610B61CF6947F48007CF61502182F828
:1047A0002113C2F88461566082F82213C2F8840192
:1047B0005060264A4026E2632A226264244A268404
:1047C000E264244AA36022652922A265224AA364E6
:1047D0002266224A2364626694F83820E365012A3F
:1047E000636522D00121154A82F838104FF4004247
:1047F0002A802B804FF41063AB8001F071FBAB88F3
:1048000023F400631B041B0CAB802E81AB889BB28E
:1048100043F4C063AB802B889BB243F4806343F0C6
:1048200001032B8001E0052300E002232360BDE8A3
:10483000F843FDF71DB8BDE8F88300BF98170020C6
:10484000C812002000E100E0001002409812002091
:1048500091450008F80C002061450008214400083B
:1048600008B5FCF7DDFFFCF7D3FB074B9A691B6823
:1048700092689B689A4202D20448FCF7E9FB002345
:1048800083F3118808BD00BFC8120020B083000860
:104890002DE9F04F1546074688461A4604464FF064
:1048A000200985B046182B78002B00F07481252B49
:1048B00001D1002109E0B44280F01E8123701BE188
:1048C00008D92D2B0DD141F0100115F8013F2B2BEC
:1048D000F6D10BE0202B0CD0232B0DD141F0400161
:1048E000F3E7302B08D141F00101EEE741F004017C
:1048F000EBE741F00801E8E7A3F1300EBEF1090F44
:10490000284610D84FF0000E4FF00A0A284615F836
:10491000013BA3F1300CBCF1090F17D80AFB0E3E86
:10492000AEF1300EF2E72A2B0CD1D2F800E00130C4
:10493000BEF1000F02F1040307DACEF1000E41F0E0
:10494000100102E04FF0FF3E00E01A4603782E2BE4
:1049500023D1437800F1010CA3F13005092D12D8C1
:10496000654600204FF00A0A2B78AC46A3F1300BC5
:10497000BBF1090F05F1010503D80AFB00303038FF
:10498000F2E7134607E02A2B0CD100F1020C106865
:10499000131D002805DB1A4605E084464FF0FF3062
:1049A00001E01A4600209CF80030682B07D003F085
:1049B000DF054C2D03D05A2D01D0742B0CD16C2B5C
:1049C0000CF101050BD19CF801A0BAF16C0F06D1D6
:1049D0000CF102054C2302E065464FF0FF3395F8D9
:1049E00000C0BCF16E0F7DD011D8BCF1630F23D095
:1049F00006D8BCF1250F7BD0BCF1580F7ED083E0E8
:104A0000BCF1640F7DD0BCF1690F7AD07CE0BCF1C1
:104A1000730F30D007D8BCF16F0F00F08780BCF166
:104A2000700F33D070E0BCF1750F7CD0BCF1780F03
:104A30006AD141F0200161E0C9060AD40EF1FF3EBF
:104A4000BEF1000F05DDB44238BF84F80090013498
:104A5000F4E7B44202D21368043223700EF1FF3E31
:104A6000BEF1000F04F1010440F39380B44238BF5B
:104A700084F80090F2E78DE8030002F1040A204672
:104A8000314612687346FFF7A3F880E002F1040A8A
:104A9000126842B98DE80300474A20463146734602
:104AA000FFF796F813E0BEF1FF3F4FF010030ABF87
:104AB0004FF0080E41F0200141F021018DE808403F
:104AC00002900391204631460023FFF7C1F80446C7
:104AD000AB465D4668780BF1010BFFF7B9F900288A
:104AE000F7D155E0131D1268E11B11601A4650E022
:104AF000B44238BF84F800C001344AE04FF0100CD3
:104B000016E041F002010EE0B4423CBF25232370C1
:104B10002978631C21B1B34238BF6170023438E098
:104B2000013D1C4635E04FF00A0C01E04FF0080C47
:104B30004C2B06D1073222F0070202F1080A0CCAF8
:104B40001DE06C2B02F1040A03D18B07126815D407
:104B500005E023F0200BBBF15A0F126801D10023AE
:104B60000DE0742B0AD0682B01F0020304D10BB9BD
:104B700092B2F4E712B201E0002BF0D0D31702900A
:104B800003918DE8005020463146FFF761F8044656
:104B90005246013587E6B8F1000F08D0B44238BF5D
:104BA00023700134B44284BF002306F8013CE01BAB
:104BB00005B0BDE8F08F00BFE47D000800000000F4
:104BC0000FB410B5C2B044AB53F8042B4FF480714E
:104BD00002A80193FFF75CFE044602A8FFF728FA3B
:104BE000204642B0BDE8104004B07047000000000D
:104BF0000EB403B503AB53F8042B6FF000410193DF
:104C0000FFF746FE02B05DF804EB03B0704700000A
:104C10002DE9F04786B004460E461546FEF7F8F932
:104C20000128804602D02046A64995E33046294611
:104C3000A54AFEF7ADF9002839D0022E34D16B68B1
:104C40001B782B2B02D02D2B2ED116E0462004A949
:104C500002F056FC0246002863D1BDF81010462031
:104C600041F0020189B2ADF8101002F0D1FA02460B
:104C7000002856D1204695496EE3462004A902F04B
:104C80003FFC024600284CD1BDF81010462021F010
:104C9000020189B2ADF8101002F0BAFA02460028FB
:104CA0003FD120468A4957E320468A4954E330469B
:104CB0002946894AFEF76CF900283BD0022E36D1EE
:104CC0006B681B782B2B02D02D2B30D114E04620A3
:104CD00004A902F015FC024618BBBDF810104620CE
:104CE00041F0040189B2ADF8101002F091FA0246C9
:104CF000B8B9204679492FE3462004A902F000FC08
:104D0000024670B9BDF81010462021F0040189B2A6
:104D1000ADF8101002F07CFA024610B92046704936
:104D20001AE3002A80F21A8320466E495BE220468D
:104D30006D4911E3304629466C4AFEF729F90746CA
:104D400000283BD0022E26D16F6869493846FEF70D
:104D5000F7F998B138466749FEF7F2F908B94046C5
:104D60000CE038466449FEF7EBF908B9304605E037
:104D700038466249FEF7E4F938B90320FFF7E8F94D
:104D80000246204622B15E492DE220465D4904E2FA
:104D90005D496A6827E220465C49FEF7F1FA204641
:104DA0005B49FEF7EDFA20465A49FEF7E9FA20463C
:104DB0005949FEF7E5FA20465849CDE230462946E2
:104DC000574AFEF7E5F8824688B1022E07D03946E9
:104DD000202004AA02F0A4FA20465249CEE0394627
:104DE000686801F0F5F9394682B220202FE030469C
:104DF00029464D4AFEF7CCF8814680B1022E07D0F5
:104E00000221202004AA02F08BFA20464749B5E08F
:104E10006868514601F0DCF982B2202016E0304685
:104E20002946434AFEF7B4F8074698B1022E07D048
:104E30000221212004AA02F073FA20463D499DE098
:104E40006868494601F0C4F982B22120314602F077
:104E500007FB83E230462946374AFEF799F8F8B156
:104E6000022E0AD0414604AA6B20434602F0E0F924
:104E7000204632499DF81020B5E13946686801F0B6
:104E8000A7F941468DF8100004AA6B20434602F0B2
:104E900057FA10B120462A495EE2204629495BE2D2
:104EA00030462946284AFEF773F8002869D0022EBA
:104EB0004ED00021222004AA02F032FA20462349D3
:104EC0005CE000BFC0830008E7830008EB830008B4
:104ED0000584000849840008968600085D8400085F
:104EE000748400082984000895840008A9840008B7
:104EF000B4840008BD840008C1840008C984000887
:104F0000F2840008D1840008148500082B8500086D
:104F10006785000898850008D08500080686000887
:104F2000368600083E860008648600086D86000804
:104F3000938600089A860008B7860008C086000895
:104F4000E0860008157F0008B09A0008E88600088F
:104F50000021686801F03CF9A449ADF81000204632
:104F6000FEF70EFABDF810202220002102F078FA98
:104F7000021E204601DA9E4935E19E49BDF9102006
:104F800031E1304629469C4AFEF702F8F8B1022E7C
:104F900005D004A8FEF7B4FD2046984914E000218E
:104FA000686801F015F99649ADF810002046FEF743
:104FB000E7F91720BDF8101002F02AF9021E20466A
:104FC00001DA90490FE19049BDF810200BE130461D
:104FD00029468E4AFDF7DCFF00B3032E02D020469F
:104FE0008B49B9E16868002101F0F2F8002106461A
:104FF000A86801F0EDF8054686492046ADB2FEF7F7
:10500000BFF930462946FFF75BF8021E204601DA59
:105010008149E8E0814932462B461BE0304629466B
:105020007F4AFDF7B5FF0746E8B1012E02D12046C1
:105030007C4991E16B681A78A2F13203022B0FD8F8
:10504000A2F130052846FFF7A3F8031E204604DA34
:105050002A467549FEF794F980E174492A46C2E070
:1050600020467349BFE030462946724AFDF790FF5B
:1050700068B3022E14D16B681B78312B05D1012047
:10508000FEF7F6FF20466C4966E1302B40F0628166
:1050900020466A49FEF774F93846FEF7E9FF5DE1FC
:1050A000012E40F057810221402004AA0B4602F055
:1050B000BFF828B99DF8110080F00800C0F3C000C7
:1050C00010B120465E4947E120465E4944E1304642
:1050D00029465D4AFDF75CFF074660B120465B4903
:1050E000FEF74EF9FEF7E4FF024600283FF4D5AE86
:1050F0002046574977E030462946564AFDF748FF93
:10510000804600284BD020465349FEF739F96223E8
:1051100006AD05F80C3D05230B200093294601221E
:1051200004AB01F03DFC20B14C4B9F6847F0807709
:105130002EE09DF8123000978DF80D309DF811305B
:105140000B208DF80E30294603223B468DF80C705B
:1051500001F026FC20B1414B9F6847F0007717E033
:105160009DF8143000978DF80D309DF813300B200A
:105170008DF80E30294603223B468DF80C7001F065
:105180000FFC002800F0E080344B9F6847F0407728
:10519000002F00F0D980204631493A4623E03046BE
:1051A0002946304AFDF7F4FE074678B120462E49DD
:1051B000FEF7E6F842464120414602F0A9F90246D0
:1051C000002800F0C180204625490CE030462946E1
:1051D000264AFDF7DDFE002800F0B980042E4BD0F2
:1051E00020462349234AFEF7CBF8B7E00B87000897
:1051F0002987000852870008748700087A8700080A
:1052000099870008B1870008D3870008EB8700085A
:10521000F4870008238800083888000857880008A9
:10522000879100087C88000896880008B5880008E7
:10523000C8880008E1880008E4880008038900089D
:105240002689000844890008A981000866890008A9
:105250008E8900089E890008A689000898170020FA
:10526000CB890008DF890008E6890008068A000863
:105270000A8A00083C8A0008686801F021F806469E
:10528000A86801F01DF88046E86801F019F800F2FE
:10529000111000EB800533492046FEF771F82046D7
:1052A00031490322FEF76CF86D0020462F4932B2D7
:1052B000FEF766F8ADB220462D490FFA88F2FEF7E8
:1052C0005FF82A4620462B49FEF75AF84021384617
:1052D00001F09EFF402306A901F80C3D012238464B
:1052E00001F06EFF0321632001F092FF1FFA88F1A5
:1052F000602001F08DFFB1B2612001F089FF2946E5
:10530000622001F085FF51204CF2D50101F080FFB1
:10531000512004A902F0F4F8BDF81050C5F30D05B2
:10532000ADF810501DB1C820FCF712FEF0E7294679
:105330002A46722001F044FF6420FCF709FE732026
:1053400029462A4601F03CFF20460B4904E020464E
:105350000A4901E020460A49FEF712F806B0BDE806
:10536000F08700BFDB8A0008F28A0008068B00087D
:105370001D8B0008348B0008D88900084B8B00086F
:10538000868E000800000000000000000000000001
:1053900073B504460DF106001E460D4690470346C0
:1053A000204623B10A492A4601F0DAFD0DE00949F9
:1053B0002A4601F0D5FD20463146BDF9062001F010
:1053C000CFFD2046044901F0CBFD02B070BD00BF07
:1053D000E08E0008F38E00084F9D000800000000DA
:1053E00073B50446FDF714FE012805D020466D492B
:1053F00001F0B6FD00F078BC01F01AFA20466A49C7
:105400006A4A00F0ADFF204669496A4A00F0A8FFE9
:1054100020466949694A6A4B01F0B2FD2046694954
:10542000694A674B01F0ACFD0222062001A902F097
:105430006FF80246002840F05284BDF804301B0A81
:10544000ADF804309B09032B09D0604AD556604A59
:10545000D156604A604B002918BF1A4601E0054644
:105460005D4A20465D4901F07BFD5A4B5A4A204671
:10547000002D08BF1A465A4901F072FDBDF80430EC
:10548000584A03F00F0352F823202046564901F0F2
:1054900067FDBDF8043003F00F02092A44D1534AD6
:1054A000C3F3011352F823202046514901F058FD5F
:1054B00020465049504A424B01F062FD20464F4978
:1054C0004F4A3F4B01F05CFD20464E494E4A3C4B53
:1054D00001F056FD20464D49494A4D4B01F050FD23
:1054E00020464C494C4A4D4BFFF752FF20464C4951
:1054F0004C4A4D4BFFF74CFF20464C494C4A474B1A
:1055000001F03EFD20464B494B4A2D4B01F038FD42
:1055100020464A494A4A2A4B01F032FD2046494971
:10552000494A274B01F02CFD20464849484A494B3F
:1055300001F026FD474B20464749484A01F020FD2F
:1055400020464749474A00F00BFF20464649474A54
:10555000474B01F015FD20464649474A474B01F0AD
:105560000FFD20464649474A474B01F009FD474A8F
:10557000454B2046464901F02BFD01A9032001F0CF
:10558000BFFFBDF904302046002B4249424A80F259
:105590008B80424B01F0F4FC20464149414A3F4B8D
:1055A00089E000BFC08300081B8F0008C13B0008D2
:1055B000298F0008B13B0008348F0008C13A000869
:1055C000468F00084B8F0008813A0008209B000896
:1055D000109B0008FA8E0008AB9D00085B8F000846
:1055E000748F0008A08E00088D8F0008009B0008B3
:1055F000A68F0008BF8F0008613A0008CA8F000814
:10560000713A0008D48F0008F1390008E08F0008D3
:10561000EC8F0008F28F0008513A0008FE8F000856
:1056200004900008413A0008149000081A900008FD
:10563000213A000831900008313A000844900008EF
:10564000113A000856900008013A000868900008D6
:10565000713B00087990000884900008613B0008C5
:1056600096900008A13B0008A1900008813B00082B
:10567000B0900008B7900008013B0008C4900008F3
:10568000C7900008D13A0008D7900008913B000865
:10569000DC900008E4900008113B0008F29000083C
:1056A000FA900008F13A0008C44B01F069FC20466A
:1056B000C349C44AC14B01F063FC08200DF1060147
:1056C00001F01EFF28B9BDF80630A3F6AA23ADF8F5
:1056D00006300A22BDF906306FF0090593FBF2F29D
:1056E000204605FB0233B84901F03AFC2046B74991
:1056F000B74AB84B01F044FC2046B749B74AB84B0B
:10570000FFF746FE2046B749B74AB54BFFF740FEC4
:105710002046B649B64AAF4B01F032FC2046B549A7
:10572000B54AAF4B01F02CFC2046B449B44AB54B06
:1057300001F04EFC0125C5F1400001A9C0B201F005
:10574000DFFE031EB5BF2A462A46AF49AF49A8BFB0
:10575000BDF804302046013501F002FC052DEAD1E8
:105760000DF10601552001F0CBFE2046A849BDF8F9
:105770000620A84DA84E01F0F3FBBDF906202046F7
:1057800015EA220238BF3246A44901F0E9FBBDF810
:105790000630A34A13F4804F08BF2A462046A14989
:1057A00001F0DEFBBDF80630204613F4005F14BFA5
:1057B00032462A469C4901F0D3FBBDF8063020460C
:1057C00013F4805F14BF32462A46984901F0C8FBA3
:1057D000BDF80630204613F4006F14BF32462A4647
:1057E000934901F0BDFBBDF80630204613F4806FED
:1057F00014BF32462A468E4901F0B2FBBDF806308E
:10580000204613F4007F14BF32462A46894901F02E
:10581000A7FBBDF80630204613F4807F14BF324644
:105820002A46854901F09CFBBDF80630204613F05E
:10583000800F14BF32462A46804901F091FBBDF823
:1058400006307F4A13F0400F08BF2A4620467D49A4
:1058500001F086FBBDF80630204613F0200F14BF80
:1058600032462A46784901F07BFBBDF806302046D7
:1058700013F0100F14BF32462A46744901F070FB32
:10588000BDF80630204613F0080F14BF32462A46F2
:105890006F4901F065FBBDF80630204613F0040F98
:1058A00014BF32462A466B4901F05AFBBDF8063058
:1058B000204613F0020F14BF32462A46664901F013
:1058C0004FFBBDF80630204613F0010F14BF3246DF
:1058D0002A46624901F044FB2046614901F040FB41
:1058E000162001A901F00CFEBDF90430002B03DAEB
:1058F00020465C4901F034FBBDF80430590403D55F
:105900002046594901F02CFBBDF80430DA0403D5D8
:105910002046564901F024FBBDF804301B0503D591
:105920002046534901F01CFBBDF804309E0503D509
:105930002046504901F014FBBDF80430DD0503D5C5
:1059400020464D4901F00CFB20464C4901F008FB74
:10595000BDF80430180603D52046494901F000FB84
:10596000BDF80430590603D52046464901F0F8FA3F
:10597000BDF804309A0603D52046434901F0F0FAF9
:10598000BDF80430DB0603D52046404901F0E8FAB3
:10599000BDF80420204612F00F0203D03C4901F06C
:1059A000DFFA02E03B4901F0DBFA502001A901F0E7
:1059B000A7FD002872D020463749F8E00B91000877
:1059C000FA900008F13A000812910008309100089E
:1059D000513B0008EC8F000839910008413B00085A
:1059E000FE8F000842910008E13A00085391000838
:1059F000213B000863910008313B000873910008C7
:105A0000913A0008849100088D910008AF91000838
:105A1000CC910008FE8E0008018F0008E791000875
:105A2000058F000804920008219200083E920008A9
:105A30005B9200087892000895920008B2920008E4
:105A40000F8F0008CF920008EC920008099300081D
:105A50002693000843930008609300087D93000894
:105A60009A930008A4930008BC930008D9930008F7
:105A7000EF9300080F9400082E9400084994000842
:105A8000599400087394000896940008B294000892
:105A9000D1940008EB94000800950008BDF804308C
:105AA0002046002B00F08280904901F059FABDF9A0
:105AB0000430002B03DA20468D4901F051FABDF87D
:105AC00004305E0403D520468A4901F049FABDF846
:105AD00004309D0403D52046874901F041FABDF802
