:020000040800F2
:1000000000040020510E0008B1200008B1200008B3
:10001000B1200008B1200008B1200008B12000087C
:10002000B1200008B1200008B1200008310E0008FE
:10003000B1200008B1200008B1200008D126000836
:10004000B1200008B1200008B1200008B12000084C
:10005000B1200008B1200008512300082123000826
:10006000F1220008C1220008912200087120000836
:10007000C12400088124000841240008012400084C
:10008000C123000881230008B1200008B120000826
:10009000B1200008B1200008B1200008212200088A
:1000A000B1200008B1200008B1200008B1200008EC
:1000B000B1200008B1200008B1200008B1200008DC
:1000C000B1200008B128000881270008B1200008ED
:1000D000B120000841250008B1200008B120000827
:1000E000A12100086121000821210008B120000899
:1000F000B1200008B1200008B1200008B12000089C
:10010000B1200008B1200008B1200008B12000088B
:10011000B1200008B1200008B1200008B12000087B
:10012000B1200008B1200008B1200008B12000086B
:10013000B1200008B1200008B1200008B12000085B
:10014000A84A4FF0FF31136900232DE9804811615F
:100150001361D068D160D360D169944641F0805179
:10016000D161D1690C2641F00061D1611A469E48E7
:100170009E4C01688DB041F4807101609C490B6018
:100180009C4906FB03F000590025026041F833202A
:100190000133072BF5D14FF0FF3A974ADFF8C892A9
:1001A000C2F804A0DCF81820DFF8C0B242F07D02EB
:1001B000CCF818204FF48052CDF80CC0C9F80C20B0
:1001C0008E4A8F49C9F8042044F24242C9F80020FF
:1001D0004FF41042CBF80C208A4A0126CBF80420B9
:1001E000894A8A4FCBF8002002F18842A2F50052DA
:1001F000CD604A604FF044320A60C1F80C54C1F837
:100200000424C1F80024C1F80C58C1F80428C1F82E
:1002100000287F4ADFF8588202F10C011161D16099
:100220007C49166051637C495560D1620C39556137
:10023000D56111633A467949C8F8045042F8041B65
:100240007A6007F1300107F10C02C8F80060BE6067
:100250003A61796339631021FA6007F154023A6216
:100260007A62BA6107F16402FA617A64BA64FA6385
:1002700007F174023A646A4A6A48FA646A4AB963DE
:100280007D617A674268BD6242F03002FF623F657D
:10029000426048F69F40654A654C50609560136027
:1002A00080224FF6FF00634B83F823209D60DA68BD
:1002B0001040614A02436148DA60C26842F08072CD
:1002C000C2605F480268324302602022D97783F817
:1002D00022205C4B06A803F11C025B609D601A6241
:1002E000DA61A3F824A00022DD849D621B605B61BB
:1002F0001B6102930023CDF818A0CDE90A230795CE
:100300000895099500F084FE06A800F049FE029BBE
:10031000089A4D499A624D4A002022F007020A606D
:100320004B4A4C4922F007020A604B4A4B49956000
:10033000116002F11001516111610021C3E9120144
:10034000C3E9180103F17C01D560956199674022EA
:1003500002211D635D63C3F838A0DD631D645D6425
:10036000C3F850A05D659D65DD655A67A26084F89D
:10037000201084F821502264E563A563A56184F808
:10038000226023615A695C616261146104F1280290
:10039000A26204F12C022263E26204F16002E261D3
:1003A00000230022C4F848A0C4E91623E5642565AB
:1003B000656504F1480000F02BFE029B284A9C6111
:1003C000E261DA6E84F82060BA4644461D4632B9CE
:1003D000D3F87080DDF80CC0B8F1000F4AD0214886
:1003E000A7E000BF0010024000700040007B000842
:1003F000B41700207817002000000240A4242444F1
:100400000010014044EE482444644444B40D0020EC
:10041000B817002000580040307B0008A079000881
:10042000C1200008000001400038014010E000E059
:10043000E80B002000ED00E00003FA05F0ED00E01D
:10044000001000E0D8120020B00D0020D31E0020C4
:100450000028002000090020201000209119000829
:1004600000040020707B000800080140000C0140DF
:10047000F8080020CDF80CC088F3118862B6B04AA5
:100480009B69F8219A61AF483246CDF80080AE4BA7
:1004900001F056FDAD4B9E605B601B60AC4B9E60F7
:1004A0005B601B6005F084FD04F002F94FF4B47149
:1004B000CDF800807022A74BA74801F041FD5322E0
:1004C000A64BA74E1A7002225A70032202939A700A
:1004D00002F07EFD012818BF0220029BD870D9F8D7
:1004E0000820DBF80810C2F3002211F4804F0CBF83
:1004F0001021002141EAC20242F04002DA73326860
:100500004FF4F471120A1A729648CDF80080462210
:10051000954B01F015FD202383F3118800F088FD31
:1005200001F016FABB68DDF80CC05A1E012A02D988
:100530008E4800F0A5FD012B0DD1C022DCF818304B
:1005400043F48043CCF81830894B83F825232022CC
:10055000C3F884215A609C22DAF874304FF04009C5
:100560001A814FF0010B42F22C1200274FF00208C3
:10057000A3F81090A3F814B09A811F801A889B8862
:10058000CAF8088001F02CF900F03AFDAA692B683E
:1005900092689B689A4201D27648CAE787F311882D
:1005A000754B7648DFF814A25A467549CAF80030F0
:1005B000006005F00DFF734B734A1F60734B1B60A7
:1005C000734B1B60734B1B60734B1B60734B1B6047
:1005D000734B1B60734B9B68C3F380331360724B88
:1005E0009B68C3F300235360202383F3118800F03A
:1005F0001FFD01F0ADF9236857465A1E012A01D9A3
:100600006A4896E76A496B4A012B516041D16022E2
:100610008021574B4FF4807E83F806234FF40070FF
:10062000C3F880914FF4000CC3F8009083F80723BF
:10063000C3F8801119604FF4806183F80823C3F870
:1006400080E1C3F800E083F80923C3F88001186053
:1006500083F80A23C3F88011196083F81723C3F8BD
:1006600080C1C3F800C083F82823C3F884E1C3F82D
:1006700004E083F80123C3F88081C3F8008083F885
:100680002923C3F88401586083F82A23C3F884110E
:100690005960002201214FF00F0BD4F804A0464B03
:1006A0005AF832C01CF0040F00F08A800F2A17D8C5
:1006B00022F0030000F1804000F5803002F00308D2
:1006C000D0F808E04FEA88080BFA08F92EEA090981
:1006D000CCF3031E0EFA08FE49EA0E09C0F8089092
:1006E000986801FA02FE1CF0010F14BF4EEA0000E8
:1006F00020EA0E009860D86801FA02FE1CF0020F92
:1007000014BF4EEA000020EA0E00D8600AEBC200D7
:10071000406850B1186801FA02FE4EEA0000186005
:10072000586820EA0E00586067E0586801FA02FE37
:100730004EEA00005860186820EA0E0018605CE07D
:100740008079000848100020110E0008A40900203C
:10075000D80B002051650008480C0020A80B002091
:10076000186C0040B8090020B164000870790008D6
:1007700000E100E0507A0008B40D0020A40B002036
:1007800014090020B009002044110020D40B0020DF
:10079000A0090020100900204010002004090020BA
:1007A0000C090020000C014000080140D07B00082B
:1007B000607A0008F808002000040140A00B002027
:1007C00001FA02FC6FEA0C00D3F800E000EA0E0E1A
:1007D000C3F800E0D3F804E000EA0E0EC3F804E02A
:1007E000D3F808E000EA0E0EC3F808E0D3F80CE0F6
:1007F00000EA0E00D860C3F814C00132132A7FF457
:100800004FAF4FF00208C4F8008000F0E9FF00F09D
:10081000F7FBAA692B6892689B689A4201D27B48D1
:1008200087E64FF0000989F31188794842467949F3
:1008300005F0CEFD78487949042205F0C9FD7848D5
:100840007849082205F0C4FD77487849102205F060
:10085000BFFD77487749202205F0BAFD76487749F1
:10086000402205F0B5FD764B76491B684246009361
:1008700038680127032305F08BFE734C734B276008
:100880006360202383F3118800F0D2FB01F060F84D
:1008900045F2555263681A6004225A604FF47A7226
:1008A0009A604AF6AA221A604CF6CC421A60C4F842
:1008B000008000F0A5FF664BCDF8009065484FF42E
:1008C0008471424601F03CFB634B644C9B6884F8A6
:1008D0000090DB0512D53227A046207878B9014672
:1008E000024602F045FB18B9012388F8003002E007
:1008F000052001F00DFB013FEFD100E027702378C8
:1009000053B10023564A574813704FF4F4710093C3
:100910007522554B01F014FB0022544B1A603368CA
:1009200003F0F003502B01D003F0B2FC03F0E8FA1F
:1009300010B103F0ADFC01E003F0D2FC4FF0006316
:100940000A26454A4A4F136105F072FF0DF1150062
:1009500003F0AEF820BB442005210DF1160206F08D
:1009600077FCE8B95220082106AA06F071FCB8B954
:100970001A239DF8150003FB0073DA8ABDF81630C0
:100980009A4202D105F0ACFF1EE003F0D9FB38B962
:100990009DF81500BDF8181003F06AFB0028F1D08F
:1009A000202383F3118800F043FB00F0D1FF31488E
:1009B00003F086FD00F02CFD03F02AFF4FF4FA70DF
:1009C00001F0A6FA013EBFD102222B4B1A60227819
:1009D0000AB101221A6001F083FAAB691A6C9968B6
:1009E00091424FF00C0201D00B2900D89A601A6492
:1009F00000F00EFD00F094FF05F0E2FE05F0C8FCEB
:100A000001461E4800F0FCFBF8E700BF607B0008D1
:100A1000D40B002028090020A00900203C09002058
:100A20004010002050090020100900206409002017
:100A300004090020780900200C0900208C090020FE
:100A400000080020757B00084C1100200030004099
:100A500041680008581100200008014008090020E2
:100A6000E40B0020300E0020012E0008181000209A
:100A7000C0790008D80B0020401100200408002095
:100A80002DE9F04FC1F80CD0D0F80CD0BDE8F08FB4
:100A900000F0A6FE00F0B4FA002383F31188284684
:100AA000A04701F02DFA00F0C3FA00F051FF00F06A
:100AB00007FC00F095FE00F0A3FA00DFFEE700005F
:100AC000D0400B1CD1409C46203AD34018435242A0
:100AD0006346934018437047000000000000000088
:100AE0004BB942B9002908BF002802D04FF0FF31AE
:100AF000084600F00DB882B0EC462DE9005000F039
:100B000027F8DDF804E002B00CBC704700000000DC
:100B100002B54FF0080009F009FD02BD0000000019
:100B20002DE9F04198461446069D06460F4600F012
:100B300027F8A4FB0023864604FB01F4B61A00FB49
:100B40000844234467EB0307C5E90067BDE8F0816B
:100B50002DE9F8431746804689461D46089E00F059
:100B6000BFF800FB05F3A0FB074507FB0137B8EB17
:100B700004043D4469EB0505C6E90045BDE8F8837A
:100B800000292DE9F04FA2BF804689464FF0000EA4
:100B9000C0F29A80002BA4BF10461946C0F28E8086
:100BA0008945444608BF80454D463CBF0020002192
:100BB00067D3B1FA81F2002976D0B9FA89F3B9F195
:100BC000000F6DD0D31AA3F1200C01FA03F700FA3D
:100BD0000CF2C3F1200A174320FA0AF2174300FA75
:100BE00003F6B9451A4608BFB0453CBF00200021B6
:100BF0000CD34FF0010B2BFA0AF40BFA0CF1214342
:100C0000B8EB060469EB07050BFA03F0002B38D0AC
:100C10007F084FEA360609E0A41B65EB0705241997
:100C20006D41013445F10005013B07D0BD4208BFCD
:100C3000B442F1D224196D41013BF7D1C2F1200732
:100C400024FA02F305FA07F7A2F120063B4325FA3E
:100C500006F6334325FA02FCA2F1200800190CFA2B
:100C600002F703FA08F8C2F1200C47EA080723FA52
:100C70000CFC03FA02F6694147EA0C07801B61EBA2
:100C800007011EF100024FF0000318BF0122544279
:100C900063EB43056040694080185941BDE8F08F1F
:100CA000B8FA88F320338DE7B0FA80F303F120021D
:100CB000B9FA89F3B9F1000F84D1F1E750426FEA34
:100CC0000E0E63EB43016BE7D0F100084FF0FF3EDF
:100CD00061EB41095EE700BF00000000000000007A
:100CE0002DE9F0410D469D42044608BF944210464E
:100CF000194667D3B3FA83F2002B6BD0B5FA85F3AC
:100D0000002D63D0D31AA3F1200201FA03F7C3F137
:100D1000200C00FA02F10F4320FA0CF10F4300FA05
:100D200003F6BD429E4608BFB4423CBF00200021EE
:100D30000CD34FF00108A41B28FA0CFC08FA02F1AE
:100D400041EA0C0165EB070508FA03F0002B3BD0E4
:100D50007F084FEA360609E0A41B65EB0705241956
:100D60006D41013445F10005013B07D0BD4208BF8C
:100D7000B442F1D224196D41013BF7D1CEF12002EA
:100D800024FA0EF605FA02F2AEF1200325FA03F377
:100D900016431E4325FA0EF7AEF1200C001907FA90
:100DA0000EF306FA0CFCCEF1200743EA0C0326FAF8
:100DB00007F706FA0EF269413B43801A61EB030123
:100DC000BDE8F08100200021BDE8F081B4FA84F391
:100DD000203397E7B0FA80F303F12002B5FA85F3E8
:100DE000002D8FD1F2E700BF0000000000000000DE
:100DF0000B4610B51B688B4204D09C6882689442F5
:100E0000F8D219464B68016043604860186010BD15
:100E1000024B034A9B699A6130BFFDE7D81200205C
:100E200050770008000000000000000000000000F3
:100E3000EFF30983203383F30988002383F31188B8
:100E400070470000000000000000000000000000EB
:100E500072B6314A82F30988022383F31488BFF300
:100E60006F8F2E4B196841F00101196018682B49EA
:100E70008407FBD5086800F0F9000860002048608E
:100E80005868264910F00C0FFAD1486840F4E01079
:100E90004860086840F08070086018681F49800149
:100EA000FBD511241E4848601E480460486840F085
:100EB00002004860596801F00C010829FAD14FF08E
:100EC0005530194B19498B4202D243F8040BFAE70B
:100ED0004FF05531164B934202D243F8041BFAE708
:100EE000144A154B15498B4204D252F8040F43F8AB
:100EF000040BF8E70021124B124A934202D243F846
:100F0000041BFAE7104C114DAC4203D254F8043BD9
:100F10009847F9E7FFF714F9000800200010024095
:100F200000641C000020024000000020000400209B
:100F3000000400204CA500080008002058080020EC
:100F4000F8080020CC1E00204001000840010008E5
:100F5000024A136B01331363704700BFD81200209D
:100F60000D4BC2685B6830B5D0E904458B60013237
:100F7000C26082689B1A4268E41845F100059342FA
:100F80008360C0E9044501D9436030BD02689342E3
:100F900038BF036030BD00BF001000E0000000005B
:100FA0000E4B30B55A680E4BC1689C6A836801319C
:100FB000D31A1B1B4268D0E90445E41845F100052B
:100FC0009342C1608360C0E9044501D9436030BDEC
:100FD0000268934238BF036030BD00BF001000E0DC
:100FE000D8120020000000000000000000000000F7
:100FF0000148FFF7D5BF00BF281300200000000004
:101000000148FFF7CDBF00BF101300200000000013
:10101000014B5B6883607047001000E00000000037
:101020000148FFF7F5BF00BF2813002000000000B3
:101030000148FFF7EDBF00BF1013002000000000C3
:101040000B4A936FD18C103323F8101C916943F82D
:101050000C1C416A43F8081C90F8201003F8041C8B
:1010600002F27C418B4228BF02F17C0393677047F8
:10107000D812002000000000000000000000000066
:101080001FB5044672B6484B484DA86618604848DC
:1010900002F0A6FF474803F06BFD6146464803F0A7
:1010A00067FD6946454803F063FD7146444803F017
:1010B0005FFD7946434803F05BFD434803F058FD6C
:1010C0000146424803F054FD0946404803F050FDF4
:1010D00011463E4803F04CFD19463D4803F048FDDB
:1010E0003C4803F045FD2146384803F041FD2946C0
:1010F000364803F03DFD3146344803F039FD3946AA
:10110000334803F035FD344803F032FD41462F48A3
:1011100003F02EFD49462D4803F02AFD51462B4889
:1011200003F026FD59462A4803F022FD21462B48AC
:1011300003F01EFD2A4802F053FF2A4802F050FF38
:10114000294E2C69A268E368009294F82220214677
:10115000013A019294F82020244856F82220029265
:10116000A26903921A6A03F003FD2469AC4201D01C
:10117000002CE7D16E461E483146AA6903F0F8FC00
:1011800000241C4856F8241003F0F2FCE31E9B07D1
:1011900002D1194803F0ECFC0134202CF1D117489E
:1011A00003F0E6FCFEE700BF146C0040D8120020FC
:1011B0005577000865770008717700087F77000889
:1011C0008C7700089A770008A777000875770008E1
:1011D0009E770008AF770008B7770008BF77000850
:1011E000CB770008D5770008607500080D780008F7
:1011F00036780008537800084C9C00085C7800089A
:10120000F8B50D46064610B10024012707E00A484C
:10121000FFF736FF07FA04F22A4203D10134002D0A
:10122000F8D108E056F82430002BF0D0204625EA0B
:1012300002059847F2E7F8BD40770008000000007B
:1012400038B51A4B1A689C6911681D464B601960C5
:1012500001219A6182F82010002284F82020A268DF
:101260001B6899689142FBD85A68236062602046E7
:101270005C601460FFF7E4FE6B6BA969013304F155
:10128000480048316B63FFF76BFEEFF30983E269B7
:10129000243B9A4202D90648FFF7F2FE034B21464F
:1012A0009869BDE83840FFF7EBBB00BFD8120020BB
:1012B000747800080000000000000000000000003A
:1012C000FFF7BEBF000000000000000000000000AB
:1012D00008B5054BDA6E12B91B6F002B02DC034810
:1012E000FFF7CEFE08BD00BFD812002083780008AB
:1012F00070B50646144CFFF7EBFF2368A5691A6822
:1013000085F82060226054600122284683F820205E
:10131000A361FFF795FE636BA169013305F14800F6
:1013200048316363FFF71CFEEFF30983EA69243B4E
:101330009A4202D90548FFF7A3FEA0692946BDE8F5
:101340007040FFF79DBB00BFD812002074780008E2
:1013500008B5054BDA6E002A02DB1B6F002B02DC9E
:101360000248FFF78DFE08BDD812002089780008DA
:1013700010B50446FFF7ECFF14B90B48FFF780FEE9
:10138000E368002BF9D0236821891A890A441A815D
:101390006268136023685A6000234FF6FF72E360AF
:1013A000024B9A8410BD00BF80760008D81200203E
:1013B000F8B505460C4616461F46FFF7C9FF0DB1A6
:1013C00006B114B90D48FFF75BFE0D4A2F61D369D2
:1013D000EE601989A14203D2641AA4B21B68F8E72F
:1013E00059682B6069605D600D602C8119890C1B48
:1013F0001C814FF6FF739384F8BD00BF007700088F
:10140000D8120020000000000000000000000000D2
:1014100008B5FFF75DFFFFF79BFF064B1A689B6956
:1014200092689B689A4203D9BDE80840FFF708BF5D
:1014300008BD00BFD812002000000000000000001E
:1014400070B586B00E460546FFF742FF4FF6FF73B4
:101450009E420D4C10D0A36931460C4A01A8FFF7FB
:10146000A7FF2846FFF744FFFFF772FF049B33B145
:1014700001A8FFF77DFF02E02846FFF739FFA369C7
:10148000586A06B070BD00BFD8120020711700085E
:1014900049B1064B42689B6918605A60436013600B
:1014A0000420FFF7CDBF4FF0FF307047D812002067
:1014B00010B50446FFF74CFF14B90C48FFF7E0FDE8
:1014C00094F82030002BF8D00F2BF6D00023A26820
:1014D00084F82030064B1B6899689142FBD25A6809
:1014E0002360626020465C60146010BD10760008C6
:1014F000D8120020000000000000000000000000E2
:101500002DE9F84306460F46FFF722FF0EB91A48A9
:1015100015E034684FF0000803E02269134207D158
:101520002468B44225D0E3683B43E360002FF4D144
:101530006568D4F80890FFF70BFF15B90F48FFF75F
:101540009FFDAB6B95F8202049EA03030A2AAB63A1
:1015500003D16A6A134206D1E2E70B2AE0D16A6A34
:1015600013409342DCD1C5F824802846FFF7A0FF42
:10157000D6E7BDE8F88300BFA07600083077000802
:1015800070B50546254B9E69FFF7A2FE15B92448A4
:10159000FFF776FDAC68002C3BD0B368A2689A4296
:1015A00028D2A36094F82030062B0ED0072B18D039
:1015B00003BB012384F8203094E80C001A602268F1
:1015C00020465360FFF774FF14E094E80C001A60A3
:1015D000226820465360616AFFF70AFC636A9C68D0
:1015E000DBE794E80C001A60226820465360616AC9
:1015F000FFF7FEFB30462946FFF7FAFB756206202F
:10160000FFF776FEAB68B342C1D1F36BAB42BED1FC
:1016100070BDF36BAE60EB60F56370BDD812002057
:10162000207700080000000000000000000000001B
:1016300008B5036873B193F82020032A02D0064846
:10164000FFF71EFD0022026059621846BDE80840FF
:10165000FFF72EBF08BD00BFC075000800000000E6
:1016600008B50E4B9C69606204F12805A06AA84287
:1016700004D00368A362FFF71BFFF7E794F821305B
:101680000F209B0701BF226963691A61226908BFA5
:101690005361FFF72DFE0248FFF7F2FCD81200203D
:1016A0003079000800000000000000000000000089
:1016B00008B5202383F31188064AD36E002B01DD81
:1016C000116F11B10448FFF7DBFC013BD36681F3D6
:1016D000118808BDD81200208F7800080000000093
:1016E00008B5202383F31188064AD36E002B01DB53
:1016F000116F11B10448FFF7C3FC0133D36681F3C6
:10170000118808BDD812002094780008000000005D
:1017100008B5064BDA6E002A02DD1A6F002A02DCD9
:101720000348FFF7ADFC00221A6708BDD81200205D
:101730009978000800000000000000000000000090
:1017400008B5064BDA6E002A01DD1A6F12B10448A3
:10175000FFF796FC01221A6708BD00BFD8120020CF
:101760009E7800080000000000000000000000005B
:1017700038B50446202383F31188FFF751FCFFF7A7
:10178000DFFF94F820300025072B1AD8DFE803F09C
:101790000419190B140E1914FFF7BAFFFFF728FCF0
:1017A00085F3118838BD636A1D600AE0656AFFF73A
:1017B000CFFDAB680133AB6094E80C001A6022687F
:1017C00053604FF0FF3320466362FFF771FEFFF76F
:1017D0009FFFFFF70DFC002383F3118838BD000045
:1017E00008B5054BDA6E12B9196F002902DC0348FF
:1017F000FFF746FC1A6708BDD8120020A37800083E
:1018000008B5FFF7EDFFFFF7FBFB074B9A691B6875
:1018100092689B689A4202D20448FFF731FC002389
:1018200083F3118808BD00BFD8120020107700088C
:1018300008B5FFF7D5FFFFF7E3FB074B9A691B6875
:1018400092689B689A4202D20448FFF719FC002371
:1018500083F3118808BD00BFD812002090760008DD
:1018600008B5FFF7BDFFFFF7CBFB074B9A691B6875
:1018700092689B689A4202D20448FFF701FC002359
:1018800083F3118808BD00BFD8120020307600080D
:1018900008B5FFF7A5FFFFF7B3FB074B9A691B6875
:1018A00092689B689A4202D20448FFF7E9FB002342
:1018B00083F3118808BD00BFD812002020760008ED
:1018C00008B5FFF78DFFFFF79BFB074B9A691B6875
:1018D00092689B689A4202D20448FFF7D1FB00232A
:1018E00083F3118808BD00BFD8120020607600087D
:1018F00008B5FFF775FFFFF783FB074B9A691B6875
:1019000092689B689A4202D20448FFF7B9FB002311
:1019100083F3118808BD00BFD8120020F0750008BD
:1019200008B5FFF75DFFFFF76BFB074B9A691B6874
:1019300092689B689A4202D20448FFF7A1FB0023F9
:1019400083F3118808BD00BFD8120020D0750008AD
:1019500008B5054BDA6E0AB91A6F12B10348FFF7E2
:101960008FFB01221A6708BDD8120020A878000852
:1019700008B5202383F31188FFF75AFBBDE8084020
:10198000FFF7E6BF000000000000000000000000BC
:1019900010B52023044683F31188FFF749FBFFF7B6
:1019A000D7FFFFF7D5FC1049104A08681268E31DFD
:1019B00023F00703121A9A4223BF1B180B60044638
:1019C0000024FFF70DFFFFF71BFB094B9A691B680B
:1019D00092689B689A4202D20648FFF751FB0023A7
:1019E00083F31188204610BDB00D002000090020AF
:1019F000D81200204076000800000000000000001F
:101A000008B5202383F31188FFF712FBBDE80840D7
:101A1000FFF79EBF00000000000000000000000073
:101A20002DE9F04704460F469946D0F81C8015462C
:101A300012B91A48FFF724FBFFF7E2FF0026FFF771
:101A400087FCA26842B920464946FFF721FD0028DD
:101A5000F5D0FFF705FF1DE06369013AA2605A1C4B
:101A600062613A7807F1010A1A70236962699A4241
:101A700024BFE3686361B8F1000F01D02046C0477E
:101A8000FFF7EEFE013D06F1010603D0FFF7B8FFB8
:101A90005746D4E73046BDE8F08700BF50790008CC
:101AA0003030FFF7BDBF0000000000000000000064
:101AB00030304FF6FF73FFF7B3BF000000000000A7
:101AC000F8B504460E461746FFF79AFFFFF740FCAD
:101AD000A3684BB920463946FFF7DAFC051EF5DA54
:101AE000FFF7BEFE2846F8BD013BA36063695A1CA0
:101AF00062611E70236962699A4224BFE368636170
:101B0000E3690BB120469847FFF7AAFE0020F8BD15
:101B10003030FFF7D5BF00000000000000000000DB
:101B200030304FF6FF72FFF7CBBF0000000000001F
:101B30002DE9F843044688469946C669174612B906
:101B40001748FFF79DFAFFF75BFF00250EB120460F
:101B5000B047FFF7FDFBA06840B920464946FFF7B4
:101B600097FC0028F5D0FFF77BFE15E0A36901384C
:101B70005A1CA261A0601B7808F805302369A2698D
:101B800001359A4224BFE368A361FFF769FEAF42C3
:101B900002D0FFF735FFD9E72846BDE8F88300BF3C
:101BA000D0760008000000000000000000000000E7
:101BB0000C30FFF7BDBF0000000000000000000077
:101BC0000C304FF6FF73FFF7B3BF000000000000BA
:101BD00070B504460E46FFF713FFE36943B1204694
:101BE000984705E020463146FFF752FC051E0FDB03
:101BF000FFF7AEFBA368002BF4D0A269013BA36002
:101C0000531CA36115782269934224BFE368A36142
:101C1000FFF726FE284670BD00000000000000000F
:101C20000C30FFF7D5BF00000000000000000000EE
:101C30000C304FF6FF71FFF7CBBF00000000000033
:101C40001F4B2DE9F0419E69054610B91D48FFF76D
:101C500017FA202383F31188FFF7EAF9FFF778FEDC
:101C6000F46B002CF2D0A768B742EFD1AC42EDD1B3
:101C7000E668FE63FFF72CFB2568A5421AD0D7F86B
:101C8000408056B1FFF724FB3368B34203D09B6812
:101C9000984538BF9846F668F3E72B68C7F8088080
:101CA00023605C60EB6BA560E3602846EC6304F0A6
:101CB00087F801E00023AB60BDE8F041FFF700BE0C
:101CC000D8120020E07600080000000000000000AC
:101CD00038B50446202383F31188FFF7A9F9FFF7ED
:101CE00037FEFFF7F5FA0CB9174826E0A36822681B
:101CF000002B02DBA242F7D101E0A242F4D0013B6B
:101D0000002BA360114D0CDAAB6905205C626268A0
:101D10001C605A6063601360FFF7EAFAAB695C6AA3
:101D200000E00024FFF75CFDFFF76AF9AA692B6861
:101D300092689B689A4202D20548FFF7A1F90023F6
:101D400083F31188204638BDC0760008D8120020E1
:101D50000076000800000000000000000000000005
:101D60002DE9F04104464FF0200888F31188FFF771
:101D70005FF9FFF7EDFD94F822500DB950480FE0E0
:101D8000013D504EEDB284F82250FFF729FDFFF7D8
:101D900037F9B269336892689B689A4202D24A481E
:101DA000FFF76EF9002383F31188002D40F0868041
:101DB00094F820300F2B40F0818094F8213003F00C
:101DC0000303012B03D0022B56D0BDE8F08122691A
:101DD0006369A4F108061A612269536154F8085C2A
:101DE00005F10807103588F31188FFF721F9FFF78F
:101DF000AFFD2846FFF7C4FBFFF762FD3B469E425E
:101E000006D35A6808321A44964201D22F48C7E7CF
:101E1000BB421A6801D09E4227D90AB1964224D209
:101E200054F8040C44F8082C1E6000F1080154F822
:101E3000087C7218BA4201BF52681218083244F87E
:101E4000042C586808BF725800F10801194408BFF3
:101E500044F8082C8E420AD154F8042C024408326B
:101E60005A6054F8082C1A6001E01346C7E7284668
:101E7000BDE8F041FFF7E4BE22696369676C1A614F
:101E80002269536188F31188FFF7D2F8FFF760FDEC
:101E9000FFF75EFA0FB90E4882E73B6823603C60AB
:101EA000FFF79EFCFFF7ACF8B269336892689B6855
:101EB0009A4201D2074873E785F31188BDE8F081A3
:101EC000F0760008D8120020E0750008B075000810
:101ED000A075000850760008000000000000000017
:101EE00008B5202383F31188FFF7A2F8BDE8084066
:101EF000FFF72EBD00000000000000000000000001
:101F0000044608B5FFF7ECFF2046FFF7A9FB0000E9
:101F100010B50446FFF7E4FF14B90548FFF7B0F821
:101F200021460820FFF78CFABDE81040FFF7F8BC07
:101F300040790008000000000000000000000000E0
:101F40002DE9F0411746984604460D460246FF2308
:101F500000F16006B24202D002F8013BFAE73246D5
:101F6000552163199A4202D202F8011BFAE7FFF7E2
:101F7000B7FFFFF7EDF934B1E72D04D97F2F02D871
:101F8000B8F1000F02D11F48FFF77AF8069B243DF5
:101F90006219E26044F8058053601B4B04F148006D
:101FA00013620223012284F82030002384F82220C7
:101FB000164AA760516922616161546104F12802E7
:101FC00084F82130E363A363A36127640C61A262F8
:101FD00004F12C022263E2624FF0FF32E364A26458
:101FE0002365002263650023E661C4E91623FFF739
:101FF0000FF8204603F0E4FEFFF792FC2046BDE810
:10200000F08100BF70760008910A0008D812002005
:10201000202383F311880F4B5B6813F4006315D002
:10202000EFF309834FF0807243F8042CA3F12002F0
:1020300082F30988084A1168926989689268914216
:102040008CBF064A064A43F8082C704783F3118870
:10205000704700BF00ED00E0D8120020A70A00087A
:10206000BA0A0008000000000000000000000000A4
:1020700008B5FEF76DFFFFF733FB084B084A1968F8
:1020800001F00F01596013680BB150689847FFF7D2
:102090000FFBBDE80840FFF7BBBF00BF00000240D8
:1020A0007817002000000000000000000000000081
:1020B000FEE700000000000000000000000000003B
:1020C000034A93899BB243F080039381704700BF1A
:1020D0000038014000000000000000000000000087
:1020E0000B0710B5446B02D50948FEF7C9FF036B17
:1020F00019680A6822F00F020A60197A5A680F23D9
:102100008B401360A3889BB243F40073A38010BD7F
:10211000107C00080000000000000000000000002B
:1021200008B5FEF715FFFFF7DBFA4FF480220748EA
:10213000074B12215A614368D3F894309847FFF750
:10214000B7FABDE80840FFF763BF00BFF8080020FA
:10215000000401400000000000000000000000003A
:1021600008B5FEF7F5FEFFF7BBFA4FF4003207485B
:10217000074B11215A614368D3F88C309847FFF719
:1021800097FABDE80840FFF743BF00BFF8080020FA
:1021900000040140000000000000000000000000FA
:1021A00010B5FEF7D5FEFFF79BFA1A4B5C6904F4F5
:1021B0007C425A61620504D517480A2143685B6D69
:1021C0009847230504D514480B214368DB6D9847D5
:1021D000E00404D510480C2143685B6E9847A104C5
:1021E00004D50D480D214368DB6E9847620404D581
:1021F00009480E2143685B6F9847230404D50648BD
:102200000F214368DB6F9847FFF752FABDE8104093
:10221000FFF7FEBE00040140F808002000000000A7
:1022200010B5FEF795FEFFF75BFA174B5C6904F4F7
:1022300078725A61A30604D5144805214368DB6A05
:102240009847600604D51148062143685B6B9847A0
:10225000210604D50D4807214368DB6B9847E2054A
:1022600004D50A48082143685B6C9847A30504D548
:10227000064809214368DB6C9847FFF719FABDE867
:102280001040FFF7C5BE00BF00040140F808002061
:1022900008B5FEF75DFEFFF723FA10220648074B4C
:1022A00004215A6143685B6A9847FFF701FABDE869
:1022B0000840FFF7ADBE00BFF80800200004014051
:1022C00008B5FEF745FEFFF70BFA08220648074B54
:1022D00003215A614368DB699847FFF7E9F9BDE8D4
:1022E0000840FFF795BE00BFF80800200004014039
:1022F00008B5FEF72DFEFFF7F3F904220648074B59
:1023000002215A6143685B699847FFF7D1F9BDE83C
:102310000840FFF77DBE00BFF80800200004014020
:1023200008B5FEF715FEFFF7DBF902220648074B5A
:1023300001215A614368DB689847FFF7B9F9BDE8A6
:102340000840FFF765BE00BFF80800200004014008
:1023500008B5FEF7FDFDFFF7C3F901220648074B5C
:1023600000215A6143685B689847FFF7A1F9BDE80F
:102370000840FFF74DBE00BFF808002000040140F0
:1023800008B5FEF7E5FDFFF7ABF9084B1968C1F397
:1023900003610A065A60064A136B0BB1506B9847EB
:1023A000FFF786F9BDE80840FFF732BE00000240A3
:1023B000781700200000000000000000000000006E
:1023C00008B5FEF7C5FDFFF78BF9084B1968C1F397
:1023D00003510A055A60064A936A0BB1D06A9847BE
:1023E000FFF766F9BDE80840FFF712BE00000240A3
:1023F000781700200000000000000000000000002E
:1024000008B5FEF7A5FDFFF76BF9084B1968C1F396
:1024100003410A045A60064A136A0BB1506A98478E
:10242000FFF746F9BDE80840FFF7F2BD00000240A3
:1024300078170020000000000000000000000000ED
:1024400008B5FEF785FDFFF74BF9084B1968C1F396
:1024500003310A035A60064A93690BB1D069984761
:10246000FFF726F9BDE80840FFF7D2BD00000240A3
:1024700078170020000000000000000000000000AD
:1024800008B5FEF765FDFFF72BF9084B1968C1F396
:1024900003210A025A60064A13690BB15069984732
:1024A000FFF706F9BDE80840FFF7B2BD00000240A3
:1024B000781700200000000000000000000000006D
:1024C00008B5FEF745FDFFF70BF9084B1968C1F396
:1024D00003110A015A60064A93680BB1D068984705
:1024E000FFF7E6F8BDE80840FFF792BD00000240A4
:1024F000781700200000000000000000000000002D
:1025000008B5FFF705F9FEF773FD002383F3118883
:1025100008BD0000000000000000000000000000F6
:1025200008B5202383F31188FEF77AFDBDE8084043
:10253000FFF706B9000000000000000000000000E6
:102540002DE9F0415D4CFEF703FDFFF7C9F8666F1A
:10255000B7893588BFB2ADB2EB050BD5FFF7E0FF09
:10256000201D4FF40071FEF7CBFF4FF6FF63338061
:10257000FFF7C6FFFFF7D4FFDFF84081A8062ED58E
:10258000280713D015F0080F0CBF00218021EA079F
:1025900048BF41F02001AB0748BF41F040016D0743
:1025A00048BF41F480714648FEF7AAFFFEF7D0FE0F
:1025B000B588FEF7CDFE6369EDB21BB94048042132
:1025C000FEF79EFFFEF7C4FEFEF7C2FE236A626AB4
:1025D000934240D1D8F81420002A3CD04FE0FFF7B6
:1025E0008FFF39061AD52A0618D5FFF799FFFEF78F
:1025F000AFFEFEF7ADFEA36C626C30489A4243D149
:10260000826B002A40D004300821FEF779FF27F0C2
:10261000C00343F04003B381FFF772FF6B0614D58C
:10262000FFF77EFFFEF794FE626CA36C23489A428C
:1026300002D1836B002B3CD14FF6BF7327F04007CC
:10264000BFB2B7813380FFF75BFFFFF731F8BDE81A
:10265000F041FFF7DDBC6269013262615A1C2262FF
:102660001D70226AE3699A4203D3D8F81830C8F87B
:102670002030144803F064FD3588ADB27EE7104881
:102680008021FEF73DFFF7E7A26B0C490132A26300
:102690005A1CA26493F80080236C9A4201D3CB6B3E
:1026A0008B6409481FFA88F803F04AFDA6F80480F5
:1026B000B2E704301021FEF723FFBDE7B40D002080
:1026C000B80D0020C00D0020E40D00200000000027
:1026D0002DE9F047FEF73CFC2024FFF701F884F3D6
:1026E0001188FEF79DFCFFF72BF8FEF731FEFEF791
:1026F0002FFE1F4AD38C174601339BB2D384134657
:1027000053F81C1F99421E4610D11A4A1368013310
:102710001360FEF7FDFFFEF76BFC002383F31188C7
:10272000FEF7C6FFBDE8F047FFF772BC91462546AD
:102730000B89013B0B81FC69B4F80880B8F1000FEC
:10274000E3D12368D4F80CA0C4F80C805E60C9F80B
:102750001C30FEF7DDFFFEF74BFC88F31188206983
:10276000D04785F31188FEF75BFCFEF7E9FFE2E74F
:10277000D8120020341800200000000000000000E3
:1027800070B5464C636B9D8AFEF7E2FBADB2FEF777
:10279000A7FF05F45F43626B83F47F4383F0FF037D
:1027A0009382236B1868016821F00F010160187A89
:1027B00059680F2303FA00F00860E16A0E68306878
:1027C00020F00F0030604868097A8B40036005F400
:1027D00080739BB203B10123A360AB0548BFA3681C
:1027E0002E4844BF43F00203A36094F838308BB9FD
:1027F0006E051FD5938823F400731B041B0C938074
:1028000013889BB243F400731380836843F004037E
:1028100083600FE0938A23F480631B041B0C938274
:10282000036E13B1416D0139984700236365E36D71
:10283000013BE365280542BFA36843F00803A3609A
:10284000690442BFA36843F02003A360EA0442BFC7
:10285000A36843F01003A3602B0442BFA36843F0B6
:102860004003A360A36893B1202383F31188FEF78C
:10287000D7FBFEF765FF0A486FF00101FEF7D8FEAF
:10288000FEF746FFFEF7B4FB002383F31188FEF743
:102890000FFFBDE87040FFF7BBBB00BFB8170020BB
:1028A000D41700200000000000000000000000001D
:1028B0002DE9F041794EFEF74BFBFEF711FF746BEB
:1028C00096F83820238BB4F814809BB21FFA88F84E
:1028D00047463546002A7ED148EA0343704A23F032
:1028E0007F43934219D006D8073A93420AD0013267
:1028F000934217D06AE06B4A93422ED00232934241
:1029000038D063E0338C1A0A0AD003F0010343F095
:10291000F00302F00602134302E0338CC3F34703D3
:10292000238253E0A38823F400731B041B0CA380B1
:10293000F36A1A68136843F001031360A3889BB21B
:1029400043F48053A3805368012B3FD8238823F49A
:1029500080631B041B0C238038E0A38823F40073DE
:102960001B041B0CA380336B1A68136843F001032C
:1029700013602BE0238AF36A1B685D684DB1338CCA
:1029800043F00103338423889BB243F4A063238084
:102990007DE0A38823F400731B041B0CA380238811
:1029A0009BB243F400732380202383F31188FEF746
:1029B00037FBFEF7C5FE06F11C002946FEF738FE80
:1029C000FEF7A6FEFEF714FB85F3118818F00A0F38
:1029D0005DD0238B5BE018F00A0F16D0316C19B173
:1029E000F36C0BB130469847696D2C4811B1036EFA
:1029F00003B198470023A78AAB642B646B65238BD4
:102A00006B6EBFB20BB12548984738060ED5EB6DFB
:102A1000296D5A1CEA65CB5C23826B6D01336B65B3
:102A2000AB6D9A4222BF00221C4BDA6579060FD5A6
:102A30002B6CEA6B01332B64AB6C591CA964218AA3
:102A4000D154AA6C6B6C9A4222BF0022134B9A6439
:102A5000FA060DD5A78A2388BFB29BB243F00103C3
:102A60002380EB6C13B10D48016C984700232B6455
:102A70007B050CD5A38A23F480631B041B0CA38263
:102A80002B6E13B10548416D984700236B65FEF727
:102A90000FFEBDE8F041FFF7BBBA00BFB81700203A
:102AA0000800030082000700000000000000000092
:102AB00038B50B070446426B02D51A48FEF7E0FA18
:102AC000C36A1868016821F00F010160187A59681B
:102AD0000F2383400B6094F8385015BB938823F480
:102AE00080531B041B0C9380138823F480631B0406
:102AF0001B0C138013889BB243F4007313802023B4
:102B000083F31188FEF78CFAFEF71AFE04F11C001D
:102B10002946FEF78DFDFEF7FBFDFEF769FA85F30A
:102B2000118838BD107C0008000000000000000083
:102B30000EB403B503AA52F8041B019200F018FB6F
:102B400002B05DF804EB03B0704700000000000025
:102B5000002913B5044606DD19491A4A02B0BDE83A
:102B60001040FFF7E5BF1849184AFFF7E1FF20467C
:102B70001749184AFFF7DCFF20461749174AFFF7A5
:102B8000D7FF20461649174AFFF7D2FF20461649BD
:102B9000164AFFF7CDFF20461549164AFFF7C8FF32
:102BA00020461549154AFFF7C3FF154B20460093F1
:102BB0001449154A154BFFF7BBFF02B010BD00BF0B
:102BC0001C7C0008287C00082D7C0008407C000844
:102BD000497C00085C7C0008667C0008797C000861
:102BE000817C0008947C00089E7C0008B17C000871
:102BF000C67C0008D97C0008037D0008167D00080B
:102C00004C7D0008257D00083C7D0008487D0008BB
:102C100010B510B91248FEF733FA0121114C427A6F
:102C2000236801FA02F21A42F4D023EA0202837AFC
:102C3000226003F01F04A14058090B4C203044F8D7
:102C40002010002103F1604303F5614383F8001372
:102C5000530601BF054A536923F00103536110BDB8
:102C6000E07B0008B417002000E100E00010024003
:102C700008B5FEF7B5FDFEF7C3F9074B9A691B6867
:102C800092689B689A4202D20448FEF7F9F9002341
:102C900083F3118808BD00BFD8120020707D0008A2
:102CA000002970B5064602DD1149124A1CE02023B6
:102CB00083F31188104DFEF7BBF9FEF749FEEC8C4B
:102CC000FEF78EFDFEF79CF9AA692B6892689B6857
:102CD000A4B29A4202D20948FEF7D2F9002383F344
:102CE0001188304622460649BDE87040FFF720BFF4
:102CF0001C7C0008557D0008D8120020007C0008CC
:102D00005D7D0008000000000000000000000000E1
:102D1000014903F0E5BA00BF807D00080000000013
:102D200042F6FC23984207B511D8400800F4FC5045
:102D3000094B42001A803F238DF80500000A8DF8E8
:102D4000060001A88DF8043003F0BAFA01E04FF054
:102D5000FF3003B05DF804FB6812002000000000A3
:102D6000B0F5FC5F07B50FD80A4B00F4FC50188093
:102D700014238DF80500000A8DF8060001A88DF8CF
:102D8000043003F09DFA01E04FF0FF3003B05DF82E
:102D900004FB00BF6E1200200000000000000000D5
:102DA000B0F5964F07B510D847F6F073094A0340BF
:102DB000138015228DF8053001A81B0A8DF8042018
:102DC0008DF8063003F07CFA01E04FF0FF3003B0DD
:102DD0005DF804FB66120020000000000000000007
:102DE00038B50D46FFF7BCFF04462846FFF7D8FF6D
:102DF000204338BD0000000000000000000000007B
:102E0000484B494A9B6983B59A61C820FFF780F80F
:102E100003F00EFD0221402001AA0B4604F0A0F9A8
:102E200058B902219DF80530402023F001038DF8A8
:102E3000053001AA0B4604F01BFA3C4D3C4E03F052
:102E40004FFD4CF61450FFF763F803F0F1FC2B78BC
:102E5000002BF4D1374C3F20214603F039F910B94B
:102E600023885B0023802388B3F5807F03D840F656
:102E70008E50FFF755FF00232F4C2046238000F093
:102E800047FE40B1204600F043FE20B14FF4806081
:102E900043F2381143E0294C06202146022204F077
:102EA000CFFA0028CBD123881B0A13F00F0223800E
:102EB00004D12349086808B10A6004E09B09022B89
:102EC00004D1012A02D101F0CBF8B8E71D4F3846F2
:102ED00000F04EFE0028B2D11B4C50202D2122467E
:102EE00004F0B6F90028AAD13A88B4F900309A4221
:102EF00007DC01F005F820B1B368DB0501D401F06F
:102F0000EFF9104C204600F01BFE002897D10F4F20
:102F1000384600F01DFE002891D138882188FFF73F
:102F20005FFF8CE7D8120020927D0008E40B0020A0
:102F30000008014068120020601200206212002088
:102F400020080020641200206C1200206A12002069
:102F5000002808B507DD0868114600F0D1F8B0FA7E
:102F600080F0400908BD002008BD000000000000FE
:102F70002DE9F041124D07460E463F202946904666
:102F800003F0A6F80F490446142003F0A1F80E49F7
:102F90000443152003F09CF82B8820435B009BB270
:102FA0002B80B8F1000F01D0A8F8003017B1054B05
:102FB0001B883B8016B1044B1B883380BDE8F08131
:102FC000681200206E12002066120020000000002F
:102FD000054B1A6832B902221A60044A12780AB103
:102FE00001221A601868704740110020080900206B
:102FF000431E002013F8012F0130002AFAD1704738
:1030000003460244934202D003F8011BFAE77047DB
:10301000F0B5002A6DD088426BD033D240EA01036C
:103020009F0716D080EA01039E0706D1032A04D920
:1030300001F00303C3F1040300E01346D21A441E57
:10304000CD1811F8016BA94204F8016FF9D10344BE
:1030500000E00346940809D0A4000D1F1E1955F87E
:10306000047F43F8047BB342F9D1214412F00302F8
:103070003FD0013B0A4411F8014B914203F8014F44
:10308000F9D1F0BD8318114443EA0104A5071E4697
:1030900015D083EA0104A40704D1042A02D901F05F
:1030A000030400E014460D46121B671A15F801EDE3
:1030B000FD4206F801EDF9D164422344214496080B
:1030C0000DD01C4635460F4657F804ED013D44F837
:1030D00004EDF9D16FF0030474432144234412F04A
:1030E000030206D0521A11F8014DD14203F8014DE6
:1030F000F9D1F0BD00000000000000000000000059
:1031000030B5074C451E15F8010F11F8013B225C44
:10311000E35C9A4202D10028F5D100E0D01A30BD1C
:10312000A081000800000000000000000000000076
:1031300030B5024612F8013B43B10D4615F8014B7C
:1031400014B19C42FAD130BD1046F2E7184630BDAA
:10315000034670B51A460D4612F8016B15F8014B7F
:103160001CB1B442FAD11346F4E7181A70BD00003E
:103170002DE9F04F0B4682464FF00A0987B01978C7
:103180005E1C002900F0D78025290AD0DAF800302B
:1031900050469B6801929847019A93465A46334697
:1031A000EDE7597800252D2908BF9E1C37780CBF04
:1031B00001230023302F18BF2027019308BF0136B9
:1031C00016F8013BA3F13001C9B2092903D92A2B12
:1031D00004D11178043209FB0515F1E72E2B4FF0CD
:1031E00000010DD116F8013BA3F13000C0B209284F
:1031F00003D92A2B04D11078043209FB0101F1E72D
:1032000003F0DF004C2803D1307808B103460136C3
:10321000632B07D1136806AC02F1040B04F80C3DD4
:1032200020270BE056D84F2B56D00AD9552B58D013
:10323000582B61D0934606AC04F80C3D0DF10D00FF
:1032400013E0442B54D1116802F1040B0029B8BFDC
:103250002D234FF00A02BDBF8DF80C3049420DF10D
:103260000D0003A802F04CFF03ACC4EB0008019B67
:10327000C8EB050525EAE575B3B96D42A5B121781E
:103280002D2909D1302F07D1DAF800205046926855
:103290009047013408F1FF38DAF800205046926870
:1032A000394690470135F7D1B8F1010807D4DAF86B
:1032B00000205046926814F8011B9047F4E7002D57
:1032C0003FF46CAFDAF8003050469B6839469847B7
:1032D000013DF4E76F2B01D1082303E00ED9752BD4
:1032E00008D10A2302F1040B116803A81A46B9E7B2
:1032F000492B06E0782B06D11023F3E7642BA2D0EC
:10330000692BA0D096E7732B94D10C4B146802F173
:10331000040B002C08BF1C4647F6FF73002908BFAA
:1033200019462046214403781BB1884201D0013060
:10333000F9E7202799E707B0BDE8F08FA47D0008E2
:103340000EB403B503AA52F8041B0192FFF710FF55
:1033500002B05DF804EB03B070470000000000000D
:103360000EB403B503AA52F8041B0192FFF700FF45
:1033700002B05DF804EB03B07047000000000000ED
:103380002DE9F04385B004460E461546FFF720FEB2
:10339000012804D020467E49FFF7E2FFF4E0022E28
:1033A00061DD28687B49FFF7ABFE8146002840F0CD
:1033B0008C804946686802F0FBFE49468046A86852
:1033C00002F0F6FE032E074605D0E868494602F0F3
:1033D000EFFE064601E04FF48036B8F5FC5F02D9F7
:1033E00020466D49CCE0B7F5964F02D920466B498F
:1033F000C6E0B6F5803F21D042F6FC239E4202D9BA
:1034000020466749BCE0FF2E02D820466549B7E058
:10341000424665493B4620460096FFF7A1FF1FFA4A
:1034200088F0FFF79DFC0546B8B2FFF7B9FC0543ED
:10343000B0B2FFF775FC45EA00020BE042462046B9
:103440005A493B46FFF78CFF1FFA88F0B9B2FFF7E5
:10345000C7FC0246002A204603DA5549FFF780FFE1
:1034600090E054498CE018D153492868FFF748FE92
:10347000014650BB686802F09BFE42F6FC2398426E
:103480000546BDD8FF28C0D920464C492A46FFF73B
:1034900067FFA8B2FFF744FC74E0012E15D12F6836
:1034A00047493846FFF72CFE464D10B9204646499D
:1034B00007E038464549FFF723FE064628B920466F
:1034C0004349FFF74DFF2E705CE000232046414941
:1034D000ADF80830FFF744FF3A4B20461B780BB19C
:1034E0003D4900E03D49FFF73BFF03F0A1F9002310
:1034F00004AD25F8083D2946FE2002F0E9FD021E34
:10350000B2BF37493749BDF808202046FFF728FFEA
:1035100000232946FF20ADF8083002F0D9FD2046EF
:103520003149BDF80820FFF71BFF03A90DF10E027A
:103530000DF10A00FFF71CFD20462C49BDF80A20BA
:10354000FFF70EFF20462A49BDF80C20FFF708FFC1
:10355000BDF80E2020462749FFF702FF20462649E6
:10356000FFF7FEFE20462549FFF7FAFE20462449D4
:10357000FFF7F6FE20462349FFF7F2FE20462249D8
:10358000FFF7EEFE03F0ACF905B0BDE8F08300BF35
:10359000AB7D0008D2880008D07D0008F17D0008CE
:1035A000137E0008487E0008777E0008A67E00088B
:1035B000C77E0008D57E0008DA7E0008E07E00089D
:1035C000087F0008E40B00200E7F0008217F000820
:1035D000287F00083C7F0008537F00086F7F0008A9
:1035E0008C7F0008B07F0008CC7F0008E87F0008CF
:1035F000038000081E800008398000084A80000807
:1036000087800008C5800008F580000800000000E1
:103610002DE9F04390E89000714B724A9B6999B094
:103620009A6120467049FFF783FA0DF12008204681
:103630006E49FFF77DFA4646236820465B680DF128
:1036400007010122984700283DD09DF80710042962
:1036500004D120466649FFF76BFA34E0082901D00F
:103660007F2912D14645E7D0236808219B68204670
:103670009847236820219B68204698472368204666
:103680009B6808219847013ED6E70D290BD10025FC
:1036900020465849FFF74CFA3570404602A902F01F
:1036A00067FD814618E01F29C6D90DF15F039E42D0
:1036B000C2D2236820469B6898479DF807300136A0
:1036C00006F8013CB8E720464B49FFF731FA75E0B0
:1036D00003AB43F825000135002002A902F048FDA4
:1036E00038B1042DF4D120464449FFF721FA4FF0B8
:1036F0000009002218AB03EB850343F8542CB9F101
:10370000000F94D048463E49FFF7FAFC28B9002D37
:1037100054D020463B493A4A08E048463A49FFF728
:10372000EFFC28BB204625B13649374AFFF700FA9F
:103730007DE73649FFF7FCF9354E013506EBC50349
:1037400053F8082C22B120463249FFF7F1F9F4E78B
:1037500017B9204627492AE007F10805083555F82A
:10376000102C002AF5D020462A49FFF7E1F9F5E7A9
:10377000274E3068F0B14946FFF7C2FC08B1083661
:10378000F7E773682046294603AA98474FE749465A
:10379000FFF7B6FC0028F4D0083630680028F6D1D0
:1037A00020461D494A46FFF7C3F920461B49FFF74B
:1037B000BFF93CE7002FF3D03E46EEE7202383F32A
:1037C0001188FDF735FCFEF7C3F800211448FDF71A
:1037D00097FE0020FDF744FF002019B0BDE8F083FC
:1037E000D8120020268100082C81000841810008A1
:1037F000468100084B9C000849810008528100085E
:10380000678100081C7C00086C8100087181000839
:1038100024080020868100088A8100088D81000824
:10382000A40B0020000000000000000000000000C9
:103830002DE9F84319460646144610461D46544ADB
:103840000023FDF74DF90621C0F3032EC0F3031248
:103850004FEA103C02EB0E03634400F00F0001FB43
:103860000300CD230A2703FB00F14FEAD1280CEB1C
:10387000CC010A440EEB8E010A4402EB080103FB63
:1038800001F2D20A07FB121102EB4E024FF00D0EAD
:103890004FF000090EFB02FE4FEADE1E07FB1E2260
:1038A0000EEB8C0E03FB0EF3DB0A07FB180007FB85
:1038B00013EE3030303130320EF1300E3033DFF86D
:1038C000D480C0B2C9B2D2B25FFA8EFEDBB2A945D3
:1038D00008BFA045374606F105064ED30621C4F3BE
:1038E0000313C4F30325200B5A19024404F00F04F8
:1038F00001FB0244CD210A2601FB04FE4FEADE2E25
:1039000006FB1E4400EBC0021A44303405EB85036D
:103910003C70D41814EB0E0202D1781CBDE8F88379
:103920005143CB0A06FB132213EB450302F130028D
:103930007A7003D110B9B81CBDE8F8830D21594342
:10394000CA090A2101FB123312EB800203F1300392
:10395000BB7002D1F81CBDE8F883CD235343DB0ACA
:1039600001FB13223032FA7013B9381DBDE8F88319
:1039700030333B71781DBDE8F88306F8050C06F876
:10398000041C06F8032C06F802EC06F8013C9EE73E
:10399000A08601009F8601000000000000000000DA
:1039A0000022014B1A607047181000200000000030
:1039B00010F0010F0CBF4FF000420022C3039BB276
:1039C0001343064A1361A2F51F42E83A136823F035
:1039D000F10343F05003184310607047000C01409E
:1039E0000B4B10B51B68044603F0010398420DD041
:1039F000FFF7DEFF012C02D10648002102E02CB9BE
:103A000021460548BDE81040FDF77ABD10BD00BF56
:103A1000186C00400C090020040900200000000080
:103A200002461C21602003F013BC000000000000CF
:103A300002461A21602003F00BBC000000000000C9
:103A400002461821602003F003BC000000000000C3
:103A500002461421602003F0FBBB000000000000C0
:103A600002461221602003F0F3BB000000000000BA
:103A700002461021602003F0EBBB000000000000B4
:103A800002460E21602003F0E3BB000000000000AE
:103A900002460221602003F0DBBB000000000000B2
:103AA00002460021602003F0D3BB000000000000AC
:103AB00013B5022304460021402001AA03F050FB65
:103AC00028B99DF8043003F003030133237002B0DA
:103AD00010BD000000000000000000000000000019
:103AE00001460220024603F0ABBC000000000000CB
:103AF00001464F2003F09CBC0000000000000000C5
:103B000001460B2003F094BC000000000000000000
:103B10000146182003F08CBC0000000000000000EB
:103B20000146172003F084BC0000000000000000E4
:103B30000146102003F07CBC0000000000000000E3
:103B40000146152003F074BC0000000000000000D6
:103B50000146142003F06CBC0000000000000000CF
:103B600001460A2003F064BC0000000000000000D1
:103B70000146092003F05CBC0000000000000000CA
:103B80000146122003F054BC0000000000000000B9
:103B90000146132003F04CBC0000000000000000B0
:103BA00001461C2003F044BC00000000000000009F
:103BB000014601220D2003F0FBBB000000000000C5
:103BC00001460522222003F013BC00000000000083
:103BD00001460822212003F00BBC00000000000079
:103BE00001460C22202003F003BC0000000000006E
:103BF000F0B51D4C002A08BF22460024571E17F8B6
:103C0000016F651C26B9069DED060FD4202604E041
:103C1000059EB542F7D22C46F1E7013B5D1CAC4254
:103C200004DA884238BF06700130F6E705462E1ADE
:103C3000A64209DA8D4238BF167805F101053CBF6E
:103C400005F8016C0132F2E7002CACBF0219021C2E
:103C5000202610461D1A1544A54204DD884238BFAF
:103C600006700130F6E7F0BDA47D000800000000FA
:103C70002DE9F04F97B0239E054616F0400B89467C
:103C8000DDF880A0219C04D0BAF10A0B18BF4FF0D8
:103C9000010BF70606F0200148BF26F00106C9B265
:103CA00016F00208019117D0002A73F1000106DA1C
:103CB000524263EB4303013C4FF02D080CE07107C7
:103CC00003D5013C4FF02B0806E016F008081CBF96
:103CD0004FF0200804F1FF34BBF1000F0AD0BAF115
:103CE000100F01D0013C05E052EA0301A4F10204E7
:103CF00003D00AE052EA030104D1302301278DF8F2
:103D000014302CE0BAF10A0F24D0BAF1100F14BF0E
:103D10000321042100270AF1FF3C029105A9013784
:103D200001EB070E4948D1B201EA0C01415C019850
:103D3000CDF80CC001430EF8011C10461946029A3A
:103D4000FCF7BEFE02460B4652EA0301DDF80CC04A
:103D5000E4D104E005AF3846FFF76AFDC71B229B9C
:103D6000BB42B8BF3B4616F0110FA4EB03040ED1C3
:103D700021462A462020013904D44A4538BF107014
:103D80000132F8E724EAE472013C1544A41AB8F1C0
:103D9000000F04D04D4538BF85F800800135BBF1D8
:103DA000000F14D04D453CBF30222A70BAF1100FDD
:103DB00005F101020AD14A4538BF019A05F1020511
:103DC0003CBF42F0580205F8012C00E01546F2060F
:103DD00012D416F0010F14BF3020202021462A46AD
:103DE000013904D44A4538BF10700132F8E724EA9B
:103DF000E472013C1544A41A3022013B9F4204DCCA
:103E00004D4538BF2A700135F7E728463B46013B50
:103E100009D44D453CBF05AA9A5C05F1010538BFA0
:103E200005F8012CF3E7002FA8BFC019224603466E
:103E30002021013A04D44B4538BF19700133F8E70B
:103E4000002CA8BF001917B0BDE8F08FA0820008B1
:103E5000A0F16103192B98BF2030704700000000CB
:103E600020F02000413819288CBF00200120704725
:103E700010B50446FFF7F4FF30B9A4F1300009286B
:103E80008CBF0020012010BD012010BD00000000EB
:103E9000613819288CBF0020012070470000000005
:103EA000413819288CBF0020012070470000000015
:103EB000A0F13003092B07D920F020004138052854
:103EC0008CBF0020012070470120704700000000D7
:103ED000303809288CBF0020012070470000000006
:103EE000202805D0093804288CBF00200120704705
:103EF00001207047000000000000000000000000EA
:103F0000024B186800F00100704700BF186C0040B9
:103F100008B5FDF7FDFBFDF76BF8002383F311886F
:103F200008BD0000000000000000000000000000CC
:103F300008B5202383F31188FDF772F8BDE8084027
:103F4000FDF7FEBB000000000000000000000000C4
:103F500008B5064B1B6843B9FFF7EAFF0120FFF7DE
:103F60003FFDBDE80840FFF7D3BF08BD1810002093
:103F700008B5FFF7DDFF0020FFF732FD01220B4BF4
:103F80001A60FDF7E5F90A48C3680BB1FDF7F0F9CF
:103F9000084A002306484FF4FA71FDF709FAFFF7C3
:103FA000B7FF0022044B1A6008BD00BF18100020A4
:103FB00070120020A13900083C1800200000000009
:103FC00008B5FFF7B5FF0120FFF70AFDBDE808407F
:103FD000FFF79EBF0000000000000000000000008E
:103FE00010B50D240A4B01385B6F10F8012F72B128
:103FF0000A2A04D11A8892B21106FBD59C80017856
:104000001A8892B21206FBD58AB29A80EDE710BDEB
:10401000B40D0020000000000000000000000000BF
:1040200013B50221044601AA40200B4603F098F87C
:1040300078B99DF8053014B123F0080301E043F08E
:10404000080302218DF80530402001AA0B4603F039
:104050000FF902B010BD00000000000000000000D9
:10406000002121200A4603F0EBB900000000000007
:10407000831E022B73B506460D4636D80024B44283
:104080004FEA4401B4BF2A460022522001F0FE014B
:1040900003F07EF950BB0134B442F0D15220082124
:1040A0002A4603F075F908BB302016212A4603F092
:1040B0006FF9D8B91A220E4B302002FB0434238A40
:1040C000182103FB05F242F21073B2FBF3F292B235
:1040D00003F05EF950B9032302AA02F8013D0C2156
:1040E0000123522003F0C4F800E0012002B070BDAB
:1040F000C07900080000000000000000000000007F
:1041000013B502230021044601AA402003F028F839
:10411000014660B99DF8053001AA23F0180343EA6F
:10412000C4008DF805000223402003F0A1F802B07E
:1041300010BD0000000000000000000000000000B2
:10414000831E022BF7B5044600F281804020002137
:1041500001AA022303F004F800287CD19DF8043062
:10416000022C03F0FC0302D143F0010305E0032C11
:104170000CBF43F0020343F003038DF80430002129
:10418000402001AA022303F073F80146002861D100
:104190001A266643314D0721AA5B03F0F9F8AF19DF
:1041A0000146002856D10A217A8803F0F1F8014629
:1041B00000284FD11121BA8803F0EAF801460028FF
:1041C00048D11421FA8803F0E3F80146002841D1D0
:1041D00006F108031020EA5AEF1803F0D9F8002876
:1041E00039D1222002217A8803F0D2F898BB262008
:1041F0000821BA8803F0CCF868BB26200B21FA8886
:1042000003F0C6F838BB103630200821AA5B03F053
:10421000BFF800BB1A233544442000216A885C4360
:1042200003F0B6F8B8B944200221AA8803F0B0F828
:1042300088B944200521EA8803F0AAF858B9074B49
:1042400018342D211A5B502003F0A2F803E04FF040
:10425000FF3000E0084603B0F0BD00BFC0790008A1
:1042600008B5FDF7BDFAFCF7CBFE074B9A691B6852
:1042700092689B689A4202D20448FCF701FF00232F
:1042800083F3118808BD00BFD8120020B082000857
:104290000E4B10B51C68BCB90D4B1B68DB0713D463
:1042A000202383F31188FCF7C3FEFDF751FB0120A7
:1042B000FFF77EFB21460748FDF722F9FDF7A8F836
:1042C000BDE81040FFF7CCBF10BD00BF18100020A4
:1042D000186C00400C0900200000000000000000E5
:1042E00008B51A4B1B68DB0711D5202383F311880F
:1042F000FCF79EFEFDF72CFB0020FFF759FB14484E
:104300000021FDF7FDF8FDF783F8FFF7A9FF012273
:10431000104B1A60202383F31188FCF789FEFDF708
:1043200017FBFDF715F80C48C3680BB1FDF720F833
:104330000A4A002308484FF4FA71FDF739F8FFF7ED
:104340008FFF0022064B1A6008BD00BF186C0040AA
:10435000040900201810002070120020A139000864
:104360003C180020000000000000000000000000D9
:1043700010B5202383F31188104CFCF751FEFDF794
:10438000DFF9FCF7E5FFE36813B12046FCF7F0FF27
:10439000FCF7DEFFE36813B10848FCF7E9FF0748C4
:1043A0000A21074A0023FDF703F8FDF7B1F9FCF7EE
:1043B0001FFE002383F3118810BD00BF841200206C
:1043C0004144000800000000000000000000000060
:1043D00070B5202383F31188164CFCF721FEFDF7FE
:1043E000AFF9FCF7B5FFFCF7B3FFA5682368002D14
:1043F00002DBA34202D104E0A34202D10E48FCF743
:104400003FFE00236FF00106A3600135002D07DC9D
:104410006068436863601C60FDF74AF84662F4E731
:1044200002F056F9FDF774F9FCF7E2FD002383F37F
:10443000118870BDA4090020C0820008000000009F
:1044400070B5202383F31188FCF7EAFDFDF778F9B6
:10445000144B154C9E68A3F580639D682368C6F3D2
:1044600080369E42C5F3002508D016B10F480021C2
:1044700001E031460E48FDF743F8266063689D422F
:1044800008D015B10B48002101E029460A48FDF784
:1044900037F86560FDF73CF9FCF7AAFD002383F3CC
:1044A000118870BD000C014044110020A0090020BB
:1044B000D40B002010090020401000200000000054
:1044C00038B50446FCF744FFA568002D18DCFCF75E
:1044D0003FFF206815B9A04202D104E0A04202D1FA
:1044E0000848FCF7CDFD0135012DA56008D0036813
:1044F00023605C6000234362BDE83840FCF7D8BF0E
:1045000038BD00BFD082000800000000000000009D
:1045100008B5202383F31188FCF782FDFDF710F91D
:104520000548FFF7CDFFFDF7F3F8FCF761FD002329
:1045300083F3118808BD00BFA4090020000000001B
:104540002DE9F84F81460E46002900F09A804E4F23
:10455000012997F8008076D943464C4DDFF844A1F5
:1045600007F1010B0F442922B3FBF2F402FB1434D0
:104570000F2C39D19BF8003003F0C002802A5AD1A9
:1045800003F0040101F0FF00414A29B1012111604B
:10459000EA7B42F0040203E01060EA7B22F00402AE
:1045A00003F00303012BEA7303D005D3022B06D0DB
:1045B00041E0FFF7DDFC3EE0FFF7CAFC3BE0FFF720
:1045C000D7FCFFF7B5FCFCF7C3FE3248C3680BB15C
:1045D000FCF7CEFE2F484FF496712F4A0023FCF7CC
:1045E000E7FEFFF795FC26E0082C0BD19AF8003087
:1045F0009BF8002043EA0223CAF800309BF8003001
:104600002B7218E0092C03D19BF800306B7212E07A
:10461000282C07D19BF8003020495A000A6085F801
:10462000283008E0102C03D0A4F11403062B02D884
:104630009BF8003063550BF1010BBB4504F10103FE
:1046400091D102F065F8D9F8582008F1FF384644B6
:10465000B6FBF2F302FB13662023C9F85C6083F318
:104660001188FCF7DDFCFDF76BF80D48FFF728FF1C
:1046700002F02EF8FDF74CF8FCF7BAFC002383F3A8
:104680001188BDE8F88F00BF98120020A80B002009
:104690003C18002020180020C13F000838180020D6
:1046A000A4090020186C0040000000000000000079
:1046B0002DE9F843FFF724FC002800F0948001F076
:1046C000B7FB01F075FCFDF753F90023474C4FF0A1
:1046D0002009A3602360656BFEF7CAFA444B984635
:1046E000DE8CB6B206F13207BFB2BF1B89F3118868
:1046F000FCF79EFCFDF72CF92B8B9B0704D42B8831
:1047000003F400739BB243B1B8F826309BB29B1BF5
:10471000BB4260DAFEF7ACFAE8E702260420354A2D
:104720003549C2F8846082F82133C2F8840082F8E7
:104730002233CF6927F48007CF610F6947F48007E0
:104740000F610B61CF6947F48007CF61502182F878
:104750002113C2F88461566082F82213C2F88401E2
:104760005060264A4026E2632A226264244A268454
:10477000E264244AA36022652922A265224AA36436
:104780002266224A2364626694F83820E365012A8F
:10479000636522D00121154A82F838104FF4004297
:1047A0002A802B804FF41063AB8001F099FBAB881B
:1047B00023F400631B041B0CAB802E81AB889BB2DF
:1047C00043F4C063AB802B889BB243F4806343F017
:1047D00001032B8001E0052300E002232360BDE8F4
:1047E000F843FDF725B8BDE8F88300BFB8170020EF
:1047F000D812002000E100E00010024098120020D2
:1048000041450008A80B002011450008D1430008CD
:1048100008B5FCF7E5FFFCF7F3FB074B9A691B684B
:1048200092689B689A4202D20448FCF729FC002354
:1048300083F3118808BD00BFD8120020E082000871
:104840002DE9F04F1546074688461A4604464FF0B4
:10485000200985B046182B78002B00F07481252B99
:1048600001D1002109E0B44280F01E8123701BE1D8
:1048700008D92D2B0DD141F0100115F8013F2B2B3C
:10488000F6D10BE0202B0CD0232B0DD141F04001B1
:10489000F3E7302B08D141F00101EEE741F00401CC
:1048A000EBE741F00801E8E7A3F1300EBEF1090F94
:1048B000284610D84FF0000E4FF00A0A284615F887
:1048C000013BA3F1300CBCF1090F17D80AFB0E3ED7
:1048D000AEF1300EF2E72A2B0CD1D2F800E0013015
:1048E000BEF1000F02F1040307DACEF1000E41F031
:1048F000100102E04FF0FF3E00E01A4603782E2B35
:1049000023D1437800F1010CA3F13005092D12D811
:10491000654600204FF00A0A2B78AC46A3F1300B15
:10492000BBF1090F05F1010503D80AFB003030384F
:10493000F2E7134607E02A2B0CD100F1020C1068B5
:10494000131D002805DB1A4605E084464FF0FF30B2
:1049500001E01A4600209CF80030682B07D003F0D5
:10496000DF054C2D03D05A2D01D0742B0CD16C2BAC
:104970000CF101050BD19CF801A0BAF16C0F06D126
:104980000CF102054C2302E065464FF0FF3395F829
:1049900000C0BCF16E0F7DD011D8BCF1630F23D0E5
:1049A00006D8BCF1250F7BD0BCF1580F7ED083E038
:1049B000BCF1640F7DD0BCF1690F7AD07CE0BCF112
:1049C000730F30D007D8BCF16F0F00F08780BCF1B7
:1049D000700F33D070E0BCF1750F7CD0BCF1780F54
:1049E0006AD141F0200161E0C9060AD40EF1FF3E10
:1049F000BEF1000F05DDB44238BF84F800900134E9
:104A0000F4E7B44202D21368043223700EF1FF3E81
:104A1000BEF1000F04F1010440F39380B44238BFAB
:104A200084F80090F2E78DE8030002F1040A2046C2
:104A3000314612687346FFF7DBF880E002F1040AA2
:104A4000126842B98DE80300474A20463146734652
:104A5000FFF7CEF813E0BEF1FF3F4FF010030ABF9F
:104A60004FF0080E41F0200141F021018DE808408F
:104A700002900391204631460023FFF7F9F80446DF
:104A8000AB465D4668780BF1010BFFF7F1F90028A2
:104A9000F7D155E0131D1268E11B11601A4650E072
:104AA000B44238BF84F800C001344AE04FF0100C23
:104AB00016E041F002010EE0B4423CBF2523237012
:104AC0002978631C21B1B34238BF6170023438E0E9
:104AD000013D1C4635E04FF00A0C01E04FF0080C98
:104AE0004C2B06D1073222F0070202F1080A0CCA49
:104AF0001DE06C2B02F1040A03D18B07126815D458
:104B000005E023F0200BBBF15A0F126801D10023FE
:104B10000DE0742B0AD0682B01F0020304D10BB90D
:104B200092B2F4E712B201E0002BF0D0D31702905A
:104B300003918DE8005020463146FFF799F804466E
:104B40005246013587E6B8F1000F08D0B44238BFAD
:104B500023700134B44284BF002306F8013CE01BFB
:104B600005B0BDE8F08F00BFA47D00080000000084
:104B70000FB410B5C2B044AB53F8042B4FF480719E
:104B800002A80193FFF75CFE044602A8FFF728FA8B
:104B9000204642B0BDE8104004B07047000000005D
:104BA0000EB403B503AB53F8042B6FF0004101932F
:104BB000FFF746FE02B05DF804EB03B0704700005B
:104BC0002DE9F04786B004460E461546FEF700FA7A
:104BD0000128804602D02046A64995E33046294662
:104BE000A54AFEF7B5F9002839D0022E34D16B68FA
:104BF0001B782B2B02D02D2B2ED116E0462004A99A
:104C000002F016FC0246002863D1BDF810104620C1
:104C100041F0020189B2ADF8101002F091FA02469B
:104C2000002856D1204695496EE3462004A902F09B
:104C3000FFFB024600284CD1BDF81010462021F0A1
:104C4000020189B2ADF8101002F07AFA024600288B
:104C50003FD120468A4957E320468A4954E33046EB
:104C60002946894AFEF774F900283BD0022E36D136
:104C70006B681B782B2B02D02D2B30D114E04620F3
:104C800004A902F0D5FB024618BBBDF8101046205F
:104C900041F0040189B2ADF8101002F051FA024659
:104CA000B8B9204679492FE3462004A902F0C0FB99
:104CB000024670B9BDF81010462021F0040189B2F7
:104CC000ADF8101002F03CFA024610B920467049C7
:104CD0001AE3002A80F21A8320466E495BE22046DE
:104CE0006D4911E3304629466C4AFEF731F9074613
:104CF00000283BD0022E26D16F6869493846FEF75E
:104D0000FFF998B138466749FEF7FAF908B9404605
:104D10000CE038466449FEF7F3F908B9304605E07F
:104D200038466249FEF7ECF938B90320FFF7E8F995
:104D30000246204622B15E492DE220465D4904E24A
:104D40005D496A6827E220465C49FEF7F9FA204689
:104D50005B49FEF7F5FA20465A49FEF7F1FA20467C
:104D60005949FEF7EDFA20465849CDE2304629462A
:104D7000574AFEF7EDF8824688B1022E07D0394631
:104D8000202004AA02F064FA20465249CEE03946B7
:104D9000686801F00DFA394682B220202FE03046D3
:104DA00029464D4AFEF7D4F8814680B1022E07D03D
:104DB0000221202004AA02F04BFA20464749B5E020
:104DC0006868514601F0F4F982B2202016E03046BE
:104DD0002946434AFEF7BCF8074698B1022E07D091
:104DE0000221212004AA02F033FA20463D499DE029
:104DF0006868494601F0DCF982B22120314602F0B0
:104E0000C7FA83E230462946374AFEF7A1F8F8B1DF
:104E1000022E0AD0414604AA6B20434602F0A0F9B4
:104E2000204632499DF81020B5E13946686801F006
:104E3000BFF941468DF8100004AA6B20434602F0EA
:104E400017FA10B120462A495EE2204629495BE262
:104E500030462946284AFEF77BF8002869D0022E02
:104E60004ED00021222004AA02F0F2F92046234964
:104E70005CE000BFF0820008178300081B83000875
:104E80003583000879830008C68500088D830008F3
:104E9000A483000859830008C5830008D98300084B
:104EA000E4830008ED830008F1830008F98300081B
:104EB0002284000801840008448400085B84000800
:104EC00097840008C884000800850008368500081B
:104ED000668500086E850008948500089D85000899
:104EE000C3850008CA850008E7850008F08500082A
:104EF00010860008D57E0008D099000818860008A2
:104F00000021686801F054F9A449ADF8100020466A
:104F1000FEF716FABDF810202220002102F038FA20
:104F2000021E204601DA9E4935E19E49BDF9102056
:104F300031E1304629469C4AFEF70AF8F8B1022EC4
:104F400005D004A8FEF7ECFD2046984914E00021A6
:104F5000686801F02DF99649ADF810002046FEF77B
:104F6000EFF91720BDF8101002F0EAF8021E2046F3
:104F700001DA90490FE19049BDF810200BE130466D
:104F800029468E4AFDF7E4FF00B3032E02D02046E7
:104F90008B49B9E16868002101F00AF90021064651
:104FA000A86801F005F9054686492046ADB2FEF72E
:104FB000C7F930462946FFF75BF8021E204601DAA2
:104FC0008149E8E0814932462B461BE030462946BC
:104FD0007F4AFDF7BDFF0746E8B1012E02D120460A
:104FE0007C4991E16B681A78A2F13203022B0FD849
:104FF000A2F130052846FFF7A3F8031E204604DA85
:105000002A467549FEF79CF980E174492A46C2E0B8
:1050100020467349BFE030462946724AFDF798FFA3
:1050200068B3022E14D16B681B78312B05D1012097
:10503000FEF7F6FF20466C4966E1302B40F06281B6
:1050400020466A49FEF77CF93846FEF7E9FF5DE144
:10505000012E40F057810221402004AA0B4602F0A5
:105060007FF828B99DF8110080F00800C0F3C00057
:1050700010B120465E4947E120465E4944E1304692
:1050800029465D4AFDF764FF074660B120465B494B
:10509000FEF756F9FEF7E4FF024600283FF4D5AECE
:1050A0002046574977E030462946564AFDF750FFDB
:1050B000804600284BD020465349FEF741F9622331
:1050C00006AD05F80C3D05230B200093294601226F
:1050D00004AB01F01DFC20B14C4B9F6847F080777A
:1050E0002EE09DF8123000978DF80D309DF81130AC
:1050F0000B208DF80E30294603223B468DF80C70AC
:1051000001F006FC20B1414B9F6847F0007717E0A3
:105110009DF8143000978DF80D309DF813300B205A
:105120008DF80E30294603223B468DF80C7001F0B5
:10513000EFFB002800F0E080344B9F6847F0407799
:10514000002F00F0D980204631493A4623E030460E
:105150002946304AFDF7FCFE074678B120462E4925
:10516000FEF7EEF842464120414602F069F9024658
:10517000002800F0C180204625490CE03046294631
:10518000264AFDF7E5FE002800F0B980042E4BD03A
:1051900020462349234AFEF7D3F8B7E03B860008B0
:1051A0005986000882860008A4860008AA8600089E
:1051B000C9860008E1860008038700081B870008ED
:1051C000248700085387000868870008878700083D
:1051D000A7900008AC870008C6870008E58700088C
:1051E000F887000811880008148800083388000830
:1051F00056880008748800086981000896880008AD
:10520000BE880008CE880008D6880008B81700209D
:10521000FB8800080F8900081689000836890008F5
:105220003A8900086C890008686801F039F8064678
:10523000A86801F035F88046E86801F031F800F21E
:10524000111000EB800533492046FEF779F820461F
:1052500031490322FEF774F86D0020462F4932B21F
:10526000FEF76EF8ADB220462D490FFA88F2FEF730
:1052700067F82A4620462B49FEF762F84021384657
:1052800001F05EFF402306A901F80C3D01223846DB
:1052900001F02EFF0321632001F052FF1FFA88F175
:1052A000602001F04DFFB1B2612001F049FF2946B5
:1052B000622001F045FF51204CF2D50101F040FF82
:1052C000512004A902F0B4F8BDF81050C5F30D0543
:1052D000ADF810501DB1C820FCF71AFEF0E72946C2
:1052E0002A46722001F004FF6420FCF711FE7320AF
:1052F00029462A4601F0FCFE20460B4904E02046E0
:105300000A4901E020460A49FEF71AF806B0BDE84E
:10531000F08700BF0B8A0008228A0008368A00083E
:105320004D8A0008648A0008088900087B8A000802
:10533000B68D000800000000000000000000000022
:1053400073B504460DF106001E460D469047034610
:10535000204623B10A492A4601F0BAFD0DE0094969
:105360002A4601F0B5FD20463146BDF9062001F080
:10537000AFFD2046044901F0ABFD02B070BD00BF97
:10538000108E0008238E00084B9C000800000000CF
:1053900073B50446FDF71CFE012805D020466A4976
:1053A00001F096FD00F06EBC01F042FA204667491C
:1053B000674A00F0C5FF20466649674A00F0C0FF13
:1053C00020466649664A674B01F092FD022206209C
:1053D00001A902F035F80246002840F04E84BDF8DD
:1053E00004301B0AADF804309B09032B09D05E4A38
:1053F000D5565E4AD1565E4A5E4B002918BF1A4602
:1054000001E005465B4A20465B4901F061FD584BCF
:10541000584A2046002D08BF1A46584901F058FD49
:10542000BDF80430564A03F00F0352F823202046FB
:10543000544901F04DFDBDF8043003F00F02092A74
:1054400044D1514AC3F3011352F8232020464F4957
:1054500001F03EFD20464E494E4A424B01F048FDC8
:1054600020464D494D4A3F4B01F042FD20464C49F4
:105470004C4A3C4B01F03CFD20464B49474A4B4BC4
:1054800001F036FD20464A494A4A4B4BFFF758FF88
:1054900020464A494A4A4B4BFFF752FF20464A49A9
:1054A0004A4A454B01F024FD20464949494A2D4BC3
:1054B00001F01EFD20464849484A2A4B01F018FDDC
:1054C00020464749474A274B01F012FD20464649EE
:1054D000464A474B01F00CFD454B20464549464A9C
:1054E00001F006FD20464549454A00F029FF2046C7
:1054F0004449454A454B01F0FBFC20464449454A96
:10550000454B01F0F5FC20464449454A454B01F026
:10551000EFFC454A434B2046444901F011FD01A9E7
:10552000032001F085FFBDF904302046002B4049DF
:10553000404A80F28780404B01F0DAFC20463F4928
:105540003F4A3D4B85E000BFF08200084B8E0008CB
:10555000E13B0008598E0008D13B0008648E00082A
:10556000E13A0008768E0008409A0008309A000858
:105570002A8E0008A09900087B8E0008948E0008EF
:10558000D08D0008AD8E0008209A0008C68E000855
:10559000DF8E0008913A0008EA8E0008A13A000860
:1055A000F48E0008213A0008008F00080C8F0008D4
:1055B000128F0008813A00081E8F0008248F00080F
:1055C000713A0008348F00083A8F0008513A0008F9
:1055D000518F0008613A0008648F0008413A0008C2
:1055E000768F0008313A0008888F0008913B000848
:1055F000998F0008A48F0008813B0008B68F00082F
:10560000C13B0008C18F0008A13B0008D08F0008F3
:10561000D78F0008213B0008E48F0008E78F0008BF
:10562000F13A0008F78F0008B13B0008FC8F000832
:1056300004900008313B0008129000081A900008FE
:10564000113B0008C44B01F053FC2046C349C44A37
:10565000C14B01F04DFC08200DF1060101F0E8FE00
:1056600028B9BDF80630A3F6AA23ADF806300A2201
:10567000BDF906306FF0090593FBF2F2204605FBF9
:105680000233B84901F024FC2046B749B74AB84B69
:1056900001F02EFC2046B749B74AB84BFFF750FE41
:1056A0002046B749B74AB54BFFF74AFE2046B649F0
:1056B000B64AAF4B01F01CFC2046B549B54AAF4B8A
:1056C00001F016FC2046B449B44AB54B01F038FC51
:1056D0000125C5F1400001A9C0B201F0A9FE031ED9
:1056E000B5BF2A462A46AF49AF49A8BFBDF8043026
:1056F0002046013501F0ECFB052DEAD10DF1060144
:10570000552001F095FE2046A849BDF80620A84D79
:10571000A84E01F0DDFBBDF90620204615EA220265
:1057200038BF3246A44901F0D3FBBDF80630A34A86
:1057300013F4804F08BF2A462046A14901F0C8FB58
:10574000BDF80630204613F4005F14BF32462A46E7
:105750009C4901F0BDFBBDF80630204613F4805F84
:1057600014BF32462A46984901F0B2FBBDF8063014
:10577000204613F4006F14BF32462A46934901F0C5
:10578000A7FBBDF80630204613F4806F14BF3246E5
:105790002A468E4901F09CFBBDF80630204613F4E2
:1057A000007F14BF32462A46894901F091FBBDF8BB
:1057B0000630204613F4807F14BF32462A468549BE
:1057C00001F086FBBDF80630204613F0800F14BFB1
:1057D00032462A46804901F07BFBBDF806307F4AFD
:1057E00013F0400F08BF2A4620467D4901F070FBA8
:1057F000BDF80630204613F0200F14BF32462A466B
:10580000784901F065FBBDF80630204613F0100F13
:1058100014BF32462A46744901F05AFBBDF80630DF
:10582000204613F0080F14BF32462A466F4901F094
:105830004FFBBDF80630204613F0040F14BF32466C
:105840002A466B4901F044FBBDF80630204613F0B0
:10585000020F14BF32462A46664901F039FBBDF8F3
:105860000630204613F0010F14BF32462A46624923
:1058700001F02EFB2046614901F02AFB162001A908
:1058800001F0D6FDBDF90430002B03DA20465C4957
:1058900001F01EFBBDF80430590403D520465949D8
:1058A00001F016FBBDF80430DA0403D52046564952
:1058B00001F00EFBBDF804301B0503D5204653490B
:1058C00001F006FBBDF804309E0503D52046504983
:1058D00001F0FEFABDF80430DD0503D520464D4940
:1058E00001F0F6FA20464C4901F0F2FABDF8043016
:1058F000180603D52046494901F0EAFABDF80430FC
:10590000590603D52046464901F0E2FABDF80430B5
:105910009A0603D52046434901F0DAFABDF804306F
:10592000DB0603D52046404901F0D2FABDF8042039
:10593000204612F00F0203D03C4901F0C9FA02E000
:105940003B4901F0C5FA502001A901F071FD002882
:1059500072D020463749F8E02B9000081A900008D2
:10596000113B00083290000850900008713B00087D
:105970000C8F000859900008613B00081E8F00083A
:1059800062900008013B000873900008413B00084A
:1059900083900008513B000893900008B13A00083A
:1059A000A4900008AD900008CF900008EC9000088B
:1059B0002E8E0008318E000807910008358E0008F1
:1059C00024910008419100085E9100087B91000835
:1059D00098910008B5910008D29100083F8E000808
:1059E000EF9100080C9200082992000846920008E6
:1059F00063920008809200089D920008BA92000805
:105A0000C4920008DC920008F99200080F93000885
:105A10002F9300084E9300086993000879930008BB
:105A200093930008B6930008D2930008F1930008FE
:105A30000B94000820940008BDF804302046002B89
:105A400000F08280904901F043FABDF90430002B48
:105A500003DA20468D4901F03BFABDF804305E04BC
:105A600003D520468A4901F033FABDF804309D047D
:105A700003D52046874901F02BFABDF80430D8043D
:105A800003D52046844901F023FABDF804301905F6
:105A900003D52046814901F01BFABDF804305A05B0
:105AA00003D520467E4901F013FABDF804309B056A
:105AB00003D520467B4901F00BFABDF80430DE0522
:105AC00003D52046784901F003FABDF804301D06DD
:105AD00003D52046754901F0FBF9BDF8043058069E
